:10000000F8FF002011040000415400004B4900009B
:10001000415400004154000041540000415400008C
:10002000415400004154000041540000415400007C
:100030004154000041540000494900004749000074
:10004000E74B0000415400004154000041540000BF
:10005000BF4B0000415400004154000041540000D7
:10006000415400004154000041540000415400003C
:10007000415400004154000041540000415400002C
:10008000415400004154000041540000415400001C
:10009000415400004154000041540000415400000C
:1000A00041540000415400004154000041540000FC
:1000B00041540000415400004154000041540000EC
:1000C00041540000415400004154000041540000DC
:1000D00041540000415400004154000041540000CC
:1000E00041540000415400004154000041540000BC
:1000F00041540000415400004154000041480000B8
:10010000415400004154000041540000415400009B
:10011000415400004154000041540000415400008B
:10012000415400004154000041540000415400007B
:100130004154000041540000674B0000694B00002F
:10014000415400004154000041540000415400005B
:100150007948000065480000C14A00004154000091
:10016000415400004154000041540000415400003B
:10017000415400004154000041540000415400002B
:10018000415400004154000041540000415400001B
:10019000415400004154000041540000415400000B
:1001A000854A0000094C00005749000041540000F6
:1001B00041540000415400004154000041540000EB
:1001C00041540000415400004154000041540000DB
:1001D00041540000415400004154000041540000CB
:1001E00041540000415400004154000041540000BB
:10040000FFFFFFFFFFFFFFFFFFFFFFFFFEFFFFFFFD
:1004100062B64FF000004FF000014FF000024FF0C5
:1004200000034FF000044FF000054FF000064FF0BE
:1004300000074FF000084FF000094FF0000A4FF09E
:10044000000B4FF0000C03F043FDFEE7000000003E
:10045000000034400000000000C0584000000000D0
:100460000080494066666666666606409A99999974
:1004700099F9504000B0034000B00B4000800340A9
:100480000090034000800B4000F00F4040F00F4010
:1004900080F00F40C0F00F4000F10F40009004408A
:1004A00000A0044000B0044000C0044000D004405C
:1004B0000102030A0405060B0708090C0E000F0DC4
:1004C00004000000010000000A0000000A00000013
:1004D00036F70000409C00000A000000F401000014
:1004E000F8010000FC01000001020000050200000C
:1004F000090200000D0200001202000016020000B6
:100500001A0200001E020000230200002702000061
:100510002B0200002F02000033020000380200000E
:100520003C020000400200004402000048020000BB
:100530004C02000050020000550200005902000069
:100540005D02000061020000650200006902000017
:100550006D020000710200007502000079020000C7
:100560007D02000081020000850200008902000077
:100570008D0200009002000094020000980200002A
:100580009C020000A0020000A3020000A7020000DD
:10059000AB020000AF020000B2020000B602000091
:1005A000BA020000BD020000C1020000C402000047
:1005B000C8020000CB020000CF020000D2020000FF
:1005C000D6020000D9020000DC020000E0020000B8
:1005D000E3020000E6020000E9020000ED02000074
:1005E000F0020000F3020000F6020000F902000031
:1005F000FC020000FF0200000203000005030000EF
:10060000080300000B0300000E03000010030000AD
:100610001303000016030000180300001B03000072
:100620001E03000020030000230300002503000038
:10063000280300002A0300002C0300002F03000001
:1006400031030000330300003603000038030000CC
:100650003A0300003C0300003E030000400300009A
:10066000420300004403000046030000470300006B
:10067000490300004B0300004D0300004E0300003F
:100680005003000052030000530300005503000014
:100690005603000057030000590300005A030000EE
:1006A0005B0300005C0300005E0300005F030000CA
:1006B00060030000610300006203000063030000A8
:1006C000630300006403000065030000660300008C
:1006D0006603000067030000680300006803000071
:1006E00069030000690300006A0300006A03000058
:1006F0006A0300006A0300006B0300006B03000044
:100700006B0300006B0300006B0300006B03000031
:100710006B0300006B0300006B0300006A03000022
:100720006A0300006A030000690300006903000017
:10073000680300006803000067030000670300000F
:100740006603000065030000650300006403000009
:100750006303000062030000610300006003000007
:100760005F0300005E0300005D0300005C03000007
:100770005B0300005903000058030000570300000A
:100780005503000054030000520300005103000011
:100790004F0300004E0300004C0300004A0300001A
:1007A0004803000047030000450300004303000026
:1007B000410300003F0300003D0300003B03000035
:1007C0003903000037030000340300003203000047
:1007D000300300002E0300002B030000290300005B
:1007E0002603000024030000210300001F03000073
:1007F0001C0300001A03000017030000140300008C
:10080000120300000F0300000C03000009030000A6
:10081000060300000303000001030000FE020000C5
:10082000FB020000F7020000F4020000F1020000E9
:10083000EE020000EB020000E8020000E50200000A
:10084000E1020000DE020000DB020000D70200002F
:10085000D4020000D0020000CD020000C902000056
:10086000C6020000C2020000BF020000BB0200007E
:10087000B8020000B4020000B0020000AD020000A7
:10088000A9020000A5020000A20200009E020000D2
:100890009A02000096020000920200008E02000000
:1008A0008B02000087020000830200007F0200002C
:1008B0007B02000077020000730200006F0200005C
:1008C0006B02000067020000630200005F0200008C
:1008D0005B02000057020000520200004E020000BE
:1008E0004A02000046020000420200003E020000F0
:1008F0003A02000035020000310200002D02000023
:100900002902000025020000200200001C02000055
:100910001802000014020000100200000B02000088
:100920000702000003020000FF010000FA010000BE
:10093000F6010000F2010000EE010000E9010000F4
:10094000E5010000E1010000DD010000D801000028
:10095000D4010000D0010000CC010000C80100005B
:10096000C3010000BF010000BB010000B70100008F
:10097000B3010000AE010000AA010000A6010000C2
:10098000A20100009E0100009A01000096010000F3
:10099000910100008D010000890100008501000027
:1009A000810100007D010000790100007501000057
:1009B000710100006D010000690100006501000087
:1009C000610100005D0100005A01000056010000B5
:1009D000520100004E0100004A01000046010000E3
:1009E000430100003F0100003B010000380100000E
:1009F00034010000300100002D0100002901000039
:100A000026010000220100001F0100001B01000060
:100A10001801000014010000110100000D01000088
:100A20000A010000070100000301000000010000AE
:100A3000FD000000FA000000F7000000F4000000D4
:100A4000F1000000ED000000EA000000E7000000F7
:100A5000E5000000E2000000DF000000DC00000014
:100A6000D9000000D6000000D4000000D100000032
:100A7000CE000000CC000000C9000000C70000004C
:100A8000C4000000C2000000BF000000BD00000064
:100A9000BA000000B8000000B6000000B40000007A
:100AA000B1000000AF000000AD000000AB0000008E
:100AB000A9000000A7000000A5000000A30000009E
:100AC000A1000000A00000009E0000009C000000AB
:100AD0009A000000990000009700000096000000B6
:100AE00094000000930000009100000090000000BE
:100AF0008F0000008D0000008C0000008B000000C3
:100B00008A000000890000008800000087000000C3
:100B100086000000850000008400000083000000C3
:100B200083000000820000008100000081000000BE
:100B300080000000800000007F0000007F000000B7
:100B40007E0000007E0000007E0000007D000000AE
:100B50007D0000007D0000007D0000007D000000A1
:100B60007D0000007D0000007D0000007D00000091
:100B70007E0000007E0000007E0000007E0000007D
:100B80007F0000007F000000800000008000000067
:100B9000810000008200000082000000830000004D
:100BA0008400000085000000850000008600000031
:100BB0008700000088000000890000008A00000013
:100BC0008C0000008D0000008E0000008F000000EF
:100BD00091000000920000009300000095000000CA
:100BE00096000000980000009A0000009B000000A2
:100BF0009D0000009F000000A1000000A200000076
:100C0000A4000000A6000000A8000000AA00000048
:100C1000AC000000AE000000B0000000B200000018
:100C2000B5000000B7000000B9000000BC000000E3
:100C3000BE000000C0000000C3000000C5000000AE
:100C4000C8000000CA000000CD000000D000000075
:100C5000D2000000D5000000D8000000DA0000003B
:100C6000DD000000E0000000E3000000E6000000FE
:100C7000E9000000EC000000EF000000F2000000BE
:100C8000F5000000F8000000FB000000FF0000007D
:100C90000201000005010000080100000C01000035
:100CA0000F010000120100001601000019010000F0
:100CB0001D010000200100002401000027010000A8
:100CC0002B0100002E01000032010000360100005F
:100CD000390100003D010000410100004501000014
:100CE000480100004C0100005001000054010000C8
:100CF000580100005B0100005F010000630100007B
:100D0000670100006B0100006F010000730100002B
:100D1000770100007B0100007F01000083010000DB
:100D2000870100008B0100008F010000930100008B
:100D3000980100009C010000A0010000A401000037
:100D4000A8010000AC010000B0010000B5010000E6
:100D5000B9010000BD010000C1010000C501000093
:100D6000CA010000CE010000D2010000D60100003F
:100D7000DB010000DF010000E3010000E7010000EB
:100D8000EC010000F0010000F4010000FB01000094
:100D90000202000009020000100200001702000019
:100DA0001E020000250200002C0200003302000099
:100DB0003A02000041020000480200004F02000019
:100DC000560200005D020000630200006A0200009B
:100DD00071020000780200007E020000850200001F
:100DE0008B02000092020000980200009E020000A8
:100DF000A5020000AB020000B1020000B702000033
:100E0000BD020000C3020000C9020000CF020000C2
:100E1000D4020000DA020000E0020000E502000057
:100E2000EA020000F0020000F5020000FA020000F1
:100E3000FF02000004030000090300000E0300008D
:100E400012030000170300001B0300001F03000033
:100E500024030000280300002C03000030030000DE
:100E600033030000370300003B0300003E03000093
:100E70004103000044030000470300004A03000050
:100E80004D03000050030000530300005503000011
:100E9000570300005A0300005C0300005E030000DB
:100EA0005F030000610300006303000064030000AF
:100EB000650300006603000067030000680300008C
:100EC000690300006A0300006A0300006B0300006E
:100ED0006B0300006B0300006B0300006B0300005A
:100EE0006A0300006A030000690300006903000050
:100EF000680300006703000066030000650300004C
:100F00006303000062030000600300005E03000052
:100F10005D0300005B03000058030000560300005F
:100F200054030000510300004F0300004C03000075
:100F30004903000046030000430300004003000093
:100F40003C030000390300003503000031030000BA
:100F50002E0300002A0300002603000021030000E6
:100F60001D0300001903000014030000100300001B
:100F70000B0300000603000002030000FD02000056
:100F8000F7020000F2020000ED020000E80200009B
:100F9000E2020000DD020000D7020000D2020000E1
:100FA000CC020000C6020000C0020000BA0200002D
:100FB000B4020000AE020000A8020000A20200007D
:100FC0009B020000950200008E02000088020000D3
:100FD000810200007B020000740200006E0200002B
:100FE0006702000060020000590200005202000087
:100FF0004C020000450200003E02000037020000E3
:101000003002000029020000220200001B02000042
:10101000140200000D02000006020000FF010000A3
:10102000F8010000F0010000E9010000E201000009
:10103000DB010000D4010000CD010000C60100006A
:10104000BF010000B8010000B1010000AA010000CA
:10105000A30100009C010000960100008F01000028
:1010600088010000810100007A0100007401000085
:101070006D01000067010000600100005A010000DE
:10108000530100004D010000460100004001000036
:101090003A010000340100002E0100002801000088
:1010A000220100001C0100001601000011010000D7
:1010B0000B0100000601000000010000FB00000021
:1010C000F6000000F1000000EB000000E600000068
:1010D000E2000000DD000000D8000000D4000000A5
:1010E000CF000000CB000000C7000000C2000000DD
:1010F000BE000000BA000000B7000000B30000000E
:10110000AF000000AC000000A8000000A500000037
:10111000A20000009F0000009C0000009900000059
:101120009700000094000000920000009000000072
:101130008D0000008B0000008A0000008800000085
:10114000860000008500000083000000820000008F
:1011500081000000800000007F0000007F00000090
:101160007E0000007E0000007D0000007D00000089
:101170007D0000007D0000007D0000007E0000007A
:101180007E0000007F000000800000008100000061
:101190008200000083000000840000008500000041
:1011A00087000000890000008A0000008C00000019
:1011B0008E000000910000009300000095000000E8
:1011C000980000009B0000009E000000A1000000AD
:1011D000A4000000A7000000AA000000AD0000006D
:1011E000B1000000B5000000B8000000BC00000025
:1011F000C0000000C4000000C9000000CD000000D5
:10120000D1000000D6000000DA000000DF0000007E
:10121000E4000000E9000000EE000000F300000020
:10122000F8000000FE0000000301000008010000BB
:101230000E01000014010000190100001F01000050
:10124000250100002B0100003101000037010000E2
:101250003D010000430100004A0100005001000070
:10126000560100005D010000630100006A010000FA
:1012700070010000770100007E0100008501000080
:101280008B0100009201000099010000A001000004
:10129000A7010000AE010000B5010000BC01000084
:1012A000C3010000CA010000D1010000D801000004
:1012B000DF010000E6010000ED010000F401000084
:1012C000000200000C0200001702000023020000D0
:1012D0002F0200003B020000460200005202000004
:1012E0005D02000068020000740200007F0200003E
:1012F0008A020000940200009F020000A902000080
:10130000B4020000BE020000C8020000D1020000CA
:10131000DB020000E4020000ED020000F602000023
:10132000FE020000060300000E030000160300008A
:101330001D030000240300002B0300003203000003
:10134000380300003E030000430300004803000090
:101350004D03000051030000560300005903000034
:101360005D030000600300006303000065030000EC
:1013700067030000680300006A0300006A030000BE
:101380006B0300006B0300006B0300006A030000A6
:1013900069030000680300006603000064030000A6
:1013A000610300005E0300005B03000058030000BF
:1013B000540300004F0300004B03000046030000ED
:1013C000400300003B030000350300002E03000033
:1013D00028030000210300001A030000120300008C
:1013E0000A03000002030000FA020000F1020000FC
:1013F000E9020000DF020000D6020000CD0200007A
:10140000C3020000B9020000AF020000A402000005
:101410009A0200008F02000084020000790200009E
:101420006E02000063020000570200004C02000040
:101430004002000035020000290200001D020000E9
:101440001202000006020000FA010000EE01000096
:10145000E2010000D6010000CB010000BF01000046
:10146000B3010000A80100009C01000091010000F0
:10147000850100007A0100006F0100006401000096
:10148000590100004E010000440100003901000034
:101490002F010000250100001B01000012010000C7
:1014A00009010000FF000000F7000000EE0000004E
:1014B000E6000000DE000000D6000000CE000000C4
:1014C000C7000000C0000000BA000000B300000028
:1014D000AD000000A8000000A20000009D00000078
:1014E0009900000094000000900000008D000000B2
:1014F0008A000000870000008400000082000000D5
:10150000800000007F0000007E0000007D000000E1
:101510007D0000007D0000007E0000007E000000D5
:1015200080000000810000008300000085000000B2
:10153000880000008B0000008F0000009200000077
:10154000970000009B000000A0000000A500000024
:10155000AA000000B0000000B6000000BD000000BE
:10156000C4000000CB000000D2000000DA00000040
:10157000E2000000EA000000F2000000FB000000B2
:10158000040100000D01000017010000200100000F
:101590002A010000340100003F0100004901000061
:1015A000540100005E0100006901000074010000A8
:1015B000800100008B01000096010000A2010000E4
:1015C000AD010000B9010000C5010000D10100001B
:1015D000DC010000E8010000640000002C010000B4
:1015E000F401000064000000840300000B1F0000F1
:1015F0000009000000A0064000B0064000C0064000
:1016000000D0064000A00E4000B00E4080B572B67B
:101610005FF4E131002000F0CDFA00F0EBFBDFF8E1
:10162000F80400684FF4967148434FF47A71B0FBA8
:10163000F1F1002000F090FD00F0A5FE092100204E
:1016400000F084FF0C21002000F080FF0123012224
:101650000521012001F06AF900220021012001F09A
:1016600007FA64220020DFF8B41401F083FB62B6AD
:1016700000F016F800F074FCDFF8A40400680128FC
:10168000F8D100F071F90020DFF89814086000200C
:10169000DFF8941408600020DFF884140860E9E79C
:1016A00080B5002000F041FE322000F08DFD80A2C8
:1016B0000021002000F005FFDFF87004D0E90023CE
:1016C0000021142000F0F8F87AA20021412000F057
:1016D000F8FEDFF85C04D0E900230021552000F07B
:1016E000EBF89EA20121002000F0EBFEDFF844049D
:1016F000D0E900230121142000F0DEF898A2022195
:10170000002000F0DEFEDFF83004D0E900230221E3
:10171000142000F0D1F8DFF824240221412000F049
:10172000D0FEDFF81C04006801F056FC02000B003C
:1017300002215A2000F0C0F88AA20321002000F004
:10174000C0FEDFF80004D0E900230321142000F0DC
:10175000B3F8A3A20421002000F0B3FEDFF8E803F1
:10176000D0E900230421142000F0A6F801BD80B5C3
:10177000DFF8C403D0E900230221142000F09CF814
:10178000DFF8C003D0E900230321142000F094F80F
:10179000DFF8B403D0E900230421142000F08CF812
:1017A000DFF89403D0E900010022DFF8A03301F054
:1017B00029FC1CD8DFF88003D0E900010122DFF802
:1017C000903301F037FC12D20220DFF88813086052
:1017D000DFF86403D0E900010022DFF87C3301F078
:1017E00041FC01F011FDDFF87413086041E0DFF8FF
:1017F0004803D0E900010022DFF8643301F002FC65
:1018000019D8CD48D0E900010022DFF8583301F0A3
:1018100011FC10D20120DFF83C130860C648D0E963
:1018200000010022DFF8403301F01CFC01F0ECFC69
:10183000CA4908601DE0C048D0E900010122CB4B35
:1018400001F0E0FB15D8BC48D0E900010122C84BEB
:1018500001F0F0FB0DD20320BE490860B648D0E984
:1018600000010022C34B01F0FDFB01F0CDFCBB49A0
:101870000860BA48006801F0AFFB01F044FB01BD0D
:1018800080B5BD48D0E900230021142000F014F8F1
:10189000BA48D0E900230021552000F00DF8A548F2
:1018A000D0E900230121142000F006F801BD00005A
:1018B00055303A0049303A002DE9F14F84B08B465B
:1018C00014001D0002A8AE49062201F0C3FC002648
:1018D0005FF000085FF000095FF0000A00270022B7
:1018E000A34B2000290001F0BDFB01F08DFC070097
:1018F0004FF47A7097FBF0F00600642097FBF0F04D
:101900000A2101FB160080460A2097FBF0F06421B3
:1019100001FB16000A2101FB180081464FF47A7082
:1019200000FB1670642101FB18000A2101FB19005D
:101930008246CDF804A0CDF800904346320091498C
:1019400002A801F075FF02AA58460100C9B2049826
:10195000C0B200F0B6FD05B0BDE8F08F55323A00D8
:1019600066303A004B703A0038B5874800688649BF
:101970004860864800686B490968401A82490860D7
:101980008148006880494968401A01F025FB6D4A8A
:10199000D2E9002301F066FB0022754B01F062FFE3
:1019A00004000D007848006801F016FB664AD2E991
:1019B000002301F057FB22002B0002F07FF8040007
:1019C0000D007348006801F007FB22002B0002F0B5
:1019D00075F801F019FC6E49086031BD0000000087
:1019E0004B693A0080B56B480068012840F093804D
:1019F00058480068012821D16748006840F22B212F
:101A0000884205DB002064490860012044490860E1
:101A1000624800686249604A126851F822104843DF
:101A20000A2190FBF1F05F4908605E48006801F010
:101A300048FA59480068401C574908604548006802
:101A4000022820D154480068B0F5A67F05DD0020AB
:101A500051490860012032490860504800685249E5
:101A60004D4A126851F8221048430A2190FBF1F0C8
:101A70004C4908604B48006801F023FA464800686A
:101A8000401C454908603348006803281FD142487C
:101A90000068C72805DB00203F4908600120204975
:101AA00008603E48006841493B4A126851F82210DC
:101AB00048430A2190FBF1F03A4908603948006830
:101AC00001F0FFF934480068401C334908602148A0
:101AD000006804281FD130480068052805DB002075
:101AE0002D49086001200E4908602C4800683049E3
:101AF000294A126851F8221048430A2190FBF1F05C
:101B0000284908602748006801F0DBF9224800688E
:101B1000401C2149086001BD7C16FF1F0088E3407E
:101B20007016FF1F5C16FF1F6016FF1F2004FF1FAB
:101B30002804FF1F3004FF1F1804FF1F4856000031
:101B40008804FF1F1004FF1F2016FF1F00004140E4
:101B500000004E408404FF1F00D084409804FF1F03
:101B600000003440000042400058914000004D40C9
:101B70000000594000E078402816FF1F3016FF1F74
:101B800050560000005600006816FF1F9404FF1F07
:101B90009C04FF1F6416FF1F5016FF1F9004FF1FB9
:101BA000A004FF1F8C04FF1F4C0DFF1F8012FF1F9E
:101BB0009C15FF1FF0B4C0B2002808D0022824D022
:101BC00014D304283FD02FD305284BD059E04FF42D
:101BD0004076774F3E604FF44076764F3E60764ECB
:101BE000366856F48066744F3E604AE04FF44076A3
:101BF000724F3E604FF44076714F3E606E4E3668D5
:101C000056F400666C4F3E603BE04FF440766D4FFB
:101C10003E604FF440766C4F3E60674E366856F437
:101C20008056654F3E602CE04FF44076674F3E6033
:101C30004FF44076664F3E605F4E366856F400566D
:101C40005D4F3E601DE04FF44076624F3E604FF4C2
:101C50004076614F3E60614E366856F480665F4F55
:101C60003E600EE04FF440765D4F3E604FF44076AC
:101C70005C4F3E60594E366856F40066574F3E60E2
:101C8000FFE7594EC0B256F82060F67816F0F3061A
:101C9000554FC0B257F82070FE700026524FC0B2A8
:101CA00057F82070BE70C0B2002801D1012600E0B4
:101CB0000026C0B2012801D1012700E00027F6B2BA
:101CC000FFB23E43002E06D0484E36684FF47A7776
:101CD0007E43350005E0464E36684FF47A777E4302
:101CE00035000E01B5FBF6F632003F4EC0B256F895
:101CF0002060367816F0E0063400C2F3042626434E
:101D0000394FC0B257F820703E70374EC0B256F807
:101D1000206072706E010F01B6FBF7F692B2B6EB5F
:101D200042163300304EC0B256F82060B67A16F034
:101D3000E006340013F01F0626432B4FC0B257F8BD
:101D40002070BE72284EC0B256F82060F67856F069
:101D50000C06254FC0B257F82070FE70F0BC7047DB
:101D60002149C0B251F8201009798906F8D51E49D9
:101D7000C0B251F82000C07970471B4AC0B252F877
:101D8000202012791206F8D5174AC0B252F8202046
:101D9000D171704738B504000D002878002806D0AE
:101DA00029782000C0B2FFF7E8FF6D1CF5E731BDD0
:101DB0003C90044038900440348004400CB004400F
:101DC00010B004400CC0044008C0044040B00440BF
:101DD00044B0044064D0044060D0044028800440F3
:101DE00024D0044020D00440B815FF1F7416FF1FF4
:101DF0007C16FF1F80B5012300220021042000F083
:101E000095FD012300220121042000F08FFD012314
:101E100000220221042000F089FD01230022032179
:101E2000042000F083FD002301220421042000F09F
:101E30007DFD002301220521042000F077FD002311
:101E400001220621042000F071FD00230122072158
:101E5000042000F06BFD0020DFF8881208700020DD
:101E6000DFF8841208700020DFF88012087000206C
:101E7000DFF87C1208600020DFF87812087000207C
:101E8000DFF87412088001BD38B58020DFF86C12CD
:101E9000087000200400E4B2042C47DAF020DFF8D8
:101EA00060120870DFF858020078DFF850120978E5
:101EB000401ADFF84C120870DFF840020078C0B218
:101EC0004008DFF838120870DFF838020078C0B236
:101ED00010F00F000F2827DA0120DFF82C1208700D
:101EE00000200500EDB2042D1EDADFF8180200789C
:101EF000C0B2DFF814120978084010F00F0F0AD1B1
:101F0000DFF80802E4B2A10051FA85F1405CDFF885
:101F1000DC11087022E0DFF8F00100784000DFF803
:101F2000E81108706D1CDDE7641CB4E70021042093
:101F300000F084FD0028F9D00121042000F07EFD8E
:101F40000028F3D00221042000F078FD0028EDD015
:101F50000321042000F072FD0028E7D031BD00000D
:101F600010B5DFF89C0100780020DFF894110870AC
:101F7000DFF89001007810F00F000400DFF868012E
:101F8000007800280ED1E4B214F00F000F2809DA0F
:101F90000120DFF8541108700F2001F003FEFFF755
:101FA00073FF9DE050480078012840F09880E4B22B
:101FB00014F00F000F2840F0928000204A4908706A
:101FC0000120484908704948007800285FD001285E
:101FD00010D0022824D0042817D005282BD0072899
:101FE00034D0082848D00A285CD00B285ED00E28B0
:101FF00037D06EE04648D0E900234648464901F014
:102000005DFD434AC2E9000163E04148D0E9002395
:102010004048424901F052FD3D4AC2E9000158E002
:102020003B48D0E9002300203D4901F047FD384AF4
:10203000C2E900014DE03648D0E9002300203949CB
:1020400001F03CFD324AC2E9000142E03648D0E9E5
:1020500000230020354901F031FD334AC2E9000177
:1020600037E03148D0E900230020314901F026FD56
:102070002D4AC2E900012CE02E48D0E900232E4869
:102080002E4901F01BFD2B4AC2E9000121E029483D
:10209000D0E9002328482A4901F010FD254AC2E969
:1020A000000116E001202749086012E000202649BF
:1020B000174AC2E90001002024491B4AC2E9000175
:1020C000002023491B4AC2E9000101202149086080
:1020D000FFE70F2005490870FFF749FB00E000BF4C
:1020E00010BD00009816FF1F9616FF1F9716FF1FC2
:1020F0004C16FF1F9916FF1F8A16FF1F9A16FF1F07
:1021000000F10F4010F10F409B16FF1F7404FF1FDA
:102110001804FF1F9A9999999999C93F9999C9BF2C
:1021200000002440000024C01004FF1F0000F03F06
:102130000000F0BF2016FF1F7B14AE47E17A843FFA
:10214000E17A84BF6416FF1F00004940000034405C
:102150000000E03F8804FF1F38B504000D00174859
:10216000006850F4000015490860154800688008B0
:102170008000134908601348E4B22101455011481A
:10218000E4B221010844C06850F001000D49E4B2F6
:1021900022011144C8600B48E4B221010844806860
:1021A00050F003000749E4B2220111448860E4B210
:1021B00014F1440001F01FFD31BD00003C800440DB
:1021C000007003400071034010B480B2002801D1B8
:1021D000012318000C2310FB03F0002319000B004F
:1021E00004009BB2A4B2A3420AD200231A0092B206
:1021F00040F237539A4201DA521CF8E7491CEEE7E5
:1022000010BC70470821DFF83823126852F004022E
:10221000DFF82C331A60DFF82823126832F002024C
:10222000DFF81C331A6000BF0A00511ED2B2002A28
:1022300025D0020608D5DFF80823126852F00802FC
:10224000DFF8FC321A6007E0DFF8F422126832F09F
:102250000802DFF8EC321A60DFF8E422126852F06C
:102260000202DFF8DC321A6000BFDFF8D422126805
:1022700032F00202DFF8C8321A604000D4E770473B
:102280000821DFF8BC22126832F00402DFF8B03215
:102290001A60DFF8AC22126832F00202DFF8A032D6
:1022A0001A600A00511ED2B2002A25D0020608D5B3
:1022B000DFF88C22126852F00802DFF884321A60CC
:1022C00007E0DFF87C22126832F00802DFF8703293
:1022D0001A60DFF86C22126852F00202DFF86032F6
:1022E0001A6000BFDFF85822126832F00202DFF8ED
:1022F00050321A604000D4E7704738B504000D0032
:10230000B5F15000C0B2FFF7BBFF2000C0B200091A
:1023100050F01000C0B2FFF7B3FF14F00F0050F000
:102320000100C0B2FFF7ACFF31BD70B50400002062
:102330000500EDB2082D17DAB5F15000C0B2FFF775
:102340009FFF0120FFF79CFF1020FFF799FF00205F
:102350000600F6B2802E05DA2000C0B2FFF752FF69
:10236000761CF6E76D1CE4E770BD80B2002809D04A
:102370004FF47A5211000A00511E92B2002AFAD18B
:10238000401EF2E7704780B501230122012103209E
:1023900000F0CCFA012301220221032000F0C6FA4A
:1023A000012301220321032000F0C0FA01230122AE
:1023B0000421032000F0BAFA002301220F21022099
:1023C00000F0B4FADFF87801006850F00200DFF89E
:1023D00070110860DFF86801006830F01000DFF865
:1023E00060110860DFF85C01006830F40040DFF83D
:1023F000541108603220FFF7B8FFDFF84801006889
:1024000050F40040DFF83C110860AE20FFF738FFC1
:102410000020FFF735FF1020FFF732FF4020FFF7C5
:102420002FFF8120FFF72CFFCF20FFF729FFA120EE
:10243000FFF726FFC820FFF723FFA620FFF720FFA6
:10244000A820FFF71DFF3F20FFF71AFFD320FFF75B
:1024500017FF0020FFF714FFD520FFF711FF8020A2
:10246000FFF70EFFD920FFF70BFFF120FFF708FF62
:10247000DA20FFF705FF1220FFF702FFDB20FFF74E
:10248000FFFE4020FFF7FCFE2020FFF7F9FE0220B0
:10249000FFF7F6FE8D20FFF7F3FE1420FFF7F0FEA6
:1024A000A420FFF7EDFEA620FFF7EAFEAF20FFF71E
:1024B000E7FE0020FFF739FF00210020FFF71DFF96
:1024C00001BD2DE9F84304000D00160000275FF060
:1024D00000085FF000095FFA89F916F80900002882
:1024E0002BD05FFA89F916F8090020380700E4B20A
:1024F0007F2C02DB002004006D1C2900C9B22000E3
:10250000C0B2FFF7FAFE002080465FFA88F8B8F103
:10251000060F0EDA0C48FFB2062101FB07F1084452
:102520005FFA88F810F80800FFF76CFE18F1010850
:10253000EBE7A41D19F10109CDE7BDE8F183000027
:10254000C0F00F4080F00F40B44C000038B50400DC
:102550000D00E4B2002C05D1EDB2082D02DBEDB286
:10256000132D0DDBE4B2012C05D1EDB2042D02DBFD
:10257000EDB2122D04DB2221DFF85C0301F0D6FB63
:10258000E4B2002C02D0012C7CD0EEE0DFF84C034A
:10259000006850F00060DFF844130860DFF8400383
:1025A000006830F09000DFF8381308600020DFF892
:1025B00030130860EDB22800083801280CD9801EBD
:1025C00001281AD9801E012828D9801E012836D951
:1025D000C01E012844D953E0DFF80803006850F416
:1025E0008060DFF8001308600020DFF8FC12EDB215
:1025F00001EB850141F8200C43E0DFF8E8020068B8
:1026000050F40070DFF8DC1208600020DFF8DC1204
:10261000EDB201EB850141F80C0C32E0DFF8C402A9
:10262000006850F48060DFF8BC1208600020DFF81A
:10263000B812EDB201EB850141F8280C21E0DFF87A
:10264000A402006850F40060DFF8981208600020CF
:10265000DFF89C12EDB201EB850141F8380C10E077
:10266000DFF88002006850F40050DFF8781208604C
:102670000020DFF88012EDB201EB8501C86100E0B7
:1026800073E072E0DFF87002006850F00060DFF87D
:1026900068120860DFF84802006830F41040DFF884
:1026A000401208600020DFF838120860EDB2280000
:1026B000001F03280BD9001F012819D9801E0328E9
:1026C00027D9001F012835D9C01E41D04CE0DFF8C2
:1026D0001402006850F40050DFF80812086000206F
:1026E000DFF81012EDB201EB850141F8100C3BE070
:1026F000DFF8F001006850F48060DFF8E81108604E
:102700000020DFF8E411EDB201EB850141F8200C67
:102710002AE0DFF8D001006850F48060DFF8C411CF
:1027200008600020DFF8C011EDB201EB850141F82F
:10273000180C19E06B48006850F480606949086023
:1027400000206949EDB201EB850141F8180C0BE05E
:102750006448006850F400706249086000206349D2
:10276000EDB241F82500FFE7FFE731BDF8B5040001
:102770000D0016000027E4B2002C05D1EDB2082DA3
:1027800002DBEDB2132D0CDBE4B2012C05D1EDB26E
:10279000042D02DBEDB2122D03DB87214E4801F040
:1027A000C5FA3200D2B22900C9B22000C0B200F08E
:1027B0006FF85248E4B250F8240000680006F8D5DB
:1027C0004E48E4B250F82400006907004B48E4B2D8
:1027D00050F82400006830F080004849E4B251F815
:1027E00024100860380080B2F2BD2DE9F0470600E1
:1027F0000F009046F6B2002E05D1FFB2082F02DB83
:10280000FFB2132F0CDBF6B2012E05D1FFB2042F5D
:1028100002DBFFB2122F03DBA0212F4801F086FA62
:102820004246D2B23900C9B23000C0B2FFF79EFFB3
:1028300082464246D2B23900C9B23000C0B2FFF778
:1028400095FF81464246D2B23900C9B23000C0B2CB
:10285000FFF78CFF04004846514680B289B2884297
:1028600001D2554600E04D462800210080B289B2D1
:10287000884201D2AA4607E05046210080B289B2C0
:10288000884201D2A246FFE7504680B2BDE8F087F9
:1028900070B504000D00160015F01F0050F0400048
:1028A00017490872B00010F00C0050F050001449A5
:1028B000087004201249487041F2342010494880C1
:1028C00045F278600E4988800D490C48E4B250F812
:1028D000240000F017F870BDE45000003C80044074
:1028E000188004403880044000A004400090044058
:1028F00000B0044000D00440308004403804FF1F82
:102900003816FF1F0A7882604A78C2604A8882615E
:102910008A88C2618A790262CA794262CA6802659B
:102920000A7A02604A7A426070470000F8B50400F3
:102930000D0016001F00EDB2202D02D2FFB2022FB3
:1029400003D34721474801F0F1F94748E4B250F872
:102950002400EDB2F6B256F4807140F82510F0076D
:1029600005D5F6B2032E02D0F6B2132E0DD13F4894
:10297000E4B250F8240040690121A94088433B4952
:10298000E4B251F8241048612AE03848E4B250F823
:10299000240040690121A94008433449E4B251F8B8
:1029A00024104861FFB2012F0DD13048E4B250F835
:1029B000240000680121A94008432C49E4B251F8E1
:1029C000241008600CE02948E4B250F824000068A4
:1029D0000121A94088432549E4B251F82410086038
:1029E000F1BD70B504000D001600EDB2202D02D22D
:1029F000F6B2022E03D36E211A4801F097F9F6B20F
:102A0000012E0DD11948E4B250F8240000680121CC
:102A1000A94008431549E4B251F8241008600CE0BD
:102A20001248E4B250F8240000680121A94088430C
:102A30000E49E4B251F82410086070BD38B50400A6
:102A40000D00EDB2202D03D39421064801F06EF95C
:102A50000648E4B250F824000069E84010F0010094
:102A600032BD0000B05000006004FF1F4C04FF1F87
:102A700070B504000D001600E4B2002C0ED0E4B2D4
:102A8000012C02D0E4B2022C02D1EDB2022D05DB02
:102A90004FF4D771DFF8B00401F048F9E4B2002C2C
:102AA00005D0022C00F0B880C0F08A80DBE0DFF8AF
:102AB0009C04006850F08070DFF890140860EDB25C
:102AC000002D0BD0022D25D016D3042D3ED02FD3B0
:102AD000062D57D048D3072D62D06FE0DFF8700481
:102AE000006850F40060DFF8681408604FF48060FC
:102AF000DFF86014086062E0DFF85404006850F406
:102B00000060DFF84C1408604FF48060DFF8481470
:102B1000086054E0DFF83804006850F40060DFF823
:102B2000301408604FF48060DFF83014086046E02D
:102B3000DFF81C04006850F40060DFF8141408602B
:102B40004FF48060DFF81814086038E0DFF8000404
:102B5000006850F48050DFF8F81308604FF480608C
:102B6000DFF8001408602AE0DFF8E403006850F49E
:102B70008050DFF8DC1308604FF48060DFF8E81362
:102B800008601CE0DFF8C803006850F48050DFF8EC
:102B9000C01308604FF48060DFF8D01308600EE0C7
:102BA000DFF8AC03006850F48050DFF8A41308602D
:102BB0004FF48060DFF8B813086000E0D9E052E01D
:102BC000DFF88803006850F00070DFF880130860B9
:102BD000EDB2002D02D0012D0ED01BE0DFF8700306
:102BE000006850F40070DFF8681308604FF440701C
:102BF000DFF8801308600EE0DFF85403006850F43B
:102C00000070DFF84C1308604FF44070DFF8681371
:102C1000086000E0ADE026E0DFF86003006850F0F7
:102C20008070DFF858130860EDB2002D02D0012D3E
:102C30000CD016E0C648006850F40070C449086023
:102C40004FF44070DFF8381308600BE0C0480068AC
:102C500050F40070BE4908604FF44070C9490860E4
:102C600000E086E0FFE7F6B2002E03D0022E33D05C
:102C700019D349E0C448E4B250F82400C06850F0C9
:102C80004400C149E4B251F82410C860BE48E4B21F
:102C900050F82400C06830F03800BB49E4B251F865
:102CA0002410C86030E0B848E4B250F82400C0688E
:102CB00050F04800B449E4B251F82410C860B2485A
:102CC000E4B250F82400C06830F03400AE49E4B2F9
:102CD00051F82410C86017E0AB48E4B250F8240063
:102CE000C06850F04C00A849E4B251F82410C86004
:102CF000A548E4B250F82400C06830F03000A24982
:102D0000E4B251F82410C86008209F49E4B251F899
:102D1000241008609C48E4B250F82400406D50F044
:102D200004009949E4B251F82410486500209649FE
:102D3000E4B251F8241048669348E4B250F82400F5
:102D4000406D400840009049E4B251F824104865B5
:102D500000208D49E4B251F82410C86400208A494B
:102D6000E4B251F824100865E4B214F13E0000F01A
:102D700042FF70BD2DE9F04D06000F0090464FF464
:102D80008060764908604FF48060754908606F483C
:102D9000006850F080706D49086009207B49086028
:102DA0007B48006850F00400794908607848006862
:102DB00050F00100764908607648006840084000FD
:102DC000744908607448006850F480707249086063
:102DD0007148006850F400706F4908606E480068E0
:102DE00050F400506C4908606B48006850F4805003
:102DF00069490860C120694908606948006850F461
:102E000000706749086003206649086066480068EA
:102E100050F00800644908606348006830F004001E
:102E2000614908606148006850F008005F49086027
:102E30005E48006830F004005C490860F3205C499B
:102E4000086000205B4908603000390000225A4BBE
:102E500000F008FD04000D000020584922002B005E
:102E600000F000FD00F0D0F95549086054480068B2
:102E700054490860002054490860404600F0ACF80E
:102E80000022524B00F0EEF800224C4B00F0EAFC1E
:102E900082468B464A48006800F09EF852465B46E0
:102EA00000F0E0F800F0B0F9494908600020494915
:102EB00008603C48006850F080003A490860BDE86E
:102EC000F08D70B50600300000F086F800223F4B10
:102ED00000F0C8F80022394B00F0C4FC04000D00DB
:102EE0003748006800F078F822002B0000F0BAF8AC
:102EF00000F08AF9364908602A48006850F08000DE
:102F00002849086070BDF8B506000F003000390090
:102F10000022294B00F0A6FC04000D0000202749E8
:102F200022002B0000F09EFC00F06EF9244908609E
:102F300023480068234908601A48006850F0800060
:102F400018490860F1BD0000145100003C800440A5
:102F50003880044004B0044008B004400CB0044081
:102F600010B0044010C0044014C0044018C0044015
:102F70001CC0044020900440249004403080044051
:102F8000289004402C9004404004FF1F0080034020
:102F90005480034080800340648003406880034085
:102FA0008C800340588003401C80034024800340F1
:102FB000608003404C800340006AE84000408F403E
:102FC0004816FF1F08800340208003400000F03FA8
:102FD0002880034004800340010040F10780F4464C
:102FE000404200F003F851F00041604709D0B0FAC8
:102FF00080F18840C91CC1F58461090501EBD0212D
:10300000400570474FF4001C1CEB410F94BF1CEBB4
:10301000430F09E041EA030C50EA4C0C52EA0C0C55
:1030200003D28B4208BF8242704714BF994290423C
:10303000704700004FF4001C1CEB410F94BF1CEBC9
:10304000430F09E041EA030C50EA4C0C52EA0C0C25
:1030500003D2994208BF9042704714BF8B4282420C
:1030600070470000B0B581EA030C0CF0004C40F250
:10307000FF7515EA11541DBF15EA1357AC42AF4254
:1030800039E0E41923EA455343F48013C90241F0BF
:10309000004141EA505EC7021100A7FB020200286E
:1030A0004FF00000EEFB01204FF00001E3FB072191
:1030B00018BF42F00102401800214941E3FB0E0114
:1030C000A4F580640F0302D252004041494154F1FB
:1030D00001046CDD470872F1004250F1000051EB31
:1030E0000451A1F580115CBF41EA0C01B0BD4CEA6E
:1030F00005510020B0BD05EA1357AC4214BFAF42E2
:1031000041E050EA410E1CBF52EA430E02E0614624
:103110000020B0BD24423C441BD15FEA070EF6D02C
:10312000090302BF01460020AEF1140EB1FA81F787
:10313000AEEB070401FA07FE0C37C7F1200100FAD5
:1031400007F7C8404EEA000E23EA455343F48013C4
:10315000A2E733F00043B3FA83F704BFB2FA82FE6A
:1031600077440B3FE41BB7F1200E2FBF02FA0EF39A
:10317000BB40C7F1200E22FA0EFE38BF43EA0E0311
:10318000BA40641C82E750EA410E14BF52EA430E73
:103190006FF000014FF4001717EB430F8ABF194679
:1031A00017EB410FB5E74CEA05510020B0BDD4F153
:1031B0000104B4F120070FDAC4F12007520828BF38
:1031C00042F0010210FA07F501FA07F7E1BF2A43BE
:1031D000E0403843E1400FE0352C98DCC7F1200493
:1031E00052EA400220FA07F218BF42F0010231FA17
:1031F00007F0A1400A43002172F1004250F10000A3
:1032000051EB0C01B0BD0000F446400D40EAC12076
:10321000490006D200F00EF8004248BF6FF00040AF
:10322000604700F007F84FF0004188428CBF084625
:103230004042604740F00040490DA1F58061491CC3
:1032400005D4D1F11F0154BFC840C01770474FF0DB
:103250000000704762B38B0708D0521E11F8013B83
:1032600000F8013B00F024808B07F6D1830740F083
:10327000208000BF103A07D330B4B1E83810103ABC
:10328000A0E83810F9D230BC530724BFB1E80810C9
:10329000A0E8081044BF51F8043B40F8043BD207B3
:1032A00024BF31F8022B20F8022B44BF0B780370A7
:1032B0007047083A07D3B1E80810083A40F8043BD1
:1032C00040F804CBF7D25307E4E7000070B50400E0
:1032D0000D0016003068012802D0022805D00AE04F
:1032E0002000C0B27168884705E0B0680470B0681B
:1032F000401CB060FFE72868401C286070BD2DE9C5
:10330000F04704005FF0000A5046A1465FF0000A53
:1033100089F800A019F10109002A1FD0D1F800A0F6
:103320005546002D05D15FF0300A89F800A0401CF9
:1033300038E0002D36D095FBF3FA564603FB165ABB
:103340005746002F02D5FF43313700E030373500B4
:1033500089F8007019F10109401CEAE7D1F800A0D2
:10336000D446BCF1000F05D15FF0300A89F800A007
:10337000401C17E0BCF1000F14D0BCFBF3FAD6469A
:1033800003FB1ECAD046B8F10A0F02D218F130086A
:1033900001E018F13708F44689F8008019F10109B5
:1033A000401CE7E7BDE8F0872DE9F04104000D007F
:1033B00016001F00A046A84507DA3A003100302069
:1033C000FFF784FF18F10108F5E7BDE8F0812DE96A
:1033D000F04104000D0016001F00A046A84507DAC2
:1033E0003A0031002020FFF771FF18F10108F5E7DE
:1033F000BDE8F0812DE9F24F92B0040015000020E5
:103400000090129883469BF80000019001980028D4
:1034100000F0F5810198252813D001980A2805D0DD
:10342000220069460198FFF751FF09E02200694632
:103430000D20FFF74BFF220069460A20FFF746FFE9
:10344000DAE100208146002004900498002822D16F
:103450001BF1010B9BF8000020280ED0232812D06E
:103460002B2807D02D2802D0302809D00EE059F0A3
:103470000109EAE759F00209E7E759F00409E4E72E
:1034800059F00809E1E759F01009DEE7BBF1010B3B
:1034900001200490D9E7002082460020049004987F
:1034A000002814D11BF1010B9BF80000019001983A
:1034B0003038092806D80A20019900FB0A10B0F11B
:1034C000300AECE7BBF1010B01200490E7E71BF1A8
:1034D000010B9BF800002E2811D1002004900498C5
:1034E00000280ED11BF1010B9BF800003038092891
:1034F00000D8F4E7BBF1010B01200490EFE7BBF12A
:10350000010B1BF1010B9BF800004C2806D068282A
:1035100002D06C2801D002E003E002E001E0BBF140
:10352000010B1BF1010B9BF800000190019858283A
:1035300075D0622800F0D580632800F01D816428D2
:1035400013D0692811D06E2800F04A816F2800F04E
:10355000BD80702800F0D080732800F01781752896
:1035600000F0D58078285AD041E128682D1D0690BA
:103570000A23012206A909A8FFF7C1FE070009A82E
:10358000384406000698002803D52D2003907F1CA0
:103590000FE05FEA897003D52B2003907F1C08E0C1
:1035A0005FEA497003D5202003907F1C01E00020D2
:1035B0000390002005905FEA097011D50398002858
:1035C00004D0220069460398FFF780FE0120059091
:1035D00023006A4651463800FFF7E6FE574612E0E0
:1035E0005FEAC9700FD423006A4651463800FFF7DE
:1035F000EEFE0398002804D0220069460398FFF7E6
:1036000065FE012005900598002807D10398002841
:1036100004D0220069460398FFF758FE98E0286816
:103620002D1D02901023002202A909A8FFF767FEB2
:10363000070009A838440600002005905FEA0970D9
:1036400016D55FEAC9600BD5220069463020FFF726
:103650003DFE220069467820FFF738FE01200590E4
:1036600023006A4651463800FFF79EFE57461BE08E
:103670005FEAC97018D45FEAC96000D5BF1C230097
:103680006A4651463800FFF7A2FE5FEAC9600BD5D3
:10369000220069463020FFF719FE22006946782093
:1036A000FFF714FE012005905FEAC9600DD505986B
:1036B00000280AD1220069463020FFF707FE2200C9
:1036C00069467820FFF702FEBF1C41E028682D1DE7
:1036D00002900823002202A909A8FFF710FE0700A4
:1036E0001FE028682D1D02900223002202A909A8CC
:1036F000FFF705FE070014E028682D1D0290102337
:10370000002202A909A8FFF7FAFD070009E02868CE
:103710002D1D02900A23002202A909A8FFF7EFFD40
:10372000070009A8384406005FEA097007D523009E
:103730006A4651463800FFF737FE574608E05FEA11
:10374000C97005D423006A4651463800FFF73FFE92
:103750003078002806D0220069463078FFF7B6FDA1
:10376000761EF5E75FEAC97005D523006A46514623
:103770003800FFF72CFE3FE028682D1DC0B20790EF
:10378000220069460798FFF7A1FD35E028682D1D46
:103790008046B8F1000F22D0404600F0D3FA07006F
:1037A0005FEAC97005D423006A4651463800FFF726
:1037B0000EFE98F80000002808D02200694698F80C
:1037C0000000FFF783FD18F10108F2E75FEAC97016
:1037D00005D523006A4651463800FFF7F8FD0BE097
:1037E00028682D1D089000980899086004E02200C0
:1037F00069460198FFF76AFD1BF1010B03E600988B
:1038000013B0BDE8F08F0EB47EB504000120009027
:103810000648019007A805002A0021006846FFF726
:10382000E9FD060030007EBC5DF810FBF15500009C
:103830000CB4FEB504000D000027002C0DD00220B2
:103840000090029408A80600320029006846FFF79D
:10385000D1FD07000020029908703800FEBC5DF819
:103860000CFB00002DE9F04140F2FF7581EA030CEA
:103870000CF0004C15EA11541DBF15EA1357AC4269
:10388000AF42E9E0BC41C1F31301C3F31303801A53
:10389000994143F4801304D2641E400049418018CA
:1038A0005941C90241EA5051B1FBF3F603FB16112D
:1038B000A2FB0675D7EBC020A94102D2761E801864
:1038C0005941C90241EA5051B1FBF3FE03FB1E11FD
:1038D000A2FB0E75D7EBC020A94103D2AEF1010EB9
:1038E00080185941890241EA9051760546EA8E2EA8
:1038F000B1FBF3F603FB1611A2FB0675D7EB802094
:10390000A94102D2761E80185941C90241EA50519C
:103910004EEA060EB1FBF3F603FB1611A2FB067589
:10392000D7EBC020A94102D2761E80185941C902A6
:1039300041EA5051B1FBF3F703FB1711A2FB073526
:10394000D3EBC020A94167F100070CBF004247F04C
:10395000010766F3D5274FEA1E31B80814F58064D5
:1039600014DDBD0775F1004250EB0E5051EB0451D0
:1039700011F5801F5CBF41EA0C01BDE8F0814CF0FD
:103980007F6141F0E0410020BDE8F081BD076D0896
:1039900040EA0E5041F48011D4F10104B4F1200644
:1039A0000ADAC4F120060200E04001FA06F3E14021
:1039B0001843B24015430EE0342C14DCC6F1200449
:1039C00045EA40056D0820FA06F2154321FA06F093
:1039D000A1400D43002175F1004250F1000051EB70
:1039E0000C01BDE8F08100205FEA0C01BDE8F08128
:1039F000CFB992185B41B3FA83F704BFB2FA82F6EB
:103A0000BF190B3FB7F120062FBF02FA06F3BB40E8
:103A1000C7F1200622FA06F638BF3343BA401CB17C
:103A2000E419641E2FE77F4231F00041B1FA81F4BE
:103A300004BFB0FA80F6A4190B3CB4F120062FBFE6
:103A400000FA06F1A140C4F1200620FA06F638BFBC
:103A50003143A0403C1B16E7AC421ABF05EA13579E
:103A6000AF4214E050EA41061CBF52EA4306BFE7EA
:103A700050EA4107304661461CBF41EA0551BDE8A6
:103A8000F08152EA430C08BFC143BDE8F081002039
:103A90004FF4001616EB410F98BF16EB430F08BF0B
:103AA00016EB410F24BFC14305E016EB430F0CBFDB
:103AB00061464CEA0551BDE8F0810000F0B44FF0DA
:103AC000004591EA030C44BF6B4000F04BB900BFC6
:103AD000841A71EB030603D2001BB1411219734122
:103AE0004FF4001C1CEB410F34BF7CEB430443E05C
:103AF0000C0DA4EB1356352E50DC45EAC323DB0A2C
:103B000045EAC121C912B6F120050DDD63FA05F6BB
:103B1000EB4086EA0305124218BF45F00105C018C4
:103B200051F100010CD213E062FA06F5F240554063
:103B3000F3415A40B340F3405A408018594107D3EB
:103B400049085FEA30005FEA350528BF45F0010506
:103B500001F58011420875F1004250F1000041EB7F
:103B60000451F0BC4FF4001C1CEB410F38BF7047F0
:103B70000020090D090570471CEB410F10D252EAD5
:103B800043060BD0BCEB410F05D80C0DAB43661EB2
:103B9000342EB5DD02E0AB4380185941F0BC7047CC
:103BA000F0BC70470E49096851F001010C4A1160E0
:103BB0000D49086005210D4A11600A49096851F054
:103BC0000101084A1160074909680906FBD5054942
:103BD000096849084900034A116070470000000065
:103BE0003880044000000440080004400400044001
:103BF00042490860704738B504005C2C02DB40483D
:103C0000FFF701FE202094FBF0F00500002D03D00B
:103C1000022D2BD015D33DE02020012194FBF0F2A2
:103C200000FB124011FA00F0364908602020012103
:103C300094FBF0F200FB124011FA00F032490860E8
:103C400028E02020012194FBF0F200FB124011FA41
:103C500000F02E4908602020012194FBF0F200FBC7
:103C6000124011FA00F02A49086013E020200121D7
:103C700094FBF0F200FB124011FA00F025490860B5
:103C80002020012194FBF0F200FB124011FA00F019
:103C90002149086031BD38B504005C2C02DB1F48A7
:103CA000FFF7B1FD202094FBF0F00500002D03D0BC
:103CB000022D17D00BD31FE02020012194FBF0F23E
:103CC00000FB124011FA00F01549086014E02020B2
:103CD000012194FBF0F200FB124011FA00F01149AF
:103CE000086009E02020012194FBF0F200FB124063
:103CF00011FA00F00C49086031BD000008ED00E049
:103D00007850000080E200E000E100E084E200E0A2
:103D100004E100E088E200E008E100E03C5000003F
:103D200080E100E084E100E088E100E038B50400D3
:103D30000D002A0021000248FFF765FDF9E700BFEA
:103D40002C4F000001000A000023002A01D10020AE
:103D500007E01000421C0078002801D05B1CF8E747
:103D600018007047841A71EB030604D26E40001BE2
:103D7000B141121973414FF4001C1CEB410F34BFC9
:103D80007CEB430684E00C0DA4EB1356362E7DDC51
:103D9000012E43DC45EAC32343EA525312BFD20249
:103DA00092025B08240545EAC12141EA5051D2EB59
:103DB000C020994125D407D1B0FA80F610FA06F157
:103DC00064D00020203608E0B1FA81F6B140C6F197
:103DD000200220FA02F21143B0404FEAF474B4EB2F
:103DE000465434F001064FEA74040AD8D6F500169A
:103DF000760D04F00044F04061FA06F25040F140C4
:103E00004840C00A40EA415021F0004128BF5FEA23
:103E1000500550F1000044EBD12137E045EAC323BF
:103E2000DB0A45EAC121C90AB6F120050EDD42EAE6
:103E30000242120CC5F1200603FA06F6EB4042EAF4
:103E400006056D42984161F100010DE062FA06F548
:103E5000F240554063FA06FC82EA0C02F3405A40F5
:103E60006D42904161EB030111F4801F05D1641E86
:103E7000620502D06D004041494121F480114308A0
:103E800075F1004350F1000041EB0451F0BC704764
:103E90001CEB410F15D223F0004352EA43060BD02E
:103EA0004FEA4C0CBCEB410F04D80C0D661E342EAF
:103EB000B7DDEBE7801A994150EA410608BF0021BF
:103EC000E4E708BF1CEB430F28BF6FF00001DDE7FC
:103ED00080B500F08DFA00F0A7FA00F005FBDFF8DE
:103EE000E803FFF790FCDFF8E4030068DFF8E01375
:103EF0004979491CB0FBF1F00090DFF8D00300686D
:103F0000DFF8CC130979491CB0FBF1F3DFF8BC03EF
:103F10000068DFF8BC13C978491CB0FBF1F2DFF888
:103F2000AC030168DFF8AC03FFF76DFCDFF8A80312
:103F30000078400703D5DFF8A403FFF764FCDFF83F
:103F400098030078800703D5DFF89403FFF75BFC44
:103F5000DFF884030078C00703D5DFF88803FFF794
:103F600052FCDFF884030078000603D5DFF87C03F9
:103F7000FFF749FCDFF870030078400603D5DFF84F
:103F80007003FFF740FCDFF860030078800603D57C
:103F9000DFF86003FFF737FCDFF84C0300784007D9
:103FA00003D5DFF85403FFF72EFCDFF83C0300785D
:103FB000800703D5DFF84403FFF725FCDFF828036B
:103FC0000078C00703D5DFF83803FFF71CFCDFF8E3
:103FD0003403FFF718FCDFF83003DFF830138842B2
:103FE00004D0DFF82C03FFF70EFC03E0DFF8240316
:103FF000FFF709FC00F003F8FDF708FBFEE780B5CA
:10400000DFF814030068000910F0070000280BD047
:10401000022813D00DD3042819D014D306281ED09B
:1040200019D307281FD022E0DFF8F002FFF7EBFBDF
:1040300020E0DFF8EC02FFF7E6FB1BE0DFF8E4022C
:10404000FFF7E1FB16E0B848FFF7DDFB12E0B748E9
:10405000FFF7D9FB0EE0B648FFF7D5FB0AE0B548FD
:10406000FFF7D1FB06E0B448FFF7CDFB02E0B34811
:10407000FFF7C9FBA848006810F00F00022812D013
:10408000042814D0052816D0062818D007281AD0DE
:1040900008281CD009281ED00A2820D00C2822D09D
:1040A0000E2824D027E0A648FFF7ADFB26E0A54860
:1040B000FFF7A9FB22E0A448FFF7A5FB1EE0A348F9
:1040C000FFF7A1FB1AE0A248FFF79DFB16E0A1480D
:1040D000FFF799FB12E0A048FFF795FB0EE09F4821
:1040E000FFF791FB0AE09E48FFF78DFB06E09D4835
:1040F000FFF789FB02E09C48FFF785FB86480068D4
:10410000000B10F00F00002803D0022809D004D3C0
:104110000BE09648FFF777FB0AE09548FFF773FB43
:1041200006E09448FFF76FFB02E09348FFF76BFB54
:1041300000F06AF891480068000E10F00F000728A0
:1041400006D0092808D00B280AD00F280CD00FE081
:104150008B48FFF758FB0EE08A48FFF754FB0AE054
:104160008948FFF750FB06E08748FFF74CFB02E069
:104170008648FFF748FB86480068000203D585485B
:10418000FFF741FB1EE07D480068000F002806D0C5
:10419000072808D009280AD00F280CD00FE07E4845
:1041A000FFF731FB0EE07D48FFF72DFB0AE07C486E
:1041B000FFF729FB06E07A48FFF725FB02E0794884
:1041C000FFF721FB78480068000B10F00F0005286E
:1041D00006D0072808D008280AD009280CD00FE0FC
:1041E0007248FFF710FB0EE07148FFF70CFB0AE086
:1041F0007048FFF708FB06E06F48FFF704FB02E09A
:104200006E48FFF700FB01BDF8B503206C4908704C
:1042100000206C49087000206B49087000206B4931
:10422000087001206A49087080206A49087069484E
:1042300000780006FBD568480078040067480078DD
:104240000500674800780600664800780700FFB25E
:104250000097F6B23300EDB22A00E4B221006248C2
:10426000FFF7D1FA0320564908700020554908701D
:104270000020554908700420544908700120544911
:104280000870802053490870524800780006FBD51A
:1042900051480078040051480078050050480078E3
:1042A0000600504800780700FFB20097F6B23300CE
:1042B000EDB22A00E4B221004C48FFF7A4FAFF2037
:1042C00044490870F1BD0000485200007816FF1FF5
:1042D000B015FF1F744F000000E00740205500009C
:1042E000E85200000C56000001E007403055000085
:1042F00080540000805300009853000004530000D5
:1043000018560000685200000000FF1F0000000067
:104310002456000030560000248004405856000007
:104320006056000068560000705600007856000085
:10433000805600008856000090560000A0510000F2
:1043400040550000505500006055000070550000B9
:104350008055000090550000A0550000B0550000A9
:10436000C0550000D0550000745100009454000066
:10437000A8540000BC540000BC4F00004C80044016
:10438000B0530000C8530000E05300008852000002
:1043900050800440E0550000F85300001054000025
:1043A00028540000A852000000700440D0540000BF
:1043B000E4540000F85400000C55000020530000A5
:1043C00007000240060002400500024004000240CF
:1043D0000F000240000002400B0002400A000240B1
:1043E0000900024008000240C8510000C852000005
:1043F00080B500F009F80A4800884FF6FE710840C1
:104400000749088001BD000072B64CF220500549F2
:1044100008804DF628100349088062B670470000F6
:10442000002005400E2005402DE9F8432448254989
:1044300088420DD000208046B8F5826F08D221480E
:1044400050F828001E4941F8280018F10108F3E748
:104450001B48FFF7CDFB1C4807001C4806001C4802
:104460000400A01B80464046B0F10108002804D09B
:1044700030783870761C7F1CF5E716488146164860
:104480000500B5EB090080464046B0F10108002860
:1044900005D0002089F8000019F10109F4E70F4860
:1044A0000F49104A531A98464346B3F10108002BAE
:1044B00004D00B780370491C401CF5E7BDE8F1837C
:1044C0000000FF1F000000001004FF1F4C0400004C
:1044D0000C1600002016FF1F9C16FF1FD015FF1F93
:1044E000DC4E00002C4F000080B51148006850F4ED
:1044F00078500F490860642000F028F80D490860E2
:104500000C4800684FF47A7148430B4908600A4828
:1045100000680A490968C1F30361491CB0FBF1F066
:10452000074908604FF496410120FDF743FB01BDA8
:10453000388004407816FF1F7416FF1F4480044023
:104540007C16FF1FDFF800F0D115FF1F38B50400FF
:10455000E4B2002C00F00681E4B2200030281ED026
:10456000322823D0602828D064282DD06E2832D05D
:10457000782837D07D283CD0822841D08C2846D05E
:1045800096284BD0A02850D0AA2855D0B4285AD06D
:10459000C8285FD0E12864D0FA2869D06FE01820DD
:1045A0009F49087000209E4948706CE018209C4983
:1045B000087001209A49487065E0182098490870F1
:1045C0001820974948705EE01820954908701A2015
:1045D0009349487057E01820914908701F2090496E
:1045E000487050E013208E49087018208C4948709C
:1045F00049E013208A4908701A208949487042E02E
:104600001320874908701C20854948703BE00E2024
:104610008349087012208249487034E00E20804996
:10462000087015207E4948702DE00E207C490870E6
:1046300018207B49487026E00E20794908701B201D
:10464000774948701FE00E20754908701E20744994
:10465000487018E00C20724908701C20704948709E
:1046600011E00B206E4908701E206D4948700AE069
:104670000A206B4908701F206949487003E06420D4
:10468000FFF764FFCAE0002065498870E4B2332C6C
:1046900003DA00206249C87017E0E4B2652C03DA3F
:1046A00001205F49C87010E0E4B2972C03DA0220C1
:1046B0005B49C87009E0E4B2C92C03DA0320584909
:1046C000C87002E00F205649C8705548C078544958
:1046D0000871E4B21A2C03DA00205149487141E014
:1046E000E4B2332C03DA01204D4948713AE0E4B2D8
:1046F0004C2C03DA02204A49487133E0E4B2652CBD
:1047000003DA0320464948712CE0E4B27E2C03DA38
:1047100004204349487125E0E4B2972C03DA0520D0
:104720003F4948711EE0E4B2B02C03DA06203C4950
:10473000487117E0E4B2C92C03DA07203849487100
:1047400010E0E4B2E22C03DA08203549487109E0B0
:10475000E4B2FB2C03DA09203149487102E00F2052
:104760002F4948712E484078183080B23221484392
:104770002B490978491C89B290FBF1F00500002013
:10478000284908702848006850F080502649086081
:104790002648007850F08000244908709820244969
:1047A000087024480078C006FBD422480078C0F383
:1047B0008100C0B20228F8D11948007810F01F001B
:1047C0001D49087000201D49087015484379144898
:1047D00002791348C17812488078FFF7B3FE104879
:1047E000407810F01F0050F0400014490870114844
:1047F00000788006FBD50F4800784006FBD50C48B2
:10480000007810F03F000A4908700A480078C0F3A9
:104810008100C0B20328F8D12800C0B232BD00BF69
:10482000B015FF1F014006403480044008C0074017
:104830000040064006400640044006400540064051
:1048400010B572B60120FDF78BFA0400DFF8D01323
:104850000120FDF79FFA2100C9B20120FDF78DFA72
:1048600062B610BDDFF8BC03006850F00100DFF84D
:10487000B41308607047000080B572B6DFF8A80373
:104880000068FEF7A9FB5FF06632DFF8A033FEF7A1
:10489000E9FB0022DFF89833FEF7E4FFDFF894230A
:1048A000C2E90001DFF890030068FEF795FB5FF0B6
:1048B0006632DFF87833FEF7D5FB0022DFF870337D
:1048C000FEF7D0FFDFF87423C2E90001DFF86403CC
:1048D000D0E900010022DFF86833FEF793FB08D827
:1048E000002205210120FEF77CF80020DFF8541398
:1048F0000860DFF854030088401CDFF84C13088080
:10490000DFF84403008840F6B831884211D1FCF743
:10491000B7FF0020DFF83013088000200021DFF807
:104920001C23C2E9000100200021DFF80823C2E9AE
:10493000000162B6DFF81403006850F00100DFF8F0
:104940000C13086001BD7047704780B5DFF80003A5
:10495000FEF759FFFAE7002008210800DFF8F412FB
:104960000968C140C9071DD5BA49096801228240BA
:104970001143B84A1160B8490988002903D10121BF
:10498000B64A11700EE0B44909880E290ADB0021ED
:10499000B14A11800021B14A1170B1490978491C0E
:1049A000AF4A117009210800AA490968C140C90726
:1049B0001DD5A8490968012282401143A54A11600A
:1049C000A8490988002903D10121A74A11700EE0E6
:1049D000A44909880E290ADB0021A24A118000217E
:1049E000A14A1170A1490978491CA04A11700A21F5
:1049F000080098490968C140C9071DD5954909684B
:104A0000012282401143934A116099490988002983
:104A100003D10121974A11700EE0954909880E29AA
:104A20000ADB0021924A11800021924A11709249BA
:104A30000978491C904A11700B21080085490968C2
:104A4000C140C9071DD5834909680122824011432D
:104A5000804A116089490988002903D10121884AC7
:104A600011700EE0854909880E290ADB0021834A6E
:104A700011800021824A117082490978491C814ABB
:104A8000117070470020002108007F490968C1406B
:104A9000C90706D57C4909680122824011437A4A38
:104AA00011600A21080078490968C140C90706D584
:104AB00075490968012282401143734A11607047A9
:104AC0007248006850F0010070490860634800783F
:104AD000002804D060480088401C5F4908805E4878
:104AE0000088972805DB00205B49088000205B498F
:104AF00008705D480078002804D05A480088401C9F
:104B00005849088057480088972805DB00205549F8
:104B1000088000205449087056480078002804D0C6
:104B200053480088401C5249088051480088972803
:104B300005DB00204E49088000204E49087050488F
:104B40000078002804D04D480088401C4B4908805C
:104B50004A480088972805DB002048490880002043
:104B6000474908707047704710B5494804680020ED
:104B700047490860012209210020FDF736FE45491A
:104B8000086001220C210020FDF72FFE4249086039
:104B90002948006840490968884203DA3E480068AD
:104BA00025490860204800683A490968884203DAC4
:104BB000384800681C490860FCF714FF10BD80B538
:104BC0003648006850F01000344908600420FFF7B0
:104BD00062F83348006830F0100031490860012065
:104BE0003049087001BD80B52F48FEF70CFE2B48F8
:104BF000006850F00100294908602948006850F019
:104C000001002749086001BD2848006850F0800075
:104C10002649086026480078401C254908707047DE
:104C2000585400001C7103406016FF1F66660A405E
:104C300000FEAF403016FF1F5C16FF1F2816FF1F37
:104C400000000C408804FF1F8016FF1F0C710340FA
:104C500028520000A0C004408216FF1F8C16FF1FC0
:104C60008D16FF1F8416FF1F8E16FF1F8F16FF1F46
:104C70008616FF1F9016FF1F9116FF1F8816FF1F35
:104C80009216FF1F9316FF1FA0A004402C71034033
:104C9000509003405816FF1F5416FF1F24800040F9
:104CA0000C8000409416FF1F6C540000000004406C
:104CB0009516FF1F0000000000000000002F0000FC
:104CC00000000700070000147F147F1400242A7FCF
:104CD0002A1200626408132300364955225000004E
:104CE0000503000000001C224100000041221C00BE
:104CF0000014083E08140008083E0808000000A040
:104D0000600000080808080800006060000000203B
:104D100010080402003E5149453E0000427F400019
:104D2000004261514946002141454B31001814129F
:104D30007F10002745454539003C4A49493000016C
:104D40007109050300364949493600064949291EBB
:104D5000000036360000000056360000000814221D
:104D6000410000141414141400004122140800021D
:104D70000151090600324959513E007C1211127C42
:104D8000007F49494936003E41414122007F41416F
:104D9000221C007F49494941007F09090901003E61
:104DA0004149497A007F0808087F0000417F41009F
:104DB000002040413F01007F08142241007F404015
:104DC0004040007F020C027F007F0408107F003EFD
:104DD0004141413E007F09090906003E4151215EE3
:104DE000007F091929460046494949310001017FE0
:104DF0000101003F4040403F001F2040201F003F76
:104E00004038403F00631408146300070870080727
:104E100000615149454300007F41410000552A553A
:104E20002A55000041417F000004020102040040B5
:104E300040404040000001020400002054545478D7
:104E4000007F4844443800384444442000384444F7
:104E5000487F00385454541800087E090102001895
:104E6000A4A4A47C007F080404780000447D4000D2
:104E7000004080847D00007F102844000000417FB6
:104E80004000007C04180478007C08040478003892
:104E90004444443800FC242424180018242418FC1A
:104EA000007C0804040800485454542000043F4483
:104EB0004020003C4040207C001C2040201C003C46
:104EC0004030403C004428102844001CA0A0A07C96
:104ED000004464544C44141414141414F0B4114ECB
:104EE000366834000F4E366856F47F060D4F3E602C
:104EF0000E0616F0706656EA0076170517F470076E
:104F00003E431F0417F470273E43074F3E600026C0
:104F10003500EDB29D4201D26D1CFAE7014E3460BE
:104F2000F0BC704700F0014044800440B6CFD1D4BB
:104F3000B7A2C9FAD4DA2573CEC4BCFEB5C4B5DABB
:104F40002564D0D0A3A10AB6CFD1D4CCF5BCFEB293
:104F5000BBB3C9C1A2A3ACC7EBBCECB2E2B4EDCE0B
:104F6000F3D4ADD2F2A1A309A1AAA1AA206279200B
:104F70000A0A0000C4DABACBC6B5C2CAA3BA25640D
:104F80004D487A09D7DCCFDFC6B5C2CA20A3BA25FF
:104F9000644D487A0A666C6578C6B5C2CAA3BA255C
:104FA000644D487A2009666C617368C6B5C2CAA3AD
:104FB000BA25644D487A0A0A000000000A5468695C
:104FC000732076657273696F6E206F6620736F66EB
:104FD000747761726520646F65736E2774207265E3
:104FE000636F676E697A652074686520726576699B
:104FF00073696F6E20636F64652E000019E050F8CE
:10500000041BCB0744BFA9F101035918121F002349
:10501000042A41F8043BF9D25FEA827C0B4604D5AE
:105020004FF0000CA1F800C09B1CD10744BF002129
:10503000197050F8042B002AE1D170470A455252EA
:105040002120496E76616C69642049525120766155
:105050006C75652070617373656420746F2064697A
:105060007361626C65206972712066756E63746924
:105070006F6E210A000000000A4552522120496E3D
:1050800076616C6964204952512076616C756520A7
:1050900070617373656420746F20656E61626C6506
:1050A000206972712066756E6374696F6E210A00E3
:1050B000453A5C49415250726F6A5C6C616E647A29
:1050C0006F4B36304F4C45445C7372635C6472695D
:1050D000766572735C6770696F5C6770696F2E6369
:1050E00000000000453A5C49415250726F6A5C6CA6
:1050F000616E647A6F4B36304F4C45445C7372631B
:105100005C647269766572735C6164635C6164633C
:105110002E630000453A5C49415250726F6A5C6CE4
:10512000616E647A6F4B36304F4C45445C737263EA
:105130005C647269766572735C46544D5C46544D8E
:105140002E6300000A2A2A2A2A64656661756C7437
:105150005F69737220656E7465726564206F6E207E
:10516000766563746F722025642A2A2A2A2A0D0A1A
:105170000A0000000A556E7265636F676E697A6592
:1051800064204B696E65746973207061636B61673D
:105190006520636F64652E20202020202000000001
:1051A0000A556E7265636F676E697A6564204B6934
:1051B0006E657469732066616D696C7920646576CB
:1051C0006963652E0A000000466C61736820706197
:1051D00072616D657465722076657273696F6E2099
:1051E00025642E25642E25642E25640A0000000007
:1051F00010B5074979441831064C7C44163404E054
:105200000A68081D114488470146A142F8D110BD23
:105210000800000014000000E5FDFFFF7C00000016
:105220002016FF1F000000000A2A2A2A2AD3B2BC37
:10523000FEC9CFB7C3B4EDCEF32121212A2A2A2AF1
:105240002A0D0A0A000000000A0A0909C0B6D6E6BB
:105250006B696E65746973BACBD0C4B0E5B2E2CA4B
:10526000D4B3CCD0F20A00000AC0B6D6E64B696EC1
:1052700065746973BFAAB7A2B0E5C6F4B6AFB7BD8F
:10528000CABDA3BA00000000455252212120556E2C
:10529000646566696E656420502D666C6173682074
:1052A00073697A650A000000455252212120556E2B
:1052B000646566696E656420466C65784E564D205F
:1052C00073697A650A000000466C61736820766530
:1052D0007273696F6E2049442025642E25642E2543
:1052E000642E25640A000000436F7265204C6F63D2
:1052F0006B7570204576656E742052657365740A0F
:10530000000000004C6F772D766F6C74616765202C
:105310004465746563742052657365740A00000007
:10532000455252212120556E646566696E65642080
:1053300052414D2073697A650A0A000000F00BF8AB
:10534000002801D0FFF754FF0020C046C046FCF7FC
:105350005DF900F002F80120704700F001B800008C
:105360000746384600F002F8FBE7000080B5C0466B
:10537000C046024A11001820ABBEFBE7260002001F
:105380005761746368646F6728434F5029205265E2
:105390007365740A000000004C6F7373206F662001
:1053A000436C6F636B2052657365740A00000000E4
:1053B000313238206B4279746573206F6620502D2E
:1053C000666C617368090000323536206B4279746F
:1053D0006573206F6620502D666C6173680900004C
:1053E000353132206B4279746573206F6620502D01
:1053F000666C61736809000030206B4279746573D4
:10540000206F6620466C65784E564D0A00000000FD
:10541000313238206B4279746573206F6620466C98
:1054200065784E564D0A0000323536206B4279744D
:105430006573206F6620466C65784E564D0A0000F5
:1054400080B503480178C9B20248FEF7DCF901BD16
:1054500004ED00E0445100000AC4E3B7A2CBCDB58F
:10546000C4CAFDBEDDCEAAA3BA000000444D415F10
:105470004348305F48616E646C65720A000000004A
:1054800045787465726E616C2050696E2052657348
:1054900065740A0053696C69636F6E2072657620CB
:1054A000312E302020200A0053696C69636F6E2012
:1054B00072657620312E3120200A000053696C6914
:1054C000636F6E2072657620312E3220200A000034
:1054D0003332206B4279746573206F662052414DE0
:1054E0000A0A00003634206B4279746573206F66B7
:1054F0002052414D0A0A00003936206B427974650A
:1055000073206F662052414D0A0A00003132382064
:105510006B4279746573206F662052414D0A0A0010
:10552000536F6674776172652052657365740A0003
:10553000506F7765722D6F6E2052657365740A0027
:10554000333270696E2020202020202000000000CF
:10555000343870696E2020202020202000000000B8
:10556000363470696E2020202020202000000000AA
:10557000383070696E20202020202020000000009C
:10558000383170696E20202020202020000000008B
:1055900031303070696E2020202020200000000073
:1055A00031303470696E202020202020000000005F
:1055B00031343470696E202020202020000000004B
:1055C00031393670696E2020202020200000000034
:1055D00032353670696E2020202020200000000027
:1055E000502D666C617368206F6E6C790A00000044
:1055F00010B504002100C9B20120FCF7BEFB10BDAC
:10560000256425642E256425640000004A54414722
:105610002052657365740A004C4C575520526573CF
:1056200065740A00666C617368C6F4B6AF0A000060
:105630005352414DC6F4B6AF0A000000C046C04602
:10564000C046C046FFF77AFE506F773A0000000070
:1056500030302E30300000000A4B31302D00000079
:105660000A4B32302D0000000A4B33302D00000071
:105670000A4B34302D0000000A4B36302D0000005C
:105680000A4B37302D0000000A4B35302D0000004A
:085690000A4B35332D00000028
:040000050000563D64
:00000001FF
