:10000000F8FF002011040000A9550000B34A0000C9
:10001000A9550000A9550000A9550000A9550000E8
:10002000A9550000A9550000A9550000A9550000D8
:10003000A9550000A9550000B14A0000AF4A0000D0
:100040004F4D0000A9550000A9550000A95500001A
:10005000274D0000A9550000A9550000A955000032
:10006000A9550000A9550000A9550000A955000098
:10007000A9550000A9550000A9550000A955000088
:10008000A9550000A9550000A9550000A955000078
:10009000A9550000A9550000A9550000A955000068
:1000A000A9550000A9550000A9550000A955000058
:1000B000A9550000A9550000A9550000A955000048
:1000C000A9550000A9550000A9550000A955000038
:1000D000A9550000A9550000A9550000A955000028
:1000E000A9550000A9550000A9550000A955000018
:1000F000A9550000A9550000A9550000E9490000D4
:10010000A9550000A9550000A9550000A9550000F7
:10011000A9550000A9550000A9550000A9550000E7
:10012000A9550000A9550000A9550000A9550000D7
:10013000A9550000A9550000CF4C0000D14C00008B
:10014000A9550000A9550000A9550000A9550000B7
:10015000214A00000D4A0000294C0000A95500006A
:10016000A9550000A9550000A9550000A955000097
:10017000A9550000A9550000A9550000A955000087
:10018000A9550000A9550000A9550000A955000077
:10019000A9550000A9550000A9550000A955000067
:1001A000ED4B0000714D0000BF4A0000A955000052
:1001B000A9550000A9550000A9550000A955000047
:1001C000A9550000A9550000A9550000A955000037
:1001D000A9550000A9550000A9550000A955000027
:1001E000A9550000A9550000A9550000A955000017
:10040000FFFFFFFFFFFFFFFFFFFFFFFFFEFFFFFFFD
:1004100062B64FF000004FF000014FF000024FF0C5
:1004200000034FF000044FF000054FF000064FF0BE
:1004300000074FF000084FF000094FF0000A4FF09E
:10044000000B4FF0000C03F017FEFEE70000000069
:1004500000002440000000000000434000000000B5
:100460000000F03F0000000000C058400000000005
:100470000080494066666666666606409A99999964
:1004800099F9504000B0034000B00B400080034099
:100490000090034000800B4000F00F4040F00F4000
:1004A00080F00F40C0F00F4000F10F40009004407A
:1004B00000A0044000B0044000C0044000D004404C
:1004C0000102030A0405060B0708090C0E000F0DB4
:1004D00003000000010000000A0000000C00000002
:1004E000409C0000F4010000F8010000FC01000045
:1004F0000102000005020000090200000D020000D8
:1005000012020000160200001A0200001E02000083
:1005100023020000270200002B0200002F0200002F
:1005200033020000380200003C02000040020000DC
:1005300044020000480200004C020000500200008B
:1005400055020000590200005D0200006102000037
:1005500065020000690200006D02000071020000E7
:1005600075020000790200007D0200008102000097
:1005700085020000890200008D0200009002000048
:1005800094020000980200009C020000A0020000FB
:10059000A3020000A7020000AB020000AF020000AF
:1005A000B2020000B6020000BA020000BD02000064
:1005B000C1020000C4020000C8020000CB0200001B
:1005C000CF020000D2020000D6020000D9020000D3
:1005D000DC020000E0020000E3020000E60200008E
:1005E000E9020000ED020000F0020000F30200004A
:1005F000F6020000F9020000FC020000FF02000009
:100600000203000005030000080300000B030000C4
:100610000E03000010030000130300001603000087
:10062000180300001B0300001E030000200300004D
:100630002303000025030000280300002A03000014
:100640002C0300002F0300003103000033030000DF
:1006500036030000380300003A0300003C030000AA
:100660003E0300004003000042030000440300007A
:100670004603000047030000490300004B0300004D
:100680004D0300004E030000500300005203000021
:1006900053030000550300005603000057030000F9
:1006A000590300005A0300005B0300005C030000D4
:1006B0005E0300005F0300006003000061030000B0
:1006C0006203000063030000630300006403000092
:1006D0006503000066030000660300006703000076
:1006E000680300006803000069030000690300005C
:1006F0006A0300006A0300006A0300006A03000046
:100700006B0300006B0300006B0300006B03000031
:100710006B0300006B0300006B0300006B03000021
:100720006B0300006A0300006A0300006A03000014
:10073000690300006903000068030000680300000B
:100740006703000067030000660300006503000004
:1007500065030000640300006303000062030000FF
:1007600061030000600300005F0300005E030000FF
:100770005D0300005C0300005B0300005903000000
:100780005803000057030000550300005403000005
:1007900052030000510300004F0300004E0300000D
:1007A0004C0300004A030000480300004703000018
:1007B0004503000043030000410300003F03000025
:1007C0003D0300003B030000390300003703000035
:1007D0003403000032030000300300002E03000049
:1007E0002B0300002903000026030000240300005F
:1007F000210300001F0300001C0300001A03000077
:100800001703000014030000120300000F03000090
:100810000C030000090300000603000003030000AE
:1008200001030000FE020000FB020000F7020000CE
:10083000F4020000F1020000EE020000EB020000F2
:10084000E8020000E5020000E1020000DE02000014
:10085000DB020000D7020000D4020000D00200003A
:10086000CD020000C9020000C6020000C202000062
:10087000BF020000BB020000B8020000B40200008A
:10088000B0020000AD020000A9020000A5020000B5
:10089000A20200009E0200009A02000096020000E0
:1008A000920200008E0200008B020000870200000E
:1008B000830200007F0200007B020000770200003C
:1008C000730200006F0200006B020000670200006C
:1008D000630200005F0200005B020000570200009C
:1008E000520200004E0200004A02000046020000D0
:1008F000420200003E0200003A0200003502000001
:10090000310200002D020000290200002502000033
:10091000200200001C020000180200001402000067
:10092000100200000B02000007020000030200009A
:10093000FF010000FA010000F6010000F2010000D2
:10094000EE010000E9010000E5010000E101000006
:10095000DD010000D8010000D4010000D00100003A
:10096000CC010000C8010000C3010000BF0100006D
:10097000BB010000B7010000B3010000AE010000A0
:10098000AA010000A6010000A20100009E010000D3
:100990009A01000096010000910100008D01000005
:1009A0008901000085010000810100007D01000037
:1009B0007901000075010000710100006D01000067
:1009C0006901000065010000610100005D01000097
:1009D0005A01000056010000520100004E010000C3
:1009E0004A01000046010000430100003F010000F1
:1009F0003B0100003801000034010000300100001C
:100A00002D01000029010000260100002201000044
:100A10001F0100001B01000018010000140100006C
:100A2000110100000D0100000A0100000701000093
:100A30000301000000010000FD000000FA000000BA
:100A4000F7000000F4000000F1000000ED000000DD
:100A5000EA000000E7000000E5000000E2000000FE
:100A6000DF000000DC000000D9000000D60000001C
:100A7000D4000000D1000000CE000000CC00000037
:100A8000C9000000C7000000C4000000C200000050
:100A9000BF000000BD000000BA000000B800000068
:100AA000B6000000B4000000B1000000AF0000007C
:100AB000AD000000AB000000A9000000A70000008E
:100AC000A5000000A3000000A1000000A00000009D
:100AD0009E0000009C0000009A00000099000000A9
:100AE00097000000960000009400000093000000B2
:100AF00091000000900000008F0000008D000000B9
:100B00008C0000008B0000008A00000089000000BB
:100B100088000000870000008600000085000000BB
:100B200084000000830000008300000082000000B9
:100B300081000000810000008000000080000000B3
:100B40007F0000007F0000007E0000007E000000AB
:100B50007E0000007D0000007D0000007D000000A0
:100B60007D0000007D0000007D0000007D00000091
:100B70007D0000007D0000007E0000007E0000007F
:100B80007E0000007E0000007F0000007F0000006B
:100B90008000000080000000810000008200000052
:100BA0008200000083000000840000008500000037
:100BB000850000008600000087000000880000001B
:100BC000890000008A0000008C0000008D000000F9
:100BD0008E0000008F0000009100000092000000D5
:100BE00093000000950000009600000098000000AF
:100BF0009A0000009B0000009D0000009F00000084
:100C0000A1000000A2000000A4000000A600000057
:100C1000A8000000AA000000AC000000AE00000028
:100C2000B0000000B2000000B5000000B7000000F6
:100C3000B9000000BC000000BE000000C0000000C1
:100C4000C3000000C5000000C8000000CA0000008A
:100C5000CD000000D0000000D2000000D500000050
:100C6000D8000000DA000000DD000000E000000015
:100C7000E3000000E6000000E9000000EC000000D6
:100C8000EF000000F2000000F5000000F800000096
:100C9000FB000000FF000000020100000501000051
:100CA000080100000C0100000F010000120100000B
:100CB00016010000190100001D01000020010000C4
:100CC00024010000270100002B0100002E0100007C
:100CD0003201000036010000390100003D01000032
:100CE0004101000045010000480100004C010000E6
:100CF0005001000054010000580100005B01000099
:100D00005F01000063010000670100006B0100004B
:100D10006F01000073010000770100007B010000FB
:100D20007F01000083010000870100008B010000AB
:100D30008F01000093010000980100009C01000059
:100D4000A0010000A4010000A8010000AC01000007
:100D5000B0010000B5010000B9010000BD010000B4
:100D6000C1010000C5010000CA010000CE01000061
:100D7000D2010000D6010000DB010000DF0100000D
:100D8000E3010000E7010000EC010000F0010000B9
:100D9000F4010000FB010000020200000902000053
:100DA00010020000170200001E02000025020000D1
:100DB0002C020000330200003A0200004102000051
:100DC000480200004F020000560200005D020000D1
:100DD000630200006A020000710200007802000055
:100DE0007E020000850200008B02000092020000DB
:100DF000980200009E020000A5020000AB02000065
:100E0000B1020000B7020000BD020000C3020000F2
:100E1000C9020000CF020000D4020000DA02000084
:100E2000E0020000E5020000EA020000F00200001B
:100E3000F5020000FA020000FF02000004030000B7
:100E4000090300000E030000120300001703000056
:100E50001B0300001F030000240300002803000000
:100E60002C030000300300003303000037030000B0
:100E70003B0300003E030000410300004403000068
:100E8000470300004A0300004D0300005003000028
:100E90005303000055030000570300005A030000ED
:100EA0005C0300005E0300005F03000061030000BC
:100EB0006303000064030000650300006603000094
:100EC0006703000068030000690300006A03000074
:100ED0006A0300006B0300006B0300006B0300005B
:100EE0006B0300006B0300006A0300006A0300004C
:100EF0006903000069030000680300006703000045
:100F00006603000065030000630300006203000045
:100F1000600300005E0300005D0300005B0300004F
:100F20005803000056030000540300005103000062
:100F30004F0300004C03000049030000460300007B
:100F400043030000400300003C030000390300009D
:100F500035030000310300002E0300002A030000C7
:100F600026030000210300001D03000019030000F8
:100F700014030000100300000B0300000603000030
:100F800002030000FD020000F7020000F202000070
:100F9000ED020000E8020000E2020000DD020000B5
:100FA000D7020000D2020000CC020000C6020000FE
:100FB000C0020000BA020000B4020000AE0200004D
:100FC000A8020000A20200009B020000950200009F
:100FD0008E02000088020000810200007B020000F7
:100FE000740200006E020000670200006002000050
:100FF00059020000520200004C02000045020000AD
:101000003E0200003702000030020000290200000A
:10101000220200001B020000140200000D0200006A
:1010200006020000FF010000F8010000F0010000CE
:10103000E9010000E2010000DB010000D401000032
:10104000CD010000C6010000BF010000B801000092
:10105000B1010000AA010000A30100009C010000F2
:10106000960100008F01000088010000810100004E
:101070007A010000740100006D01000067010000AA
:10108000600100005A010000530100004D01000002
:1010900046010000400100003A0100003401000058
:1010A0002E01000028010000220100001C010000A8
:1010B00016010000110100000B01000006010000F4
:1010C00000010000FB000000F6000000F10000003D
:1010D000EB000000E6000000E2000000DD00000080
:1010E000D8000000D4000000CF000000CB000000BA
:1010F000C7000000C2000000BE000000BA000000EF
:10110000B7000000B3000000AF000000AC0000001A
:10111000A8000000A5000000A20000009F00000041
:101120009C0000009900000097000000940000005F
:1011300092000000900000008D0000008B00000075
:101140008A00000088000000860000008500000082
:101150008300000082000000810000008000000089
:101160007F0000007F0000007E0000007E00000085
:101170007D0000007D0000007D0000007D0000007B
:101180007D0000007E0000007E0000007F00000067
:101190008000000081000000820000008300000049
:1011A0008400000085000000870000008900000026
:1011B0008A0000008C0000008E00000091000000FA
:1011C0009300000095000000980000009B000000C4
:1011D0009E000000A1000000A4000000A700000085
:1011E000AA000000AD000000B1000000B500000042
:1011F000B8000000BC000000C0000000C4000000F7
:10120000C9000000CD000000D1000000D6000000A1
:10121000DA000000DF000000E4000000E900000048
:10122000EE000000F3000000F8000000FE000000E7
:1012300003010000080100000E010000140100007D
:10124000190100001F010000250100002B01000012
:1012500031010000370100003D01000043010000A2
:101260004A01000050010000560100005D0100002D
:10127000630100006A0100007001000077010000B6
:101280007E010000850100008B010000920100003A
:1012900099010000A0010000A7010000AE010000BC
:1012A000B5010000BC010000C3010000CA0100003C
:1012B000D1010000D8010000DF010000E6010000BC
:1012C000ED010000F4010000000200000C0200002B
:1012D00017020000230200002F0200003B02000062
:1012E00046020000520200005D0200006802000099
:1012F000740200007F0200008A02000094020000D5
:101300009F020000A9020000B4020000BE0200001B
:10131000C8020000D1020000DB020000E40200006D
:10132000ED020000F6020000FE02000006030000CD
:101330000E030000160300001D030000240300003C
:101340002B03000032030000380300003E030000BE
:1013500043030000480300004D0300005103000058
:1013600056030000590300005D0300006003000005
:1013700063030000650300006703000068030000CA
:101380006A0300006A0300006B0300006B030000A7
:101390006B0300006A03000069030000680300009B
:1013A0006603000064030000610300005E030000A8
:1013B0005B03000058030000540300004F030000CB
:1013C0004B03000046030000400300003B03000005
:1013D000350300002E030000280300002103000055
:1013E0001A030000120300000A03000002030000B9
:1013F000FA020000F1020000E9020000DF02000032
:10140000D6020000CD020000C3020000B9020000B5
:10141000AF020000A40200009A0200008F02000048
:1014200084020000790200006E02000063020000E6
:10143000570200004C02000040020000350200008C
:10144000290200001D020000120200000602000036
:10145000FA010000EE010000E2010000D6010000E8
:10146000CB010000BF010000B3010000A801000093
:101470009C01000091010000850100007A0100003C
:101480006F01000064010000590100004E010000DE
:1014900044010000390100002F0100002501000077
:1014A0001B0100001201000009010000FF00000004
:1014B000F7000000EE000000E6000000DE00000083
:1014C000D6000000CE000000C7000000C0000000F1
:1014D000BA000000B3000000AD000000A80000004A
:1014E000A20000009D000000990000009400000090
:1014F000900000008D0000008A00000087000000BE
:101500008400000082000000800000007F000000D6
:101510007E0000007D0000007D0000007D000000D6
:101520007E0000007E0000008000000081000000BE
:101530008300000085000000880000008B00000090
:101540008F00000092000000970000009B00000048
:10155000A0000000A5000000AA000000B0000000EC
:10156000B6000000BD000000C4000000CB00000079
:10157000D2000000DA000000E2000000EA000000F3
:10158000F2000000FB000000040100000D0100005B
:1015900017010000200100002A01000034010000B2
:1015A0003F01000049010000540100005E010000FD
:1015B0006901000074010000800100008B0100003F
:1015C00096010000A2010000AD010000B901000079
:1015D000C5010000D1010000DC010000E8010000AD
:1015E000010000000B1F00000009000000A00640E1
:1015F00000B0064000C0064000D0064000A00E40EB
:1016000000B00E4080B572B65FF4E131002000F00A
:101610007DFB00F09BFC00F048FF00230122052128
:10162000012001F025F80921002001F0C3F80C2168
:10163000002001F0BFF8DFF8040600684FF496714F
:1016400048434FF47A71B0FBF1F1002001F0A2FAA7
:1016500000220021012001F0D5FA4FF4FA72002097
:10166000DFF8DC1501F050FC62B600F074F800F011
:1016700023FDDFF8D00500680128F8D1DFF8C805A0
:10168000006801F073FD5FF06632DFF8C03501F0ED
:1016900083FD0022DFF8B83501F050FEDFF8B425F5
:1016A000C2E90001DFF8AC05D0E900010022DFF853
:1016B000A83501F071FD0022DFF8A03501F06AFFC6
:1016C000DFF89C25DFF89C3501F038FEDFF8842533
:1016D000C2E90001DFF89005006801F047FD5FF006
:1016E0006632DFF8683501F057FD0022DFF860351B
:1016F00001F024FEDFF87425C2E90001DFF86C0573
:10170000D0E900015FF06632DFF8643501F042FF96
:101710000022DFF8603501F03FFDDFF85C25DFF8DF
:101720005C3501F00BFEDFF84425C2E90001DFF86B
:1017300050050068012801D100F09AF90020DFF877
:10174000281508600020DFF8001508600020DFF889
:10175000F41408608BE780B5002000F078FE32209A
:1017600000F0C4FD93A20021002000F03CFFDFF850
:101770001405D0E900230021142000F023F98EA2E3
:101780000021412000F02FFFDFF8FC04D0E9002306
:101790000021552000F016F988A20121002000F058
:1017A00022FFDFF8E804D0E900230121142000F033
:1017B00009F983A20221002000F015FFDFF8D00410
:1017C000D0E900230221142000F0FCF8DFF8C42443
:1017D0000221412000F007FFDFF8BC04006801F09F
:1017E000C5FC02000B0002215A2000F0EBF89EA27B
:1017F0000321002000F0F7FEDFF8A004D0E9002369
:101800000321142000F0DEF898A20421002000F04B
:10181000EAFEDFF88C04D0E900230421142000F054
:10182000D1F8DFF880240621002000F0DCFEDFF88C
:101830007804006801F09AFC02000B0006211C20CD
:1018400000F0C0F801BD80B5DFF84404D0E9002302
:101850000221142000F0B6F8DFF84004D0E900239C
:101860000321142000F0AEF8DFF83404D0E900239F
:101870000421142000F0A6F8DFF81404D0E90001D8
:101880000022DFF8283401F0F9FE1CD8DFF800044C
:10189000D0E900010122DFF8183401F007FF12D26D
:1018A0000220DFF810140860DFF8E403D0E900013B
:1018B0000022DFF8043401F06FFC01F00FFFDFF8C5
:1018C000FC1308604CE0DFF8C803D0E900010022F7
:1018D000DFF8EC3301F0D2FE1CD8DFF8B403D0E916
:1018E00000010022DFF8DC3301F0E0FE12D201201B
:1018F000DFF8C0130860DFF89803D0E90001002288
:10190000DFF8C43301F048FC01F0E8FEDFF8AC1367
:10191000086025E0DFF87803D0E900010122DFF854
:10192000AC3301F0ABFE1BD8DFF86403D0E9000153
:101930000122DFF89C3301F0B9FE11D20320DFF859
:1019400074130860DFF84803D0E900010022DFF8D3
:10195000843301F021FC01F0C1FEDFF86013086060
:10196000DFF85803006801F001FC01F096FB01BDAF
:1019700080B5C948006801F0F9FB02000B000221A4
:101980005A2000F01FF8B948D0E9002300211420A4
:1019900000F018F8AF48D0E900230021552000F0EE
:1019A00011F8CD48D0E9002306211C2000F00AF8E8
:1019B00001BD000055303A0049303A0055323A0036
:1019C00066303A002DE9F14F84B08B4614001D00BB
:1019D00002A8C249062201F0A7FE00265FF0000817
:1019E0005FF000095FF0000A00270022B84B2000DA
:1019F000290001F0D1FB01F071FE07004FF47A706D
:101A000097FBF0F00600642097FBF0F00A2101FB41
:101A1000160080460A2097FBF0F0642101FB1600B7
:101A20000A2101FB180081464FF47A7000FB167002
:101A3000642101FB18000A2101FB19008246CDF840
:101A400004A0CDF8009043463200A54902A802F058
:101A500059F902AA58460100C9B20498C0B200F070
:101A6000C2FD05B0BDE8F08F4B703A004B693A00FB
:101A700038B59C48D0E900019A4AC2E90201002029
:101A800099497A4AD2E9002302F056F9954AC2E907
:101A900000019448D0E90001924AD2E9022302F001
:101AA0004BF97E4AD2E9002301F076FB0022884BF5
:101AB00001F044FC04000D008A48D0E90023784876
:101AC000D0E9000101F068FB22002B0001F062FD6B
:101AD000814AD2E9002301F05DFD7F4AC2E900019D
:101AE0007D48D0E900010022804B01F0C7FD04D8F9
:101AF00000207E49784AC2E900017748D0E9000118
:101B000001227B4B01F0D2FD04D200207849724AB9
:101B1000C2E9000131BD80B576480068012840F077
:101B20008A806448006801282AD17348006840F21E
:101B30002B21884205DB00206F49086001204149C4
:101B40000860594800686D496B4A126851F82210C4
:101B500048430A2190FBF1F0694908606848006831
:101B6000B0F57A7F03DB40F2E730654908606448EE
:101B7000006801F070FA60480068401C5E49086027
:101B80004C480068022829D15B480068B0F5A67F60
:101B900005DD00205849086001202A4908604248B4
:101BA00000685849544A126851F8221048430A21E3
:101BB00090FBF1F05249086051480068B0F57A7F17
:101BC00003DB40F2E7304E4908604D48006801F001
:101BD00042FA49480068401C474908603548006897
:101BE000032828D144480068C72805DB0020424963
:101BF00008600120134908602B48006842493E4AAA
:101C0000126851F8221048430A2190FBF1F03C4938
:101C100008603B480068B0F57A7F03DB40F2E730AC
:101C2000374908603648006801F015FA3248006804
:101C3000401C3149086001BD000000007416FF1F00
:101C40000088E3406816FF1F6016FF1F66660A40A3
:101C500000FEAF402016FF1F00000840000004C037
:101C6000AE47E17A14AEC73F5C16FF1F1816FF1F80
:101C70006666FABF000049408FC2F5285C8FF63FC8
:101C8000A415FF1F3004FF1F3804FF1F4004FF1F6F
:101C90002804FF1FB05700009804FF1F1804FF1FFF
:101CA0002004FF1FB8570000A004FF1F00004140A0
:101CB00000004E409404FF1F00D08440A404FF1F86
:101CC00000003440000042400058914000004D4068
:101CD0000000594000E078401004FF1FC05700008A
:101CE000685700002816FF1F00804B400000284066
:101CF000000020406416FF1F5016FF1FA804FF1F9E
:101D00009C04FF1F540DFF1F8812FF1FF0B4C0B2C8
:101D1000002808D0022824D014D304283FD02FD381
:101D200005284BD059E04FF44076774F3E604FF492
:101D30004076764F3E60764E366856F48066744F35
:101D40003E604AE04FF44076724F3E604FF440767A
:101D5000714F3E606E4E366856F400666C4F3E60C2
:101D60003BE04FF440766D4F3E604FF440766C4F51
:101D70003E60674E366856F48056654F3E602CE0F4
:101D80004FF44076674F3E604FF44076664F3E60BA
:101D90005F4E366856F400565D4F3E601DE04FF4CE
:101DA0004076624F3E604FF44076614F3E60614E38
:101DB000366856F480665F4F3E600EE04FF4407622
:101DC0005D4F3E604FF440765C4F3E60594E366842
:101DD00056F40066574F3E60FFE7594EC0B256F8C2
:101DE0002060F67816F0F306554FC0B257F8207011
:101DF000FE700026524FC0B257F82070BE70C0B2BD
:101E0000002801D1012600E00026C0B2012801D13E
:101E1000012700E00027F6B2FFB23E43002E06D0B5
:101E2000484E36684FF47A777E43350005E0464EDB
:101E300036684FF47A777E4335000E01B5FBF6F62F
:101E400032003F4EC0B256F82060367816F0E006F9
:101E50003400C2F304262643394FC0B257F820702D
:101E60003E70374EC0B256F8206072706E010F019E
:101E7000B6FBF7F692B2B6EB42163300304EC0B264
:101E800056F82060B67A16F0E006340013F01F060C
:101E900026432B4FC0B257F82070BE72284EC0B2F6
:101EA00056F82060F67856F00C06254FC0B257F869
:101EB0002070FE70F0BC70472149C0B251F820106C
:101EC00009798906F8D51E49C0B251F82000C079B9
:101ED00070471B4AC0B252F8202012791206F8D57A
:101EE000174AC0B252F82020D171704738B50400AB
:101EF0000D002878002806D029782000C0B2FFF70E
:101F0000E8FF6D1CF5E731BD3C900440389004407B
:101F1000348004400CB0044010B004400CC00440B5
:101F200008C0044040B0044044B0044064D00440C1
:101F300060D004402880044024D0044020D00440D5
:101F4000B015FF1F6C16FF1F7416FF1F80B501230D
:101F500000220021042000F08BFB0123002201213C
:101F6000042000F085FB012300220221042000F060
:101F70007FFB012300220321042000F079FB0023D2
:101F800001220421042000F073FB0023012205211B
:101F9000042000F06DFB002301220621042000F044
:101FA00067FB002301220721042000F061FB0020D1
:101FB000DFF8C81208700020DFF8C4120870002093
:101FC000DFF8C01208700020DFF8BC1208600020A3
:101FD000DFF8B81208700020DFF8B412088001BDE5
:101FE00038B58020DFF8AC12087000200400E4B29D
:101FF000042C47DAF020DFF8A0120870DFF898020E
:102000000078DFF890120978401ADFF88C12087017
:10201000DFF880020078C0B24008DFF8781208705C
:10202000DFF878020078C0B210F00F000F2827DA2E
:102030000120DFF86C12087000200500EDB2042DBD
:102040001EDADFF858020078C0B2DFF854120978BF
:10205000084010F00F0F0AD1DFF84802E4B2A100E7
:1020600051FA85F1405CDFF81C12087022E0DFF8BD
:10207000300200784000DFF8281208706D1CDDE7A0
:10208000641CB4E70021042000F07AFB0028F9D09A
:102090000121042000F074FB0028F3D00221042069
:1020A00000F06EFB0028EDD00321042000F068FB57
:1020B0000028E7D031BD000010B5DFF8DC01007862
:1020C0000020DFF8D4110870DFF8D001007810F09C
:1020D0000F000400DFF8A801007800280ED1E4B258
:1020E00014F00F000F2809DA0120DFF894110870AE
:1020F0000F2001F0E1FEFFF773FFBDE0DFF8800184
:102100000078012840F0B780E4B214F00F000F28E7
:1021100040F0B1800020DFF8681108700120DFF87E
:102120005C110870DFF85C010078012819D00228E2
:102130002DD0032857D004281ED0052832D00628D9
:1021400057D0072839D0092859D00A286DD00B2834
:102150006FD00C2800F080800E2839D00F2859D07D
:1021600083E05148D0E900235048514901F012FA68
:102170004D4AC2E9000178E04B48D0E900234B48C2
:102180004C4901F007FA484AC2E900016DE04648AF
:10219000D0E900230020484901F0FCF9424AC2E995
:1021A000000162E04048D0E900230020434901F0EB
:1021B000F1F93D4AC2E9000157E04148D0E9002366
:1021C0000020404901F0E6F93D4AC2E900014CE037
:1021D0003B48D0E9002300203B4901F0DBF9384AB5
:1021E000C2E9000141E039480068401C37490860F5
:1021F0003BE036480068401E3449086035E034480A
:10220000D0E9002300202F4901F0C4F9304AC2E987
:1022100000012AE02E48D0E9002300202A4901F0DD
:10222000B9F92B4AC2E900011FE0012029490860E1
:102230001BE0002028491C4AC2E900010020274970
:102240001F4AC2E9000100201E49214AC2E90001DB
:1022500001202349086008E000202249086000208E
:102260001549214AC2E90001FFE70020054908702D
:10227000FFF7E9FA00E000BF10BD00009016FF1F55
:102280008E16FF1F8F16FF1F4C16FF1F9116FF1F84
:102290008216FF1F9216FF1F00F10F4010F10F4032
:1022A0009316FF1F8404FF1F2804FF1F9A99999912
:1022B0009999C93F9999C9BF00002440000024C0E2
:1022C0001804FF1F0000F03F0000F0BFA004FF1F34
:1022D0002004FF1F6416FF1F000049400000434018
:1022E0009804FF1FA415FF1F1004FF1F10B480B235
:1022F000002801D1012318000C2310FB03F0002358
:1023000019000B0004009BB2A4B2A3420AD200231E
:102310001A0092B240F237539A4201DA521CF8E79F
:10232000491CEEE710BC70470821DFF8382312681B
:1023300052F00402DFF82C331A60DFF82823126809
:1023400032F00202DFF81C331A6000BF0A00511E8F
:10235000D2B2002A25D0020608D5DFF80823126879
:1023600052F00802DFF8FC321A6007E0DFF8F422CE
:10237000126832F00802DFF8EC321A60DFF8E4226B
:10238000126852F00202DFF8DC321A6000BFDFF898
:10239000D422126832F00202DFF8C8321A6040001C
:1023A000D4E770470821DFF8BC22126832F004023B
:1023B000DFF8B0321A60DFF8AC22126832F00202A5
:1023C000DFF8A0321A600A00511ED2B2002A25D0CE
:1023D000020608D5DFF88C22126852F00802DFF8F6
:1023E00084321A6007E0DFF87C22126832F00802BB
:1023F000DFF870321A60DFF86C22126852F00202C5
:10240000DFF860321A6000BFDFF85822126832F03D
:102410000202DFF850321A604000D4E7704738B546
:1024200004000D00B5F15000C0B2FFF7BBFF200063
:10243000C0B2000950F01000C0B2FFF7B3FF14F0B3
:102440000F0050F00100C0B2FFF7ACFF31BD70B516
:10245000040000200500EDB2082D17DAB5F1500098
:10246000C0B2FFF79FFF0120FFF79CFF1020FFF78E
:1024700099FF00200600F6B2802E05DA2000C0B2D7
:10248000FFF752FF761CF6E76D1CE4E770BD80B2E3
:10249000002809D04FF47A5211000A00511E92B25E
:1024A000002AFAD1401EF2E7704780B501230122CD
:1024B0000121032000F0DCF8012301220221032086
:1024C00000F0D6F8012301220321032000F0D0F808
:1024D000012301220421032000F0CAF80023012275
:1024E0000F21022000F0C4F8DFF87801006850F0F6
:1024F0000200DFF870110860DFF86801006830F052
:102500001000DFF860110860DFF85C01006830F44B
:102510000040DFF8541108603220FFF7B8FFDFF801
:102520004801006850F40040DFF83C110860AE201C
:10253000FFF738FF0020FFF735FF1020FFF732FFCD
:102540004020FFF72FFF8120FFF72CFFCF20FFF760
:1025500029FFA120FFF726FFC820FFF723FFA620B1
:10256000FFF720FFA820FFF71DFF3F20FFF71AFF0E
:10257000D320FFF717FF0020FFF714FFD520FFF748
:1025800011FF8020FFF70EFFD920FFF70BFFF1208E
:10259000FFF708FFDA20FFF705FF1220FFF702FF21
:1025A000DB20FFF7FFFE4020FFF7FCFE2020FFF7B7
:1025B000F9FE0220FFF7F6FE8D20FFF7F3FE142050
:1025C000FFF7F0FEA420FFF7EDFEA620FFF7EAFEDE
:1025D000AF20FFF7E7FE0020FFF739FF00210020C2
:1025E000FFF71DFF01BD2DE9F84304000D001600A3
:1025F00000275FF000085FF000095FFA89F916F81C
:10260000090000282BD05FFA89F916F80900203854
:102610000700E4B27F2C02DB002004006D1C2900BF
:10262000C9B22000C0B2FFF7FAFE002080465FFA70
:1026300088F8B8F1060F0EDA0C48FFB2062101FB4C
:1026400007F108445FFA88F810F80800FFF76CFEFD
:1026500018F10108EBE7A41D19F10109CDE7BDE868
:10266000F1830000C0F00F4080F00F401C4E0000CE
:10267000F8B504000D0016001F00EDB2202D02D2A7
:10268000FFB2022F03D34721474801F03BFC4748E4
:10269000E4B250F82400EDB2F6B256F4807140F87E
:1026A0002510F00705D5F6B2032E02D0F6B2132E90
:1026B0000DD13F48E4B250F8240040690121A940FF
:1026C00088433B49E4B251F8241048612AE0384875
:1026D000E4B250F8240040690121A940084334497C
:1026E000E4B251F824104861FFB2012F0DD13048F7
:1026F000E4B250F8240000680121A94008432C49A5
:10270000E4B251F8241008600CE02948E4B250F813
:10271000240000680121A94088432549E4B251F80A
:1027200024100860F1BD70B504000D001600EDB274
:10273000202D02D2F6B2022E03D36E211A4801F0E8
:10274000E1FBF6B2012E0DD11948E4B250F8240095
:1027500000680121A94008431549E4B251F824104A
:1027600008600CE01248E4B250F82400006801212F
:10277000A94088430E49E4B251F82410086070BDA6
:1027800038B504000D00EDB2202D03D39421064886
:1027900001F0B8FB0648E4B250F824000069E840B4
:1027A00010F0010032BD0000185200007004FF1F3D
:1027B0005C04FF1F38B504000D00E4B2002C05D105
:1027C000EDB2082D02DBEDB2132D0DDBE4B2012CCE
:1027D00005D1EDB2042D02DBEDB2122D04DB222176
:1027E000DFF85C0301F08EFBE4B2002C02D0012C78
:1027F0007CD0EEE0DFF84C03006850F00060DFF8BA
:1028000044130860DFF84003006830F09000DFF800
:10281000381308600020DFF830130860EDB228009C
:10282000083801280CD9801E01281AD9801E0128D9
:1028300028D9801E012836D9C01E012844D953E06A
:10284000DFF80803006850F48060DFF800130860C8
:102850000020DFF8FC12EDB201EB850141F8200CFD
:1028600043E0DFF8E802006850F40070DFF8DC12A3
:1028700008600020DFF8DC12EDB201EB850141F8C1
:102880000C0C32E0DFF8C402006850F48060DFF81E
:10289000BC1208600020DFF8B812EDB201EB850130
:1028A00041F8280C21E0DFF8A402006850F4006031
:1028B000DFF8981208600020DFF89C12EDB201EBFF
:1028C000850141F8380C10E0DFF88002006850F410
:1028D0000050DFF8781208600020DFF88012EDB2B7
:1028E00001EB8501C86100E073E072E0DFF870027F
:1028F000006850F00060DFF868120860DFF84802F6
:10290000006830F41040DFF8401208600020DFF863
:1029100038120860EDB22800001F03280BD9001FF1
:10292000012819D9801E032827D9001F012835D96D
:10293000C01E41D04CE0DFF81402006850F4005093
:10294000DFF8081208600020DFF81012EDB201EB8A
:10295000850141F8100C3BE0DFF8F001006850F40D
:102960008060DFF8E81108600020DFF8E411EDB2C4
:1029700001EB850141F8200C2AE0DFF8D001006866
:1029800050F48060DFF8C41108600020DFF8C01147
:10299000EDB201EB850141F8180C19E06B480068B5
:1029A00050F480606949086000206949EDB201EB8C
:1029B000850141F8180C0BE06448006850F4007081
:1029C0006249086000206349EDB241F82500FFE745
:1029D000FFE731BDF8B504000D0016000027E4B292
:1029E000002C05D1EDB2082D02DBEDB2132D0CDB6E
:1029F000E4B2012C05D1EDB2042D02DBEDB2122DB3
:102A000003DB87214E4801F07DFA3200D2B2290063
:102A1000C9B22000C0B200F06FF85248E4B250F8DA
:102A2000240000680006F8D54E48E4B250F82400AF
:102A3000006907004B48E4B250F82400006830F009
:102A400080004849E4B251F824100860380080B290
:102A5000F2BD2DE9F04706000F009046F6B2002EB9
:102A600005D1FFB2082F02DBFFB2132F0CDBF6B249
:102A7000012E05D1FFB2042F02DBFFB2122F03DBC0
:102A8000A0212F4801F03EFA4246D2B23900C9B225
:102A90003000C0B2FFF79EFF82464246D2B23900F4
:102AA000C9B23000C0B2FFF795FF81464246D2B2AC
:102AB0003900C9B23000C0B2FFF78CFF04004846AD
:102AC000514680B289B2884201D2554600E04D4657
:102AD0002800210080B289B2884201D2AA4607E0CC
:102AE0005046210080B289B2884201D2A246FFE757
:102AF000504680B2BDE8F08770B504000D001600A6
:102B000015F01F0050F0400017490872B00010F097
:102B10000C0050F05000144908700420124948700D
:102B200041F234201049488045F278600E4988808F
:102B30000D490C48E4B250F8240000F017F870BDBD
:102B40004C5200003C80044018800440388004400F
:102B500000A004400090044000B0044000D00440B5
:102B6000308004404804FF1F3816FF1F0A78826037
:102B70004A78C2604A8882618A88C2618A79026220
:102B8000CA794262CA6802650A7A02604A7A426079
:102B90007047000038B504000D001748006850F475
:102BA0000000154908601548006880088000134936
:102BB00008601348E4B2210145501148E4B22101F4
:102BC0000844C06850F001000D49E4B222011144EC
:102BD000C8600B48E4B221010844806850F003004B
:102BE0000749E4B2220111448860E4B214F14400C0
:102BF00001F097F931BD00003C80044000700340B3
:102C00000071034070B504000D001600E4B2002C02
:102C10000ED0E4B2012C02D0E4B2022C02D1EDB20B
:102C2000022D05DB4FF4D771DFF8B00401F06AF92B
:102C3000E4B2002C05D0022C00F0B880C0F08A80ED
:102C4000DBE0DFF89C04006850F08070DFF890143F
:102C50000860EDB2002D0BD0022D25D016D3042D27
:102C60003ED02FD3062D57D048D3072D62D06FE02A
:102C7000DFF87004006850F40060DFF86814086042
:102C80004FF48060DFF86014086062E0DFF85404FD
:102C9000006850F40060DFF84C1408604FF4806066
:102CA000DFF84814086054E0DFF83804006850F496
:102CB0000060DFF8301408604FF48060DFF83014F3
:102CC000086046E0DFF81C04006850F40060DFF89C
:102CD000141408604FF48060DFF81814086038E0BE
:102CE000DFF80004006850F48050DFF8F813086043
:102CF0004FF48060DFF8001408602AE0DFF8E40396
:102D0000006850F48050DFF8DC1308604FF48060F6
:102D1000DFF8E81308601CE0DFF8C803006850F42F
:102D20008050DFF8C01308604FF48060DFF8D013E4
:102D300008600EE0DFF8AC03006850F48050DFF864
:102D4000A41308604FF48060DFF8B813086000E057
:102D5000D9E052E0DFF88803006850F00070DFF837
:102D600080130860EDB2002D02D0012D0ED01BE0C3
:102D7000DFF87003006850F40070DFF86813086033
:102D80004FF44070DFF8801308600EE0DFF8540362
:102D9000006850F40070DFF84C1308604FF4407086
:102DA000DFF86813086000E0ADE026E0DFF86003BC
:102DB000006850F08070DFF858130860EDB2002D05
:102DC00002D0012D0CD016E0C648006850F4007007
:102DD000C44908604FF44070DFF8381308600BE016
:102DE000C048006850F40070BE4908604FF440705D
:102DF000C949086000E086E0FFE7F6B2002E03D084
:102E0000022E33D019D349E0C448E4B250F824006C
:102E1000C06850F04400C149E4B251F82410C860C1
:102E2000BE48E4B250F82400C06830F03800BB4916
:102E3000E4B251F82410C86030E0B848E4B250F869
:102E40002400C06850F04800B449E4B251F824109E
:102E5000C860B248E4B250F82400C06830F03400D2
:102E6000AE49E4B251F82410C86017E0AB48E4B2B0
:102E700050F82400C06850F04C00A849E4B251F862
:102E80002410C860A548E4B250F82400C06830F0AF
:102E90003000A249E4B251F82410C86008209F49CC
:102EA000E4B251F8241008609C48E4B250F82400C1
:102EB000406D50F004009949E4B251F8241048657F
:102EC00000209649E4B251F8241048669348E4B2D1
:102ED00050F82400406D400840009049E4B251F899
:102EE0002410486500208D49E4B251F82410C864CC
:102EF00000208A49E4B251F824100865E4B214F1C4
:102F00003E0001F00EF870BD2DE9F04D06000F00F7
:102F100090464FF48060764908604FF480607549B0
:102F200008606F48006850F080706D4908600920A3
:102F30007B4908607B48006850F0040079490860CC
:102F40007848006850F001007649086076480068CB
:102F500040084000744908607448006850F480706C
:102F6000724908607148006850F400706F49086049
:102F70006E48006850F400506C4908606B48006867
:102F800050F4805069490860C22069490860694866
:102F9000006850F4007067490860032066490860C3
:102FA0006648006850F0080064490860634800689B
:102FB00030F00400614908606148006850F0080082
:102FC0005F4908605E48006830F004005C490860B2
:102FD000F3205C49086000205B490860300039003C
:102FE00000225A4B00F0AAF904000D0000205849B5
:102FF00022002B0000F0A2F900F070FB5549086098
:10300000544800685449086000205449086040460C
:1030100000F0ACF80022524B00F0BEF800224C4BFE
:1030200000F08CF982468B464A48006800F09EF812
:1030300052465B4600F0B0F800F050FB494908608A
:103040000020494908603C48006850F080003A4937
:103050000860BDE8F08D70B50600300000F086F81D
:1030600000223F4B00F098F80022394B00F066F93F
:1030700004000D003748006800F078F822002B00AB
:1030800000F08AF800F02AFB364908602A480068F8
:1030900050F080002849086070BDF8B506000F00A8
:1030A000300039000022294B00F048F904000D00DF
:1030B0000020274922002B0000F040F900F00EFB11
:1030C0002449086023480068234908601A480068BA
:1030D00050F0800018490860F1BD00007C520000EB
:1030E0003C8004403880044004B0044008B00440F0
:1030F0000CB0044010B0044010C0044014C00440A0
:1031000018C004401CC00440209004402490044097
:1031100030800440289004402C9004405004FF1F4D
:10312000008003405480034080800340648003405B
:10313000688003408C800340588003401C8003401B
:1031400024800340608003404C800340006AE840D4
:1031500000408F404816FF1F088003402080034036
:103160000000F03F2880034004800340010040F14C
:103170000780F446404200F003F851F000416047F8
:1031800009D0B0FA80F18840C91CC1F584610905F5
:1031900001EBD02140057047B0B581EA030C0CF07B
:1031A000004C40F2FF7515EA11541DBF15EA135784
:1031B000AC42AF4239E0E41923EA455343F48013AB
:1031C000C90241F0004141EA505EC7021100A7FB6D
:1031D000020200284FF00000EEFB01204FF000013A
:1031E000E3FB072118BF42F00102401800214941CA
:1031F000E3FB0E01A4F580640F0302D252004041AC
:10320000494154F101046CDD470872F1004250F16C
:10321000000051EB0451A1F580115CBF41EA0C01A3
:10322000B0BD4CEA05510020B0BD05EA1357AC42D1
:1032300014BFAF4241E050EA410E1CBF52EA430EB8
:1032400002E061460020B0BD24423C441BD15FEA4D
:10325000070EF6D0090302BF01460020AEF1140E9E
:10326000B1FA81F7AEEB070401FA07FE0C37C7F19C
:10327000200100FA07F7C8404EEA000E23EA455342
:1032800043F48013A2E733F00043B3FA83F704BF9B
:10329000B2FA82FE77440B3FE41BB7F1200E2FBF3A
:1032A00002FA0EF3BB40C7F1200E22FA0EFE38BF21
:1032B00043EA0E03BA40641C82E750EA410E14BF91
:1032C00052EA430E6FF000014FF4001717EB430F63
:1032D0008ABF194617EB410FB5E74CEA05510020AC
:1032E000B0BDD4F10104B4F120070FDAC4F1200716
:1032F000520828BF42F0010210FA07F501FA07F759
:10330000E1BF2A43E0403843E1400FE0352C98DC30
:10331000C7F1200452EA400220FA07F218BF42F037
:10332000010231FA07F0A1400A43002172F1004284
:1033300050F1000051EB0C01B0BD00002DE9F0414F
:1033400040F2FF7581EA030C0CF0004C15EA1154B1
:103350001DBF15EA1357AC42AF42E9E0BC41C1F3CF
:103360001301C3F31303801A994143F4801304D269
:10337000641E4000494180185941C90241EA505138
:10338000B1FBF3F603FB1611A2FB0675D7EBC020C9
:10339000A94102D2761E80185941C90241EA505112
:1033A000B1FBF3FE03FB1E11A2FB0E75D7EBC02091
:1033B000A94103D2AEF1010E80185941890241EAB8
:1033C0009051760546EA8E2EB1FBF3F603FB1611FB
:1033D000A2FB0675D7EB8020A94102D2761E801889
:1033E0005941C90241EA50514EEA060EB1FBF3F6CB
:1033F00003FB1611A2FB0675D7EBC020A94102D230
:10340000761E80185941C90241EA5051B1FBF3F7C9
:1034100003FB1711A2FB0735D3EBC020A94167F1CD
:1034200000070CBF004247F0010766F3D5274FEABB
:103430001E31B80814F5806414DDBD0775F1004233
:1034400050EB0E5051EB045111F5801F5CBF41EA67
:103450000C01BDE8F0814CF07F6141F0E0410020BB
:10346000BDE8F081BD076D0840EA0E5041F48011BF
:10347000D4F10104B4F120060ADAC4F120060200F6
:10348000E04001FA06F3E1401843B24015430EE074
:10349000342C14DCC6F1200445EA40056D0820FAFE
:1034A00006F2154321FA06F0A1400D43002175F103
:1034B000004250F1000051EB0C01BDE8F08100200A
:1034C0005FEA0C01BDE8F081CFB992185B41B3FA15
:1034D00083F704BFB2FA82F6BF190B3FB7F120069B
:1034E0002FBF02FA06F3BB40C7F1200622FA06F608
:1034F00038BF3343BA401CB1E419641E2FE77F4242
:1035000031F00041B1FA81F404BFB0FA80F6A41999
:103510000B3CB4F120062FBF00FA06F1A140C4F124
:10352000200620FA06F638BF3143A0403C1B16E7C0
:10353000AC421ABF05EA1357AF4214E050EA410605
:103540001CBF52EA4306BFE750EA410730466146D6
:103550001CBF41EA0551BDE8F08152EA430C08BFA7
:10356000C143BDE8F08100204FF4001616EB410F77
:1035700098BF16EB430F08BF16EB410F24BFC143A2
:1035800005E016EB430F0CBF61464CEA0551BDE860
:10359000F0810000F0B44FF0004591EA030C44BF05
:1035A0006B4000F0D3BB00BF841A71EB030603D25B
:1035B000001BB141121973414FF4001C1CEB410F69
:1035C00034BF7CEB430443E00C0DA4EB1356352EC3
:1035D00050DC45EAC323DB0A45EAC121C912B6F132
:1035E00020050DDD63FA05F6EB4086EA030512427D
:1035F00018BF45F00105C01851F100010CD213E0CD
:1036000062FA06F5F2405540F3415A40B340F340A8
:103610005A408018594107D349085FEA30005FEAF1
:10362000350528BF45F0010501F58011420875F107
:10363000004250F1000041EB0451F0BC4FF4001C7B
:103640001CEB410F38BF70470020090D090570477A
:103650001CEB410F10D252EA43060BD0BCEB410FDA
:1036600005D80C0DAB43661E342EB5DD02E0AB432E
:1036700080185941F0BC7047F0BC70474FF4001CF3
:103680001CEB410F94BF1CEB430F09E041EA030C14
:1036900050EA4C0C52EA0C0C03D28B4208BF824217
:1036A000704714BF99429042704700004FF4001CCD
:1036B0001CEB410F94BF1CEB430F09E041EA030CE4
:1036C00050EA4C0C52EA0C0C03D2994208BF9042CB
:1036D000704714BF8B42824270470000F446400D91
:1036E00040EAC120490006D200F00EF8004248BF6F
:1036F0006FF00040604700F007F84FF0004188424B
:103700008CBF08464042604740F00040490DA1F59B
:103710008061491C05D4D1F11F0154BFC840C017B6
:1037200070474FF00000704762B38B0708D0521EFD
:1037300011F8013B00F8013B00F024808B07F6D123
:10374000830740F0208000BF103A07D330B4B1E8BF
:103750003810103AA0E83810F9D230BC530724BF13
:10376000B1E80810A0E8081044BF51F8043B40F845
:10377000043BD20724BF31F8022B20F8022B44BFB0
:103780000B7803707047083A07D3B1E80810083A7D
:1037900040F8043B40F804CBF7D25307E4E70000BD
:1037A00070B504000D0016003068012802D0022810
:1037B00005D00AE02000C0B27168884705E0B06813
:1037C0000470B068401CB060FFE72868401C2860A7
:1037D00070BD2DE9F04704005FF0000A5046A14695
:1037E0005FF0000A89F800A019F10109002A1FD032
:1037F000D1F800A05546002D05D15FF0300A89F8B8
:1038000000A0401C38E0002D36D095FBF3FA564658
:1038100003FB165A5746002F02D5FF43313700E00D
:103820003037350089F8007019F10109401CEAE7CA
:10383000D1F800A0D446BCF1000F05D15FF0300AEA
:1038400089F800A0401C17E0BCF1000F14D0BCFBAD
:10385000F3FAD64603FB1ECAD046B8F10A0F02D2CD
:1038600018F1300801E018F13708F44689F80080B3
:1038700019F10109401CE7E7BDE8F0872DE9F041A7
:1038800004000D0016001F00A046A84507DA3A0004
:1038900031003020FFF784FF18F10108F5E7BDE89B
:1038A000F0812DE9F04104000D0016001F00A04634
:1038B000A84507DA3A0031002020FFF771FF18F120
:1038C0000108F5E7BDE8F0812DE9F24F92B0040060
:1038D000150000200090129883469BF8000001908C
:1038E0000198002800F0F5810198252813D001984F
:1038F0000A2805D0220069460198FFF751FF09E028
:10390000220069460D20FFF74BFF220069460A207E
:10391000FFF746FFDAE1002081460020049004987A
:10392000002822D11BF1010B9BF8000020280ED0AB
:10393000232812D02B2807D02D2802D0302809D0D8
:103940000EE059F00109EAE759F00209E7E759F0FA
:103950000409E4E759F00809E1E759F01009DEE746
:10396000BBF1010B01200490D9E700208246002022
:1039700004900498002814D11BF1010B9BF800005F
:10398000019001983038092806D80A20019900FBD7
:103990000A10B0F1300AECE7BBF1010B01200490F2
:1039A000E7E71BF1010B9BF800002E2811D1002046
:1039B0000490049800280ED11BF1010B9BF8000025
:1039C0003038092800D8F4E7BBF1010B012004903E
:1039D000EFE7BBF1010B1BF1010B9BF800004C283A
:1039E00006D0682802D06C2801D002E003E002E093
:1039F00001E0BBF1010B1BF1010B9BF800000190F2
:103A00000198582875D0622800F0D580632800F00E
:103A10001D81642813D0692811D06E2800F04A81D6
:103A20006F2800F0BD80702800F0D080732800F06F
:103A30001781752800F0D58078285AD041E1286890
:103A40002D1D06900A23012206A909A8FFF7C1FE31
:103A5000070009A8384406000698002803D52D2041
:103A600003907F1C0FE05FEA897003D52B20039041
:103A70007F1C08E05FEA497003D5202003907F1C7B
:103A800001E000200390002005905FEA097011D545
:103A90000398002804D0220069460398FFF780FEAF
:103AA0000120059023006A4651463800FFF7E6FEE4
:103AB000574612E05FEAC9700FD423006A465146A8
:103AC0003800FFF7EEFE0398002804D02200694674
:103AD0000398FFF765FE012005900598002807D19F
:103AE0000398002804D0220069460398FFF758FE87
:103AF00098E028682D1D02901023002202A909A831
:103B0000FFF767FE070009A838440600002005906B
:103B10005FEA097016D55FEAC9600BD522006946D5
:103B20003020FFF73DFE220069467820FFF738FE7F
:103B30000120059023006A4651463800FFF79EFE9B
:103B400057461BE05FEAC97018D45FEAC96000D528
:103B5000BF1C23006A4651463800FFF7A2FE5FEA09
:103B6000C9600BD5220069463020FFF719FE2200FC
:103B700069467820FFF714FE012005905FEAC960CE
:103B80000DD5059800280AD1220069463020FFF79C
:103B900007FE220069467820FFF702FEBF1C41E0C5
:103BA00028682D1D02900823002202A909A8FFF70A
:103BB00010FE07001FE028682D1D0290022300223E
:103BC00002A909A8FFF705FE070014E028682D1DCB
:103BD00002901023002202A909A8FFF7FAFD0700AE
:103BE00009E028682D1D02900A23002202A909A8D5
:103BF000FFF7EFFD070009A8384406005FEA0970E7
:103C000007D523006A4651463800FFF737FE57466E
:103C100008E05FEAC97005D423006A4651463800BF
:103C2000FFF73FFE3078002806D022006946307842
:103C3000FFF7B6FD761EF5E75FEAC97005D52300EC
:103C40006A4651463800FFF72CFE3FE028682D1DDC
:103C5000C0B20790220069460798FFF7A1FD35E042
:103C600028682D1D8046B8F1000F22D0404600F094
:103C7000F3F907005FEAC97005D423006A4651468C
:103C80003800FFF70EFE98F80000002808D0220048
:103C9000694698F80000FFF783FD18F10108F2E784
:103CA0005FEAC97005D523006A4651463800FFF720
:103CB000F8FD0BE028682D1D089000980899086011
:103CC00004E0220069460198FFF76AFD1BF1010B31
:103CD00003E6009813B0BDE8F08F0EB47EB5040083
:103CE000012000900648019007A805002A00210045
:103CF0006846FFF7E9FD060030007EBC5DF810FB6A
:103D0000595700000CB4FEB504000D000027002C2C
:103D10000DD002200090029408A80600320029006D
:103D20006846FFF7D1FD07000020029908703800AF
:103D3000FEBC5DF80CFB0000F0B44FF0004591EACA
:103D4000030F44BF6B40FFF72FBC00BF841A71EB19
:103D5000030604D26E40001BB141121973414FF4A7
:103D6000001C1CEB410F34BF7CEB430684E00C0DC0
:103D7000A4EB1356362E7DDC012E43DC45EAC3232B
:103D800043EA525312BFD20292025B08240545EA6D
:103D9000C12141EA5051D2EBC020994125D407D12D
:103DA000B0FA80F610FA06F164D00020203608E060
:103DB000B1FA81F6B140C6F1200220FA02F21143B5
:103DC000B0404FEAF474B4EB465434F001064FEAC5
:103DD00074040AD8D6F50016760D04F00044F040BD
:103DE00061FA06F25040F1404840C00A40EA4150B2
:103DF00021F0004128BF5FEA500550F1000044EB7C
:103E0000D12137E045EAC323DB0A45EAC121C90ACB
:103E1000B6F120050EDD42EA0242120CC5F1200681
:103E200003FA06F6EB4042EA06056D42984161F15D
:103E300000010DE062FA06F5F240554063FA06FC17
:103E400082EA0C02F3405A406D42904161EB03015B
:103E500011F4801F05D1641E620502D06D0040413F
:103E6000494121F48011430875F1004350F10000ED
:103E700041EB0451F0BC70471CEB410F15D223F00D
:103E8000004352EA43060BD04FEA4C0CBCEB410F07
:103E900004D80C0D661E342EB7DDEBE7801A99416D
:103EA00050EA410608BF0021E4E708BF1CEB430FBE
:103EB00028BF6FF00001DDE70E49096851F00101EC
:103EC0000C4A11600D49086005210D4A11600A492C
:103ED000096851F00101084A11600749096809069B
:103EE000FBD50549096849084900034A1160704734
:103EF0000000000038800440000004400800044036
:103F00000400044038B504000D002A0021000248D6
:103F1000FFF7E3FEF9E700BF945000004249086054
:103F2000704738B504005C2C02DB4048FFF7D5FE33
:103F3000202094FBF0F00500002D03D0022D2BD0A3
:103F400015D33DE02020012194FBF0F200FB12404C
:103F500011FA00F0364908602020012194FBF0F2AC
:103F600000FB124011FA00F03249086028E02020DE
:103F7000012194FBF0F200FB124011FA00F02E49EF
:103F800008602020012194FBF0F200FB124011FA9E
:103F900000F02A49086013E02020012194FBF0F290
:103FA00000FB124011FA00F0254908602020012191
:103FB00094FBF0F200FB124011FA00F02149086076
:103FC00031BD38B504005C2C02DB1F48FFF785FECD
:103FD000202094FBF0F00500002D03D0022D17D017
:103FE0000BD31FE02020012194FBF0F200FB1240D4
:103FF00011FA00F01549086014E02020012194FB1B
:10400000F0F200FB124011FA00F01149086009E0DB
:104010002020012194FBF0F200FB124011FA00F085
:104020000C49086031BD000008ED00E0E0510000DF
:1040300080E200E000E100E084E200E004E100E072
:1040400088E200E008E100E0A451000080E100E027
:1040500084E100E088E100E001000A000023002A7A
:1040600001D1002007E01000421C0078002801D098
:104070005B1CF8E71800704780B500F08DFA00F07F
:10408000A7FA00F005FBDFF8E803FFF726FEDFF8EC
:10409000E4030068DFF8E0134979491CB0FBF1F054
:1040A0000090DFF8D0030068DFF8CC130979491CD1
:1040B000B0FBF1F3DFF8BC030068DFF8BC13C9788C
:1040C000491CB0FBF1F2DFF8AC030168DFF8AC0388
:1040D000FFF703FEDFF8A8030078400703D5DFF8F9
:1040E000A403FFF7FAFDDFF898030078800703D5F3
:1040F000DFF89403FFF7F1FDDFF884030078C007D1
:1041000003D5DFF88803FFF7E8FDDFF884030078C4
:10411000000603D5DFF87C03FFF7DFFDDFF870034F
:104120000078400603D5DFF87003FFF7D6FDDFF80F
:1041300060030078800603D5DFF86003FFF7CDFD4C
:10414000DFF84C030078400703D5DFF85403FFF78E
:10415000C4FDDFF83C030078800703D5DFF8440393
:10416000FFF7BBFDDFF828030078C00703D5DFF8B1
:104170003803FFF7B2FDDFF83403FFF7AEFDDFF8D9
:104180003003DFF83013884204D0DFF82C03FFF748
:10419000A4FD03E0DFF82403FFF79FFD00F003F820
:1041A000FDF730FAFEE780B5DFF814030068000978
:1041B00010F0070000280BD0022813D00DD30428DC
:1041C00019D014D306281ED019D307281FD022E0F7
:1041D000DFF8F002FFF781FD20E0DFF8EC02FFF7E7
:1041E0007CFD1BE0DFF8E402FFF777FD16E0B8483E
:1041F000FFF773FD12E0B748FFF76FFD0EE0B6481A
:10420000FFF76BFD0AE0B548FFF767FD06E0B4482D
:10421000FFF763FD02E0B348FFF75FFDA8480068C1
:1042200010F00F00022812D0042814D0052816D050
:10423000062818D007281AD008281CD009281ED014
:104240000A2820D00C2822D00E2824D027E0A64807
:10425000FFF743FD26E0A548FFF73FFD22E0A44815
:10426000FFF73BFD1EE0A348FFF737FD1AE0A24829
:10427000FFF733FD16E0A148FFF72FFD12E0A0483D
:10428000FFF72BFD0EE09F48FFF727FD0AE09E4851
:10429000FFF723FD06E09D48FFF71FFD02E09C4865
:1042A000FFF71BFD86480068000B10F00F00002888
:1042B00003D0022809D004D30BE09648FFF70DFD88
:1042C0000AE09548FFF709FD06E09448FFF705FD71
:1042D00002E09348FFF701FD00F06AF8914800689A
:1042E000000E10F00F00072806D0092808D00B2870
:1042F0000AD00F280CD00FE08B48FFF7EEFC0EE041
:104300008A48FFF7EAFC0AE08948FFF7E6FC06E086
:104310008748FFF7E2FC02E08648FFF7DEFC8648AC
:104320000068000203D58548FFF7D7FC1EE07D48F2
:104330000068000F002806D0072808D009280AD0F6
:104340000F280CD00FE07E48FFF7C7FC0EE07D4839
:10435000FFF7C3FC0AE07C48FFF7BFFC06E07A48A1
:10436000FFF7BBFC02E07948FFF7B7FC784800682C
:10437000000B10F00F00052806D0072808D00828E9
:104380000AD009280CD00FE07248FFF7A6FC0EE017
:104390007148FFF7A2FC0AE07048FFF79EFC06E0B8
:1043A0006F48FFF79AFC02E06E48FFF796FC01BDEC
:1043B000F8B503206C49087000206C490870002093
:1043C0006B49087000206B49087001206A49087029
:1043D00080206A490870694800780006FBD5684863
:1043E00000780400674800780500674800780600F8
:1043F000664800780700FFB20097F6B23300EDB2CE
:104400002A00E4B221006248FFF767FC0320564906
:104410000870002055490870002055490870042094
:10442000544908700120544908708020534908708D
:10443000524800780006FBD55148007804005148E6
:1044400000780500504800780600504800780700C2
:10445000FFB20097F6B23300EDB22A00E4B22100B9
:104460004C48FFF73AFCFF2044490870F1BD0000BA
:10447000B05300007016FF1FA815FF1FDC5000008E
:1044800000E00740885600005054000074570000B8
:1044900001E0074098560000E8550000E85400008D
:1044A000005500006C54000080570000D0530000FD
:1044B0000000FF1F000000008C570000985700000C
:1044C00024800440C8570000D0570000D85700008F
:1044D000E0570000E8570000F0570000F8570000D0
:1044E0000058000008530000A8560000B85600000D
:1044F000C8560000D8560000E8560000F8560000E4
:1045000008570000185700002857000038570000CF
:10451000DC520000FC55000010560000245600003C
:10452000245100004C800440185500003055000014
:1045300048550000F05300005080044048570000E8
:1045400060550000785500009055000010540000A0
:1045500000700440385600004C56000060560000C1
:104560007456000088540000070002400600024014
:1045700005000240040002400F000240000002401B
:104580000B0002400A0002400900024008000240FD
:10459000305300003054000080B500F009F80A489C
:1045A00000884FF6FE7108400749088001BD0000F1
:1045B00072B64CF22050054908804DF62810034988
:1045C000088062B670470000002005400E200540BC
:1045D0002DE9F8432448254988420DD00020804623
:1045E000B8F5826F08D2214850F828001E4941F8DA
:1045F000280018F10108F3E71B48FFF78FFC1C485F
:1046000007001C4806001C480400A01B80464046CA
:10461000B0F10108002804D030783870761C7F1C77
:10462000F5E71648814616480500B5EB09008046B7
:104630004046B0F10108002805D0002089F80000AC
:1046400019F10109F4E70F480F49104A531A984627
:104650004346B3F10108002B04D00B780370491CCA
:10466000401CF5E7BDE8F1830000FF1F00000000DB
:104670001004FF1F4C040000041600001816FF1F52
:104680009416FF1FC815FF1F4450000094500000EF
:1046900080B51148006850F478500F4908606420D4
:1046A00000F028F80D4908600C4800684FF47A7152
:1046B00048430B4908600A4800680A490968C1F381
:1046C0000361491CB0FBF1F0074908604FF49641C3
:1046D0000120FDF71BFB01BD388004407016FF1F51
:1046E0006C16FF1F448004407416FF1FDFF800F0B3
:1046F000C915FF1F38B50400E4B2002C00F0068194
:10470000E4B2200030281ED0322823D0602828D0E0
:1047100064282DD06E2832D0782837D07D283CD020
:10472000822841D08C2846D096284BD0A02850D043
:10473000AA2855D0B4285AD0C8285FD0E12864D020
:10474000FA2869D06FE018209F49087000209E4920
:1047500048706CE018209C49087001209A49487004
:1047600065E01820984908701820974948705EE065
:104770001820954908701A209349487057E018206E
:10478000914908701F209049487050E013208E49CD
:10479000087018208C49487049E013208A49087035
:1047A0001A208949487042E01320874908701C206C
:1047B000854948703BE00E208349087012208249E9
:1047C000487034E00E208049087015207E494870FA
:1047D0002DE00E207C49087018207B49487026E0A7
:1047E0000E20794908701B20774948701FE00E2081
:1047F000754908701E207449487018E00C207249F1
:1048000008701C207049487011E00B206E49087038
:104810001E206D4948700AE00A206B4908701F206D
:104820006949487003E06420FFF764FFCAE0002094
:1048300065498870E4B2332C03DA00206249C870FD
:1048400017E0E4B2652C03DA01205F49C87010E07C
:10485000E4B2972C03DA02205B49C87009E0E4B2A5
:10486000C92C03DA03205849C87002E00F205649CA
:10487000C8705548C07854490871E4B21A2C03DA5C
:1048800000205149487141E0E4B2332C03DA0120A1
:104890004D4948713AE0E4B24C2C03DA02204A490F
:1048A000487133E0E4B2652C03DA032046494871CD
:1048B0002CE0E4B27E2C03DA04204349487125E061
:1048C000E4B2972C03DA05203F4948711EE0E4B2B8
:1048D000B02C03DA06203C49487117E0E4B2C92C39
:1048E00003DA07203849487110E0E4B2E22C03DA19
:1048F00008203549487109E0E4B2FB2C03DA0920AD
:104900003149487102E00F202F4948712E48407804
:10491000183080B2322148432B490978491C89B2AA
:1049200090FBF1F005000020284908702848006835
:1049300050F08050264908602648007850F08000EA
:104940002449087098202449087024480078C0063B
:10495000FBD422480078C0F38100C0B20228F8D10D
:104960001948007810F01F001D49087000201D49EB
:10497000087015484379144802791348C1781248E1
:104980008078FFF7B3FE1048407810F01F0050F019
:10499000400014490870114800788006FBD50F4884
:1049A00000784006FBD50C48007810F03F000A491B
:1049B00008700A480078C0F38100C0B20328F8D11B
:1049C0002800C0B232BD00BFA815FF1F014006403D
:1049D0003480044008C007400040064006400640BE
:1049E000044006400540064010B572B60120FDF7B0
:1049F00063FA0400DFF890130120FDF777FA210035
:104A0000C9B20120FDF765FA62B610BDDFF87C037C
:104A1000006850F00100DFF8741308607047000070
:104A200080B572B6DFF86803D0E900010022DFF834
:104A30006433FEF723FE08D8012205210120FDF78B
:104A400072FE0020DFF850130860DFF85003008882
:104A5000401CDFF848130880DFF840030088B0F5F9
:104A60007A6F1AD1FCF784FF0020DFF8301308803A
:104A700000200021DFF82823C2E9000100200021E6
:104A8000DFF80C23C2E90001DFF81803D0E90001C8
:104A9000FEF724FEDFF81013086062B6DFF80C039F
:104AA000006850F00100DFF80413086001BD704792
:104AB000704780B5DFF8F802FFF70FF9FAE700203A
:104AC00008210800DFF8EC120968C140C9071DD5AC
:104AD000B8490968012282401143B64A1160B649BB
:104AE0000988002903D10121B44A11700EE0B249AE
:104AF00009880E290ADB0021AF4A11800021AF4A44
:104B00001170AF490978491CAD4A1170092108009C
:104B1000A8490968C140C9071DD5A64909680122ED
:104B200082401143A34A1160A6490988002903D194
:104B30000121A54A11700EE0A24909880E290ADB5D
:104B40000021A04A118000219F4A11709F490978D5
:104B5000491C9E4A11700A21080096490968C14003
:104B6000C9071DD593490968012282401143914A22
:104B7000116097490988002903D10121954A1170D4
:104B80000EE0934909880E290ADB0021904A118022
:104B90000021904A117090490978491C8E4A117081
:104BA0000B21080083490968C140C9071DD5814907
:104BB00009680122824011437E4A116087490988B1
:104BC000002903D10121864A11700EE0834909882A
:104BD0000E290ADB0021814A11800021804A1170D0
:104BE00080490978491C7F4A1170704700200021D4
:104BF00008007D490968C140C90706D57A49096896
:104C0000012282401143784A11600A210800764946
:104C10000968C140C90706D5734909680122824065
:104C20001143714A116070477048006850F00100EC
:104C30006E49086061480078002804D05E4800880A
:104C4000401C5D4908805C480088972805DB0020EF
:104C5000594908800020594908705B4800780028AD
:104C600004D058480088401C5649088055480088A0
:104C7000972805DB0020534908800020524908701E
:104C800054480078002804D051480088401C5049FE
:104C900008804F480088972805DB00204C49088091
:104CA00000204C4908704E480078002804D04B483A
:104CB0000088401C4949088048480088972805DB3F
:104CC0000020464908800020454908707047704719
:104CD00010B54748046800204549086001220921B1
:104CE0000020FDF7B6FE4349086001220C21002098
:104CF000FDF7AFFE40490860404800683E4909683A
:104D0000884203DA3C4800683C4908603C48006837
:104D100038490968884203DA36480068384908602B
:104D2000FCF7F9FE10BD80B53648006850F0100061
:104D3000344908600420FFF744F93348006830F034
:104D400010003149086001203049087001BD80B56C
:104D50002F48FEF7C2FF2B48006850F00100294998
:104D600008602948006850F001002749086001BD2B
:104D70002848006850F080002649086026480078DE
:104D8000401C254908707047C05500001C71034045
:104D90002016FF1F000032409804FF1F7816FF1FE7
:104DA0001816FF1F1004FF1FA004FF1F0C71034003
:104DB00090530000A0C004407A16FF1F8416FF1F06
:104DC0008516FF1F7C16FF1F8616FF1F8716FF1F05
:104DD0007E16FF1F8816FF1F8916FF1F8016FF1FF4
:104DE0008A16FF1F8B16FF1FA0A004402C710340E2
:104DF000509003405816FF1F5416FF1F5C16FF1FEC
:104E00006016FF1F248000400C8000408C16FF1F9E
:104E1000D4550000000004408D16FF1F0000000064
:104E200000000000002F0000000007000700001431
:104E30007F147F1400242A7F2A120062640813233F
:104E400000364955225000000503000000001C22D6
:104E50004100000041221C000014083E0814000814
:104E6000083E0808000000A06000000808080808C4
:104E7000000060600000002010080402003E51495C
:104E8000453E0000427F40000042615149460021FA
:104E900041454B31001814127F1000274545453914
:104EA000003C4A494930000171090503003649496F
:104EB000493600064949291E000036360000000028
:104EC0005636000000081422410000141414141473
:104ED000000041221408000201510906003249591C
:104EE000513E007C1211127C007F49494936003E38
:104EF00041414122007F4141221C007F49494941F3
:104F0000007F09090901003E4149497A007F0808EC
:104F1000087F0000417F4100002040413F01007FA9
:104F200008142241007F40404040007F020C027F75
:104F3000007F0408107F003E4141413E007F090987
:104F40000906003E4151215E007F091929460046AD
:104F5000494949310001017F0101003F4040403F84
:104F6000001F2040201F003F4038403F00631408CE
:104F700014630007087008070061514945430000A9
:104F80007F41410000552A552A55000041417F00CC
:104F900000040201020400404040404000000102C1
:104FA0000400002054545478007F484444380038AA
:104FB0004444442000384444487F00385454541832
:104FC00000087E0901020018A4A4A47C007F080444
:104FD00004780000447D4000004080847D00007F14
:104FE000102844000000417F4000007C0418047831
:104FF000007C0804047800384444443800FC24242D
:1050000024180018242418FC007C08040408004814
:105010005454542000043F444020003C4040207C35
:10502000001C2040201C003C4030403C0044281024
:105030002844001CA0A0A07C004464544C441414D8
:1050400014141414F0B4114E366834000F4E366840
:1050500056F47F060D4F3E600E0616F0706656EA57
:105060000076170517F470073E431F0417F47027E6
:105070003E43074F3E6000263500EDB29D4201D20F
:105080006D1CFAE7014E3460F0BC704700F001403F
:1050900044800440B6CFD1D4B7A2C9FAD4DA25737C
:1050A000CEC4BCFEB5C4B5DA2564D0D0A3A10AB67F
:1050B000CFD1D4CCF5BCFEB2BBB3C9C1A2A3ACC79F
:1050C000EBBCECB2E2B4EDCEF3D4ADD2F2A1A309C5
:1050D000A1AAA1AA206279200A0A0000C4DABACBE8
:1050E000C6B5C2CAA3BA25644D487A09D7DCCFDF5A
:1050F000C6B5C2CA20A3BA25644D487A0A666C6553
:1051000078C6B5C2CAA3BA25644D487A2009666C30
:10511000617368C6B5C2CAA3BA25644D487A0A0A43
:10512000000000000A546869732076657273696F25
:105130006E206F6620736F66747761726520646F8E
:1051400065736E2774207265636F676E697A652078
:10515000746865207265766973696F6E20636F6429
:10516000652E000019E050F8041BCB0744BFA9F1DD
:1051700001035918121F0023042A41F8043BF9D2F5
:105180005FEA827C0B4604D54FF0000CA1F800C00A
:105190009B1CD10744BF0021197050F8042B002A32
:1051A000E1D170470A4552522120496E76616C69FF
:1051B00064204952512076616C756520706173736B
:1051C000656420746F2064697361626C6520697224
:1051D000712066756E6374696F6E210A00000000AD
:1051E0000A4552522120496E76616C696420495209
:1051F000512076616C7565207061737365642074ED
:105200006F20656E61626C65206972712066756ED3
:105210006374696F6E210A00453A5C4941525072CD
:105220006F6A5C6C616E647A6F4B36304F4C4544EC
:105230005C7372635C647269766572735C677069D3
:105240006F5C6770696F2E6300000000453A5C492F
:10525000415250726F6A5C6C616E647A6F4B36308B
:105260004F4C45445C7372635C647269766572731B
:105270005C6164635C6164632E630000453A5C4971
:10528000415250726F6A5C6C616E647A6F4B36305B
:105290004F4C45445C7372635C64726976657273EB
:1052A0005C46544D5C46544D2E6300000A2A2A2A5F
:1052B0002A64656661756C745F69737220656E74CB
:1052C00065726564206F6E20766563746F72202549
:1052D000642A2A2A2A2A0D0A0A0000000A556E7238
:1052E00065636F676E697A6564204B696E65746982
:1052F00073207061636B61676520636F64652E2046
:1053000020202020200000000A556E7265636F6720
:105310006E697A6564204B696E6574697320666195
:105320006D696C79206465766963652E0A000000FA
:10533000466C61736820706172616D65746572207E
:1053400076657273696F6E2025642E25642E256440
:105350002E25640A0000000010B507497944183171
:10536000064C7C44163404E00A68081D1144884742
:105370000146A142F8D110BD080000001400000051
:10538000E5FDFFFF7C0000001816FF1F0000000075
:105390000A2A2A2A2AD3B2BCFEC9CFB7C3B4EDCE9B
:1053A000F32121212A2A2A2A2A0D0A0A00000000B4
:1053B0000A0A0909C0B6D6E66B696E65746973BAE4
:1053C000CBD0C4B0E5B2E2CAD4B3CCD0F20A00006C
:1053D0000AC0B6D6E64B696E65746973BFAAB7A2F8
:1053E000B0E5C6F4B6AFB7BDCABDA3BA00000000B1
:1053F000455252212120556E646566696E656420B0
:10540000502D666C6173682073697A650A0000002C
:10541000455252212120556E646566696E6564208F
:10542000466C65784E564D2073697A650A00000017
:10543000466C6173682076657273696F6E204944AB
:105440002025642E25642E25642E25640A00000084
:10545000436F7265204C6F636B7570204576656E87
:10546000742052657365740A000000004C6F772D3C
:10547000766F6C746167652044657465637420524F
:10548000657365740A000000455252212120556E53
:10549000646566696E65642052414D2073697A6562
:1054A0000A0A000000F00BF8002801D0FFF754FFB3
:1054B0000020C046C046FCF7A5F800F002F8012025
:1054C000704700F001B800000746384600F002F8C7
:1054D000FBE7000080B5C046C046024A1100182014
:1054E000ABBEFBE7260002005761746368646F6718
:1054F00028434F50292052657365740A000000004C
:105500004C6F7373206F6620436C6F636B20526522
:105510007365740A00000000313238206B427974E0
:105520006573206F6620502D666C617368090000FA
:10553000323536206B4279746573206F6620502DAA
:10554000666C617368090000353132206B427974F2
:105550006573206F6620502D666C617368090000CA
:1055600030206B4279746573206F6620466C6578D5
:105570004E564D0A00000000313238206B427974DB
:105580006573206F6620466C65784E564D0A0000A4
:10559000323536206B4279746573206F6620466C15
:1055A00065784E564D0A000080B503480178C9B2AF
:1055B0000248FEF792FB01BD04ED00E0AC52000092
:1055C0000AC4E3B7A2CBCDB5C4CAFDBEDDCEAAA343
:1055D000BA000000444D415F4348305F48616E644B
:1055E0006C65720A0000000045787465726E616C2B
:1055F0002050696E2052657365740A0053696C69A6
:10560000636F6E2072657620312E302020200A00D4
:1056100053696C69636F6E2072657620312E31207C
:10562000200A000053696C69636F6E2072657620F2
:10563000312E3220200A00003332206B427974650B
:1056400073206F662052414D0A0A00003634206BE9
:105650004279746573206F662052414D0A0A00003A
:105660003936206B4279746573206F662052414D44
:105670000A0A0000313238206B4279746573206F5A
:10568000662052414D0A0A00536F66747761726555
:105690002052657365740A00506F7765722D6F6EC6
:1056A0002052657365740A00333270696E202020C1
:1056B0002020202000000000343870696E20202057
:1056C0002020202000000000363470696E20202049
:1056D0002020202000000000383070696E2020203B
:1056E0002020202000000000383170696E2020202A
:1056F000202020200000000031303070696E202012
:10570000202020200000000031303470696E2020FD
:10571000202020200000000031343470696E2020E9
:10572000202020200000000031393670696E2020D2
:10573000202020200000000032353670696E2020C5
:105740002020202000000000502D666C617368202E
:105750006F6E6C790A00000010B504002100C9B218
:105760000120FCF7B6FB10BD256425642E256425B9
:10577000640000004A5441472052657365740A0072
:105780004C4C57552052657365740A00666C617302
:1057900068C6F4B6AF0A00005352414DC6F4B6AF26
:1057A0000A000000C046C046C046C046FFF77AFE69
:1057B000506F773A000000006761696E3A000000A0
:1057C00030302E30300000000A4B31302D00000008
:1057D0000A4B32302D0000000A4B33302D00000000
:1057E0000A4B34302D0000000A4B36302D000000EB
:1057F0000A4B37302D0000000A4B35302D000000D9
:085800000A4B35332D000000B6
:04000005000057A5FB
:00000001FF
