:10000000F8FF002011040000512000001B16000022
:10001000512000005120000051200000512000001C
:10002000512000005120000051200000512000000C
:100030005120000051200000191600001716000082
:10004000A5170000512000005120000051200000A1
:1000500083170000512000005120000051200000B3
:1000600051200000512000005120000051200000CC
:1000700051200000512000005120000051200000BC
:1000800051200000512000005120000051200000AC
:10009000512000005120000051200000512000009C
:1000A000512000005120000051200000512000008C
:1000B000512000005120000051200000512000007C
:1000C000512000005120000051200000512000006C
:1000D000512000005120000051200000512000005C
:1000E000512000005120000051200000512000004C
:1000F0005120000051200000512000006515000033
:10010000512000005120000051200000512000002B
:10011000512000005120000051200000512000001B
:10012000512000005120000051200000512000000B
:100130005120000051200000551700005717000003
:1001400051200000512000005120000051200000EB
:10015000AB15000087150000F716000051200000C5
:1001600051200000512000005120000051200000CB
:1001700051200000512000005120000051200000BB
:1001800051200000512000005120000051200000AB
:10019000512000005120000051200000512000009B
:1001A000D7160000C31700002916000051200000D8
:1001B000512000005120000051200000512000007B
:1001C000512000005120000051200000512000006B
:1001D000512000005120000051200000512000005B
:1001E000512000005120000051200000512000004B
:10040000FFFFFFFFFFFFFFFFFFFFFFFFFEFFFFFFFD
:1004100062B64FF000004FF000014FF000024FF0C5
:1004200000034FF000044FF000054FF000064FF0BE
:1004300000074FF000084FF000094FF0000A4FF09E
:10044000000B4FF0000C01F097FEFEE7DFF81414EC
:100450000A6842F004020A600A6822F002020A6096
:100460000822521E03060B684CBF43F0080323F01A
:1004700008030B600B6853F002030B6000BF0B68AE
:10048000400023F00203002A0B60EAD1704700000D
:10049000DFF8D0130A6822F004020A600A6822F02A
:1004A00002020A600822521E03060B684CBF43F08A
:1004B000080323F008030B600B6853F002030B6082
:1004C00000BF0B68400023F00203002A0B60EAD152
:1004D000704770B504460025A5F15000C0B2FFF783
:1004E000D7FF0120FFF7D4FF1020FFF7D1FF8026B0
:1004F0002046FFF7ABFF761EFAD16D1C082DEBDB13
:1005000070BD80B5012301220121032000F05CFDB4
:10051000012301220221032000F056FD01230122C4
:100520000321032000F050FD0123012204210320B8
:1005300000F04AFD002301220F21022000F044FDBB
:10054000DFF82403016C41F002010164016C21F029
:1005500010010164016821F400410160016841F467
:1005600000410160AE20FFF793FF0020FFF790FFEE
:100570001020FFF78DFF4020FFF78AFF8120FFF753
:1005800087FFCF20FFF784FFA120FFF781FFC8205E
:10059000FFF77EFFA620FFF77BFFA820FFF778FF7D
:1005A0003F20FFF775FFD320FFF772FF0020FFF712
:1005B0006FFFD520FFF76CFF8020FFF769FFD92080
:1005C000FFF766FFF120FFF763FFDA20FFF760FF18
:1005D0001220FFF75DFFDB20FFF75AFF4020FFF7F7
:1005E00057FF2020FFF754FF0220FFF751FF8D2017
:1005F000FFF74EFF1420FFF74BFFA420FFF748FF43
:10060000A620FFF745FFAF20FFF742FF0020FFF7CE
:1006100060FFB020FFF73CFF1020FFF739FFBDE877
:100620000240012034E72DE9F04704460D4690468C
:1006300000275AE0A0F120063606E4B2792CA4BFC8
:1006400000246D1CA5F15000C0B2FFF721FF200966
:1006500040F010094846FFF71BFF04F00F0040F080
:10066000010A5046FFF714FF0FF26C3000EB1656EC
:1006700008343078FFF7EAFE7078FFF7E7FEB078CD
:10068000FFF7E4FEF078FFF7E1FE3079FFF7DEFEDA
:100690007079FFF7DBFEB079FFF7D8FEF079FFF74E
:1006A000D5FEA5F14F00C0B2FFF7F2FE4846FFF7B6
:1006B000EFFE5046FFF7ECFE307AFFF7C7FE707A88
:1006C000FFF7C4FEB07AFFF7C1FEF07AFFF7BEFE77
:1006D000307BFFF7BBFE707BFFF7B8FEB07BFFF708
:1006E000B5FEF07BFFF7B2FE7F1CFFB218F80700E3
:1006F00001009FD1BDE8F0872DE9F44F04468846FC
:1007000000260FF2681924E0E8B2FFF7C1FE504658
:10071000FFF7BEFE5846761CFFF7BAFEF6B210256C
:100720000020FFF793FE6D1EFAD1A8F14F00C0B272
:10073000FFF7AEFE5046FFF7ABFE5846FFF7A8FEA8
:1007400010250020FFF782FE6D1EFAD1B61C0E3474
:10075000F6B20098805D00285AD000990020012749
:100760008A1900E0801CC0B219F80030802B0CDB25
:100770008D5DAB4201BF09EB00035B785578AB425E
:10078000F0D1C0EBC0004700BFB2E4B2772CA4BFE9
:10079000002408F10108A8F15005E8B2FFF778FE3F
:1007A000200940F0100A5046FFF772FE04F00F00D7
:1007B00040F0010B5846FFF76BFE012FA4D0E8B2C2
:1007C000FFF766FE5046FFF763FE5846FFF760FEF0
:1007D0000E250FF2B400C05DFFF738FE7F1C6D1EC2
:1007E000BFB2F6D1A8F14F00C0B2FFF751FE50469C
:1007F000FFF74EFE5846FFF74BFE0E250FF288001E
:10080000C05DFFF723FE7F1C6D1EBFB2F6D19DE7D2
:10081000BDE8F18FF8B504460D46164600270EE0F8
:10082000F0196A4640788DF80100294600208DF8BD
:100830000200BF1CE0B2FFF75FFF0E34FFB2F05DB5
:1008400001000ED080288DF80000E9DA00208DF834
:1008500001006A462946E0B2FFF7E5FE08347F1C36
:10086000ECE7F1BDC0F00F4080F00F40B0B2BBD557
:10087000CEDFBAFEC0B6D6E6B5E7D7D3CEAAC4FA65
:10088000B7FECEF1000000005C444444C475464409
:1008900044C444445C0020202213120A04040A09C0
:1008A0001020000088C43396D4B7945610EF08F88F
:1008B0000800003F2014263D1624201906192000A8
:1008C000042424242F24E4242F242424040021217C
:1008D00011110907011F2121212131001224800853
:1008E000C87FC808FE2222FE0000180601000F047F
:1008F00027180721213F000002E20207F28242325C
:100900002267A222020020203E22233E223E2222F3
:100910003E2120001CC444444445F644444444C49D
:100920001C00003F121212121F121212123F00007E
:1009300000F848484848FF48484848F80000000781
:10094000020202021F22222222233800404141419A
:100950004141E15149454341400000000000202051
:100960003F0000000000000010101214D03F109053
:10097000101010F0000020100806010000002320D5
:10098000100F00001008FC0388640704F40424CC52
:1009900000002018011C2020232D21300004180005
:1009A00000FE2222FE00FE42C25252DE0000201F44
:1009B00001213F003F100B040A112000404844264B
:1009C0002B9212122A2642404000002111090503F1
:1009D000010121211F0000000000000000000000B4
:1009E0000000000000000000000000F8000000000F
:1009F000000000333000000000100C06100C060050
:100A0000000000000000000040C07840C0784000B6
:100A1000043F04043F040400007088FC0830000018
:100A2000001820FF211E0000F008F000E018000070
:100A300000211C031E211E0000F008887000000029
:100A40001E2123241927211010160E00000000007B
:100A50000000000000000000000000E01804020098
:100A6000000000071820400000020418E000000009
:100A70000040201807000000404080F08040400007
:100A80000202010F01020200000000F0000000005D
:100A90000101011F01010100000000000000000031
:100AA00080B07000000000000000000000000000A6
:100AB000000101010101010100000000000000002F
:100AC00000303000000000000000000080601804CA
:100AD000006018060100000000E010080810E000A7
:100AE000000F102020100F00001010F80000000070
:100AF0000020203F202000000070080808887000B7
:100B00000030282422213000003008888848300036
:100B10000018202020110E000000C02010F8000056
:100B200000070424243F240000F8088888080800EF
:100B30000019212020110E0000E010888818000004
:100B4000000F112020110E0000380808C8380800D6
:100B50000000003F00000000007088080888700056
:100B6000001C222121221C0000E010080810E000D7
:100B70000000312222110F00000000C0C000000060
:100B80000000003030000000000000800000000085
:100B9000000080600000000000008040201008007D
:100BA0000001020408102000404040404040400046
:100BB0000404040404040400000810204080000021
:100BC0000020100804020100007048080808F00026
:100BD0000000003036010000C030C828E810E000F6
:100BE0000718272423140B000000C038E000000081
:100BF000203C23020227382008F8888888700000EB
:100C0000203F202020110E00C030080808083800BE
:100C1000071820202010080008F808080810E00035
:100C2000203F202020100F0008F88888E8081000D6
:100C3000203F20202320180008F88888E8081000AA
:100C4000203F200003000000C030080808380000E2
:100C500007182020221E020008F808000008F808E3
:100C6000203F210101213F20000808F8080800006A
:100C70000020203F2020000000000808F80808009D
:100C8000C08080807F00000008F888C02818080015
:100C9000203F20012638200008F80800000000004E
:100CA000203F20202020300008F8F800F8F8080045
:100CB000203F003F003F200008F830C00008F8083F
:100CC000203F200007183F00E01008080810E0004F
:100CD0000F10202020100F0008F808080808F00066
:100CE000203F210101010000E01008080810E00089
:100CF0000F18242438504F0008F88888888870001E
:100D0000203F2000030C30200070880808083800BD
:100D10000038202121221C00180808F808081800B3
:100D20000000203F2000000008F808000008F80834
:100D3000001F202020201F000878880000C83808E5
:100D4000000007380E010000F80800F80008F8005D
:100D5000033C0700073C03000818688080681808F7
:100D600020302C03032C30200838C800C838080075
:100D70000000203F2000000010080808C8380800C4
:100D80002038262120201800000000FE0202020068
:100D90000000007F40404000000C30C00000000018
:100DA000000000010638C00000020202FE00000040
:100DB000004040407F0000000000040202020400E6
:100DC0000000000000000000000000000000000023
:100DD000808080808080808000020204000000000B
:100DE0000000000000000000000080808080000003
:100DF0000019242222223F2008F8008080000000F1
:100E0000003F112020110E000000008080800000B3
:100E1000000E112020201100000000808088F800C2
:100E2000000E112020103F200000808080800000F4
:100E3000001F222222221300008080F08888881858
:100E40000020203F20200000000080808080800063
:100E5000006B94949493600008F8008080800000F8
:100E6000203F210000203F200080989800000000D3
:100E70000020203F20200000000000809898000003
:100E800000C08080807F000008F800008080800023
:100E9000203F24022D302000000808F80000000048
:100EA0000020203F20200000808080808080800003
:100EB000203F20003F20003F808000808080000095
:100EC000203F210000203F20000080808080000023
:100ED000001F202020201F00808000808000000054
:100EE00080FFA12020110E00000000808080800083
:100EF000000E112020A0FF80808080008080800074
:100F000020203F21200001000000808080808000A0
:100F10000033242424241900008080E08080000015
:100F20000000001F20200000808000000080800062
:100F3000001F202020103F208080800000808080C3
:100F400000010E3008060100808000800080808053
:100F50000F300C030C300F00008080008080800078
:100F60000020312E0E3120008080800000808080A3
:100F700080818E7018060100008080808080800053
:100F80000021302C2221300000000000807C020271
:100F900000000000003F404000000000FF00000093
:100FA00000000000FF0000000002027C8000000042
:100FB0000040403F0000000000060101020204045E
:100FC000000000000000000070B4154C04EB800528
:100FD00042F480766D6945F82160D50703D5032A70
:100FE00018BF132A0AD154F820004269012303FADA
:100FF00001F122EA0101416170BC704754F8200000
:10100000012202FA01F142690A434261012B02689E
:101010000CBF114322EA0101016070BC704700005F
:101020005804FF1F10B50C461168012902D002298F
:1010300004D008E05168C0B2884704E091680870A5
:101040009068401C90602068401C206010BD30B447
:10105000002400F8014B002A096812D091B191FBDD
:10106000F3F203FB1211002946BFC94301F1310518
:1010700001F130051146641C002900F8015BEED136
:1010800014E019B93021017001240FE0B1FBF3F233
:1010900003FB12110A2934BF01F1300501F13705B4
:1010A0001146641C002900F8015BEFD1204630BCDA
:1010B000704770B5884214461D4614DA0E1A286827
:1010C000012808D0022809D1A96830200870A86832
:1010D000401CA86002E06968302088472068401CF6
:1010E000761E2060EBD170BD70B5884214461D4657
:1010F00014DA0E1A2868012808D0022809D1A96834
:1011000020200870A868401CA86002E069682020C0
:1011100088472068401C761E2060EBD170BD2DE909
:10112000F04F8DB005460020934600908A4605E0BA
:101130002A466946FFF776FF0AF1010A9AF800008D
:10114000002800F0EF81252826D00A28F0D1286851
:10115000012808D0022809D1A9680D200870A868C4
:10116000401CA86002E069680D2088470098401C78
:1011700000902868012808D0022809D1A9680A200F
:101180000870A868401CA86002E069680A208847C7
:101190000098401C0090CFE7002701E047F01007BF
:1011A0001AF8010F20280ED02328F7D02B2807D0BB
:1011B0002D2802D0302809D00BE047F00107EFE7D7
:1011C00047F00207ECE747F00407E9E747F00807B4
:1011D000E6E7AAF101014FF0000805E008EB8802FC
:1011E00000EB4200A0F1300811F8010FA0F130022D
:1011F000092AF3D92E2804D111F8010F3038092813
:10120000FAD9481E82461AF8011F4C2918BF6829CE
:1012100002D06C2918BF82461AF8010F58286AD0EC
:10122000622800F00881632800F04A81642818BF12
:10123000692811D06E2800F070816F2800F0F680C8
:10124000702800F0FD80732800F04081752800F0C0
:10125000FC8078284FD06BE75BF8040B02900A23E0
:10126000012202A903A8FFF7F2FE044603A800EB3F
:1012700004090298002848BF2D2606D4B80748BFA5
:101280002B2602D4780702D52026641C00E0002615
:1012900038070CD526B12A4669463046FFF7C2FE0C
:1012A0002B466A4641462046FFF703FFF4E0F80765
:1012B0000CD42B466A4641462046FFF715FF002E08
:1012C00000F0F4802A4669463046F6E0002E00F031
:1012D000ED802868012807D0022808D1A868067088
:1012E000A868401CA86002E06968304688470098FA
:1012F000401C0090DAE05BF8040B01901023002200
:1013000001A903A8FFF7A3FE044603A800EB040904
:10131000002638072ED5F80624D52868012808D0DD
:10132000022809D1A96830200870A868401CA8606C
:1013300002E06968302088470098401C00902868C7
:10134000012808D0022809D1A96878200870A86867
:10135000401CA86002E06968782088470098401C1B
:10136000009001262B466A4641462046FFF7A1FE23
:10137000444631E0F8072FD4F80648BFA41C2B469A
:101380006A4641462046FFF7AFFEF80624D5286896
:10139000012808D0022809D1A96830200870A8685F
:1013A000401CA86002E06968302088470098401C13
:1013B00000902868012808D0022809D1A96878205F
:1013C0000870A868401CA86002E069687820884717
:1013D0000098401C00900126F80667D5002E65D1C4
:1013E0002868012808D0022809D1A968302008708F
:1013F000A868401CA86002E069683020884700980F
:10140000401C00902868012808D0022809D1A9684A
:1014100078200870A868401CA86002E069687820FD
:1014200088470098401C0090A41C3FE05BF8040B28
:10143000019008230DE05BF8040B0190022308E003
:101440005BF8040B0190102303E05BF8040B0190A0
:101450000A23002201A903A8FFF7F9FD044603A807
:1014600000EB0409380719D5444515DAA8EB040444
:101470002868012808D0022809D1A96830200870FE
:10148000A868401CA86002E069683020884700987E
:10149000401C641E0090EBD1444607E0F80705D4D9
:1014A0002B466A4641462046FFF71EFE99F800008B
:1014B00048B319F801092A466946FFF7B3FDF5E775
:1014C0005BF8040B2A466946C0B233E65BF8049B1E
:1014D000B9F1000F3FF430AE484600F039F8044649
:1014E000F8070CD42B466A4641462046FFF7FCFD20
:1014F00005E019F8010B2A466946FFF793FD99F8B4
:1015000000000028F5D1F8077FF516AE2B466A4695
:1015100041462046FFF7E8FD0EE65BF8040B009914
:10152000016009E600980DB0BDE8F08F0EB400B57B
:1015300084B00121009105AA044901910146684641
:10154000FFF7EDFD04B05DF810FB000099210000ED
:10155000002108B97047491C10F8012B002AFAD164
:101560000846704710B572B6012000F001FA044633
:101570000FF29C21012000F00BFA2146012000F01F
:10158000FFF962B610BD9448016841F001010160A5
:101590000121924801708178491CC9B2032902D106
:1015A000012200214270817070478D48016841F02E
:1015B0000101016001228B4841790270491C41718F
:1015C000C9B201EBD1725208B1EB420204BF012251
:1015D0004270854A81FB023202EBD27202EB420278
:1015E0008A1A04BF012282704A0801EB92729208A3
:1015F000B1EB820204BF0122C2704A0901EB926280
:101600009209B1EB821204BF01220271C02904BF0A
:101610000021417170477047704710B50FF20424E4
:101620002046FFF783FFFBE7704971480A68D2053F
:1016300011D50A6842F480720A600289130002D14F
:101640000122027007E00E2A05DB002202810270EF
:101650004278521C42700A68920511D50A6842F419
:1016600000720A604289130002D10122827007E0F1
:101670000E2A05DB002242818270C278521CC270A1
:101680000A68520511D50A6842F480620A608289AC
:10169000130002D10122027107E00E2A05DB0022AD
:1016A000828102714279521C42710A68120511D579
:1016B0000A6842F400620A60C1890A0002D101216D
:1016C000817170470E2905DB0021C1818171C179CB
:1016D000491CC171704747480168C90703D50168B3
:1016E00041F0010101600168490503D5016841F439
:1016F0008061016070474048016841F0010101606C
:101700003B480189027802B1491C89B29729A4BFDC
:101710000021017001818278418902B1491C89B29E
:101720009729A4BF0021817041810279818902B18A
:10173000491C89B29729A4BF002101718181827956
:10174000C18902B1491C89B29729A4BF00218171C6
:10175000C1817047704738B5284C656C00206064C3
:10176000E80707D5206820F0400020600FF2D40081
:10177000FFF7DCFEA80703D5A06820F04000A060BA
:1017800031BD10B51E4CA06940F01000A0610420CE
:1017900000F050F920681B4920F010002060012063
:1017A000087010BD80B50FF2AC00FFF7BFFE144803
:1017B000816941F001018161016841F0010101602D
:1017C00001BD1148016841F0800101600F480178B6
:1017D000491C0170704700001C710340C204FF1FC8
:1017E0000C710340BC04FF1F56555555A0C0044062
:1017F000AC04FF1FA0A004402C7103400C900340D8
:101800000C800040C504FF1F00000440C604FF1FF9
:101810000AC4E3B7A2CBCDB5C4CAFDBEDDCEAAA330
:10182000BA0000000A2A2A2A2AD3B2BCFEC9CFB7BE
:10183000C3B4EDCEF32121212A2A2A2A2A0D0A0A2D
:10184000000000000A46544D31B7A2CBCDD6D0B629
:10185000CF0A0000444D415F4348305F48616E64E9
:101860006C65720A00000000F0B4052841D8DFE87A
:1018700000F0030D17212C364D4A4FF4407353608E
:1018800013604C4AD36843F480631CE04A4A4FF427
:10189000407313605360474AD36843F4006312E017
:1018A000464A4FF4407353601360424AD36843F48E
:1018B000805308E0404A4FF44073536393633D4ABA
:1018C000D36843F40053D36013E03D4A4FF44073B0
:1018D00053641364374A136843F4806308E0384A5A
:1018E0004FF4407353601360324A136843F400634B
:1018F0001360344B024653F82240E57805F0F305B7
:10190000E570002453F82250AC70441EA441012A13
:1019100018BF002050EAD47014BF2B482B484FF456
:101920007A750068684353F822502E780901B0FB9D
:10193000F1F427043F0E06F0E00607F01F073E43D0
:101940002E70400153F822506C70B0FBF1F053F848
:101950002240A57A05F0E00500F01F002843A072A0
:1019600053F82200C17841F00C01C170F0BC7047FF
:10197000144951F8200001798906FCD5C0797047D7
:10198000104A52F8200002791206FCD5C171704746
:1019900030B40C4A06E052F8204025792D06FCD5DB
:1019A000E371491C0B781C00F5D130BC7047000076
:1019B00038900440288004400CB0044008C0044023
:1019C00020D004408804FF1FA004FF1FA804FF1FAD
:1019D0002D490860704710B504465C2CA4BF0FF277
:1019E000B800FFF7A3FD201104EBD060401103D035
:1019F000022815D00AD310BD0121A4EB401001FA32
:101A000000F0224908602249086010BD0121A4EBC2
:101A1000401001FA00F01D4948601D49486010BDA2
:101A20000121A4EB401001FA00F018498860184920
:101A3000886010BD10B504465C2CA4BF0FF2900066
:101A4000FFF774FD201104EBD060401103D0022891
:101A500011D008D310BD0121A4EB401001FA00F011
:101A60000C49086010BD0121A4EB401001FA00F000
:101A70000849486010BD0121A4EB401001FA00F0B4
:101A80000449886010BD000008ED00E080E200E03D
:101A900000E100E080E100E00A4552522120496E59
:101AA00076616C6964204952512076616C756520BD
:101AB00070617373656420746F20656E61626C651C
:101AC000206972712066756E6374696F6E210A00F9
:101AD0000A4552522120496E76616C696420495250
:101AE000512076616C756520706173736564207434
:101AF0006F2064697361626C65206972712066751C
:101B00006E6374696F6E210A00000000DFF800F058
:101B10001104FF1F70B5010000F08C8030281ED02A
:101B2000322826D0602827D0642849D06E2826D0B5
:101B3000782827D07D2828D0822829D08C282AD020
:101B400096282BD0A0282CD0AA282CD0B4282DD071
:101B5000C8282ED0E1282ED0FA282ED02FE0182128
:101B60000022574C2170002133286270A17029DABD
:101B700034E018210122F4E718211822F1E7182196
:101B80001F22EEE713211822EBE713211A22E8E7C0
:101B900013211C22E5E70E211222E2E70E21152275
:101BA000DFE70E21EFE70E211B22DAE70E211E22CE
:101BB000D7E70C21EDE70B21F9E70A21E0E76420E4
:101BC0001821E3E76528B8BF012107DB9728B8BFD4
:101BD000022103DBC928B4BF03210F21E1701A28B9
:101BE000E1782171B8BF002023DB3328B8BF012082
:101BF0001FDB4C28B8BF02201BDB6528B8BF0320C1
:101C000017DB7E28B8BF042013DB9728B8BF052058
:101C10000FDBB028B8BF06200BDBC928B8BF0720F0
:101C200007DBE228B8BF082003DBFB28B4BF09208C
:101C30000F206071224C234E6078183080B2322120
:101C400048432178491C89B290FBF1F5002070705F
:101C50001D48016841F0805101601C48017841F045
:101C60008001017098203070B079C006FCD4B07942
:101C7000C0F381000228FAD1207800F01F003071F3
:101C80000020707163792279E178A078FFF73EFF38
:101C9000607800F01F0040F040007071B07980065D
:101CA000FCD5B0794006FCD5307800F03F003070AC
:101CB000B079C0F381000328FAD1E8B270BD00BF4B
:101CC0008004FF1F004006403480044008C00740E5
:101CD0002DE9F84F72B64FF4E1310020FFF7C4FD53
:101CE0000123012210210020FFF76EF92E4C0FF284
:101CF000D40820682D4E2E4F2E4DDFF8BC90DFF813
:101D0000BCA0DFF8BCB000EB8001002000F070F850
:101D100020680FF2C0044FF47A714143012000F0B3
:101D200067F8FEF7EEFB62B69BF80000012804BFDF
:101D300000208BF800009AF80000012804BF002062
:101D40008AF8000099F80000012804BF002089F8F3
:101D500000002878012804BF002028703878012866
:101D6000E2D10020387030683168C0F3004080F064
:101D7000010060F3104131600020FEF7AAFB322021
:101D8000C046C046424600210520FEF743FD2246DC
:101D900002210520FEF73EFD0FF248020421052036
:101DA000FEF738FDC0E70000A804FF1F00F00F4059
:101DB000C304FF1FC004FF1FBE04FF1FBD04FF1F9D
:101DC000BC04FF1FB0B2BBD5CEDFBAFE2F4C414ED4
:101DD000445A4F00C0B6D6E6B5E7D7D32F4C414E94
:101DE000445A4F00CEAAC4FA2F4C414E445A4F00D9
:101DF0000C4A136843F4000313600B4A13689B08F2
:101E00009B001360FFE7094A02EB001244301160A7
:101E1000D16841F00101D160916841F00301916006
:101E2000FFF7D9BD3C8004400070034000710340BF
:101E300062B38B0708D0521E11F8013B00F8013B3A
:101E400000F024808B07F6D1830740F0208000BF8C
:101E5000103A07D330B4B1E83810103AA0E838107F
:101E6000F9D230BC530724BFB1E80810A0E808102D
:101E700044BF51F8043B40F8043BD20724BF31F87B
:101E8000022B20F8022B44BF0B7803707047083AEE
:101E900007D3B1E80810083A40F8043B40F804CBF7
:101EA000F7D25307E4E7000010B5104C10494FF487
:101EB00082522046FFF7CCFF2046FFF789FD0D49EF
:101EC0000D48421A1CBF0D48FFF7B2FF0C480D49E0
:101ED000091A18BF00F01EF80B490C48421A04D02A
:101EE000BDE810400A48FFF7A3BF10BD0000FF1F68
:101EF00000000000C41F00000C2000005804FF1F59
:101F0000A004FF1FC804FF1F7C1F0000C41F0000A7
:101F10001004FF1F002200F001B80000401810F06C
:101F2000030308D0C91A1FD3DB0748BF00F8012DEF
:101F300028BF20F8022D130030B41446154610397E
:101F400028BF20E93C00FAD8490728BF20E90C0047
:101F500048BF40F8042D890028BF20F8022D48BF53
:101F600000F8012D30BC7047C91818BF00F8012DCA
:101F7000CB0728BF00F8012D7047000070B4090698
:101F800001F0706141EA00700C4C2568266811056B
:101F900001F470010843190401F47021084346F468
:101FA0007F06074926600860002000E0401CC0B2A0
:101FB0009842FBD3256070BC704700BF00F0014021
:101FC0004480044000F00F4040F00F4080F00F408C
:101FD000C0F00F4000F10F400090044000A004400A
:101FE00000B0044000C0044000D004400B1F0000BB
:101FF0000009000000A0064000B0064000C00640F6
:1020000000D0064000A00E4000B00E4038B50E4D86
:102010000E4C286840F4785028606420FFF77AFD61
:1020200060604FF47A7111FB00F02060E968C1F341
:102030000361491CB0FBF1F0A0604FF49641BDE88C
:1020400034400120FFF710BC38800440A004FF1F7B
:10205000024801780FF20800FFF768BA04ED00E0CB
:102060000A2A2A2A2A64656661756C745F6973722C
:1020700020656E7465726564206F6E20766563748A
:102080006F722025642A2A2A2A2A0D0A0A000000D3
:1020900019E050F8041BCB0744BFA9F101035918FC
:1020A000121F0023042A41F8043BF9D25FEA827C24
:1020B0000B4604D54FF0000CA1F800C09B1CD107C3
:1020C00044BF0021197050F8042B002AE1D1704759
:1020D00080B500F007F8084801884FF6FE721140FD
:1020E000018001BD72B605484CF2205101804DF6C9
:1020F0002811018062B67047002005400E2005407F
:1021000010B5074979441831064C7C44163404E074
:102110000A68081D114488470146A142F8D110BD44
:10212000080000001400000069FFFFFF2800000005
:10213000A004FF1F000000000120C046002801D0BD
:10214000FFF7DEFF0020C046C046FFF7C1FD00F0EC
:1021500000F800F001B800000746384600F002F829
:10216000FBE7000080B5C046C046024A11001820B7
:10217000ABBEFBE72600020080B5FFF7A9FFFFF723
:1021800093FEFFF743FFFFF7A3FDFEE7C046C046FF
:10219000C046C046FFF7D0FF01460120FFF7F0BB65
:040000050000218D49
:00000001FF
