:10000000F8FF002011040000DD430000D50B0000C4
:10001000DD430000DD430000DD430000DD43000060
:10002000DD430000DD430000DD430000DD43000050
:10003000DD430000DD430000D30B0000D10B0000C6
:10004000790E0000DD430000DD430000DD430000C9
:10005000510E0000DD430000DD430000DD430000E1
:10006000DD430000DD430000DD430000DD43000010
:10007000DD430000DD430000DD430000DD43000000
:10008000DD430000DD430000DD430000DD430000F0
:10009000DD430000DD430000DD430000DD430000E0
:1000A000DD430000DD430000DD430000DD430000D0
:1000B000DD430000DD430000DD430000DD430000C0
:1000C000DD430000DD430000DD430000DD430000B0
:1000D000DD430000DD430000DD430000DD430000A0
:1000E000DD430000DD430000DD430000DD43000090
:1000F000DD430000DD430000DD430000050A000091
:10010000DD430000DD430000DD430000DD4300006F
:10011000DD430000DD430000DD430000DD4300005F
:10012000DD430000DD430000DD430000DD4300004F
:10013000DD430000DD430000F30D0000F50D00007D
:10014000DD430000DD430000DD430000DD4300002F
:100150006D0A0000290A00004D0D0000DD4300007B
:10016000DD430000DD430000DD430000DD4300000F
:10017000DD430000DD430000DD430000DD430000FF
:10018000DD430000DD430000DD430000DD430000EF
:10019000DD430000DD430000DD430000DD430000DF
:1001A000110D00009B0E0000E10B0000DD4300007C
:1001B000DD430000DD430000DD430000DD430000BF
:1001C000DD430000DD430000DD430000DD430000AF
:1001D000DD430000DD430000DD430000DD4300009F
:1001E000DD430000DD430000DD430000DD4300008F
:10040000FFFFFFFFFFFFFFFFFFFFFFFFFEFFFFFFFD
:1004100062B64FF000004FF000014FF000024FF0C5
:1004200000034FF000044FF000054FF000064FF0BE
:1004300000074FF000084FF000094FF0000A4FF09E
:10044000000B4FF0000C02F0F5FEFEE770B5040063
:100450000D0016003068012802D0022805D00AE0FD
:100460002000C0B27168884705E0B0680470B068C9
:10047000401CB060FFE72868401C286070BD2DE973
:10048000F04704005FF0000A5046A1465FF0000A02
:1004900089F800A019F10109002A1FD0D1F800A0A5
:1004A0005546002D05D15FF0300A89F800A0401CA8
:1004B00038E0002D36D095FBF3FA564603FB165A6A
:1004C0005746002F02D5FF43313700E03037350063
:1004D00089F8007019F10109401CEAE7D1F800A081
:1004E000D446BCF1000F05D15FF0300A89F800A0B6
:1004F000401C17E0BCF1000F14D0BCFBF3FAD64649
:1005000003FB1ECAD046B8F10A0F02D218F1300818
:1005100001E018F13708F44689F8008019F1010963
:10052000401CE7E7BDE8F0872DE9F04104000D002D
:1005300016001F00A046A84507DA3A003100302017
:10054000FFF784FF18F10108F5E7BDE8F0812DE918
:10055000F04104000D0016001F00A046A84507DA70
:100560003A0031002020FFF771FF18F10108F5E78C
:10057000BDE8F0812DE9F24F92B004001500002093
:100580000090129883469BF8000001900198002883
:1005900000F0F5810198252813D001980A2805D08C
:1005A000220069460198FFF751FF09E022006946E1
:1005B0000D20FFF74BFF220069460A20FFF746FF98
:1005C000DAE100208146002004900498002822D11E
:1005D0001BF1010B9BF8000020280ED0232812D01D
:1005E0002B2807D02D2802D0302809D00EE059F052
:1005F0000109EAE759F00209E7E759F00409E4E7DD
:1006000059F00809E1E759F01009DEE7BBF1010BE9
:1006100001200490D9E7002082460020049004982D
:10062000002814D11BF1010B9BF8000001900198E8
:100630003038092806D80A20019900FB0A10B0F1C9
:10064000300AECE7BBF1010B01200490E7E71BF156
:10065000010B9BF800002E2811D100200490049873
:1006600000280ED11BF1010B9BF80000303809283F
:1006700000D8F4E7BBF1010B01200490EFE7BBF1D8
:10068000010B1BF1010B9BF800004C2806D06828D9
:1006900002D06C2801D002E003E002E001E0BBF1EF
:1006A000010B1BF1010B9BF80000019001985828E9
:1006B00075D0622800F0D580632800F01D81642881
:1006C00013D0692811D06E2800F04A816F2800F0FD
:1006D000BD80702800F0D080732800F01781752845
:1006E00000F0D58078285AD041E128682D1D069069
:1006F0000A23012206A909A8FFF7C1FE070009A8DD
:10070000384406000698002803D52D2003907F1C4E
:100710000FE05FEA897003D52B2003907F1C08E06F
:100720005FEA497003D5202003907F1C01E0002080
:100730000390002005905FEA097011D50398002806
:1007400004D0220069460398FFF780FE012005903F
:1007500023006A4651463800FFF7E6FE574612E08E
:100760005FEAC9700FD423006A4651463800FFF78C
:10077000EEFE0398002804D0220069460398FFF794
:1007800065FE012005900598002807D103980028F0
:1007900004D0220069460398FFF758FE98E02868C5
:1007A0002D1D02901023002202A909A8FFF767FE61
:1007B000070009A838440600002005905FEA097088
:1007C00016D55FEAC9600BD5220069463020FFF7D5
:1007D0003DFE220069467820FFF738FE0120059093
:1007E00023006A4651463800FFF79EFE57461BE03D
:1007F0005FEAC97018D45FEAC96000D5BF1C230046
:100800006A4651463800FFF7A2FE5FEAC9600BD581
:10081000220069463020FFF719FE22006946782041
:10082000FFF714FE012005905FEAC9600DD5059819
:1008300000280AD1220069463020FFF707FE220077
:1008400069467820FFF702FEBF1C41E028682D1D95
:1008500002900823002202A909A8FFF710FE070052
:100860001FE028682D1D02900223002202A909A87A
:10087000FFF705FE070014E028682D1D02901023E5
:10088000002202A909A8FFF7FAFD070009E028687D
:100890002D1D02900A23002202A909A8FFF7EFFDEF
:1008A000070009A8384406005FEA097007D523004D
:1008B0006A4651463800FFF737FE574608E05FEAC0
:1008C000C97005D423006A4651463800FFF73FFE41
:1008D0003078002806D0220069463078FFF7B6FD50
:1008E000761EF5E75FEAC97005D523006A465146D2
:1008F0003800FFF72CFE3FE028682D1DC0B207909E
:10090000220069460798FFF7A1FD35E028682D1DF4
:100910008046B8F1000F22D0404600F062F8070090
:100920005FEAC97005D423006A4651463800FFF7D4
:100930000EFE98F80000002808D02200694698F8BA
:100940000000FFF783FD18F10108F2E75FEAC970C4
:1009500005D523006A4651463800FFF7F8FD0BE045
:1009600028682D1D089000980899086004E022006E
:1009700069460198FFF76AFD1BF1010B03E6009839
:1009800013B0BDE8F08F0EB47EB5040001200090D6
:100990000648019007A805002A0021006846FFF7D5
:1009A000E9FD060030007EBC5DF810FB9D450000AF
:1009B0000CB4FEB504000D000027002C0DD0022061
:1009C0000090029408A80600320029006846FFF74C
:1009D000D1FD07000020029908703800FEBC5DF8C8
:1009E0000CFB01000A000023002A01D1002007E0CF
:1009F0001000421C0078002801D05B1CF8E71800AA
:100A00007047000010B572B6012000F079FB0400B9
:100A1000DFF8A014012000F08DFB2100C9B20120F5
:100A200000F07BFB62B610BDDFF88C04006850F06C
:100A30000100DFF8841408600120DFF880140870DA
:100A4000DFF87C040078401CDFF874140870DFF8CD
:100A500070040078032807D10020DFF864140870C0
:100A60000120DFF8601408707047000080B572B68E
:100A7000DFF854040088401CDFF84C1408800A2377
:100A800003220921002000F0D4FC00F065FDDFF80E
:100A90003C24C2E90001DFF83404D0E9000100225F
:100AA000DFF82C3400F066FD5FF06632DFF82434A6
:100AB00000F08CFEDFF81424C2E900010A230322AF
:100AC0000A21002000F0B5FC00F046FDDFF8082404
:100AD000C2E90001DFF80004D0E900010022DFF8DC
:100AE000F03300F047FD5FF06632DFF8E83300F0E6
:100AF0006DFE0022DFF8E43300F068FEDFF8D82353
:100B0000C2E900010A2303220C21002000F091FC1D
:100B100000F022FDDFF8C823C2E90001DFF8C003BE
:100B2000D0E900010022DFF8A83300F023FD5FF0D8
:100B30006632DFF8A03300F049FE0022DFF89C3374
:100B400000F044FEDFF89823C2E90001DFF89403C7
:100B5000D0E90023DFF87403D0E9000100F008FFBA
:100B6000DFF88023C2E9000101F042F9DFF8580301
:100B7000008840F6B831884220D10020DFF84813C1
:100B80000880DFF86003D0E900010022DFF8583365
:100B900000F0F0FCDFF84C23C2E90001DFF8440369
:100BA000D0E90001DFF82423C2E9000101F086F852
:100BB00000200021DFF82C23C2E9000162B6DFF833
:100BC0002C03006850F00100DFF82013086001BD1D
:100BD0007047704780B5DFF81803FFF7D4FEFAE7D7
:100BE000002008210800DFF80C130968C140C9077C
:100BF0001ED5DFF800130968012282401143BD4A67
:100C00001160BD490988002903D10121BB4A117037
:100C10000EE0B94909880E290ADB0021B64A118085
:100C20000021B64A1170B6490978491CB44A1170BE
:100C300009210800AF490968C140C9071DD5AD4960
:100C40000968012282401143AA4A1160AD4909880E
:100C5000002903D10121AC4A11700EE0A94909888D
:100C60000E290ADB0021A74A11800021A64A117033
:100C7000A6490978491CA54A11700A2108009D4916
:100C80000968C140C9071DD59A49096801228240F7
:100C90001143984A11609E490988002903D1012116
:100CA0009C4A11700EE09A4909880E290ADB00213E
:100CB000974A11800021974A117097490978491C79
:100CC000954A11700B2108008A490968C140C9077B
:100CD0001DD588490968012282401143854A116067
:100CE0008E490988002903D101218D4A11700EE037
:100CF0008A4909880E290ADB0021884A11800021CF
:100D0000874A117087490978491C864A11707047D3
:100D100000200021080084490968C140C90706D5A0
:100D2000814909680122824011437F4A11600A21EA
:100D300008007D490968C140C90706D57A49096894
:100D4000012282401143784A116070477748006859
:100D500050F001007549086068480078002804D008
:100D600065480088401C64490880634800889728CB
:100D700005DB002060490880002060490870624857
:100D80000078002804D05F480088401C5D49088036
:100D90005C480088972805DB00205A49088000201D
:100DA000594908705B480078002804D058480088EA
:100DB000401C5749088056480088972805DB0020CA
:100DC000534908800020534908705548007800288E
:100DD00004D052480088401C504908804F48008881
:100DE000972805DB00204D49088000204C490870F9
:100DF0007047704738B54E48046800204C49086079
:100E0000002005000120A8402100C9B201420CD0F9
:100E10004848EDB250F8350030F040004549EDB299
:100E200041F835004448FFF7AEFD012005000120E0
:100E3000A8402100C9B2014209D03E48EDB250F8A5
:100E4000350030F040003B49EDB241F8350031BD8E
:100E500080B53A48006850F0100038490860042016
:100E600001F0D3F83648006830F0100034490860CB
:100E700001203449087001BD80B53348FFF783FD78
:100E80002E48006850F001002C4908602C4800688A
:100E900050F001002A49086001BD2C48006850F05C
:100EA00080002A4908602A480078401C28490870B8
:100EB00070470000F44300001C7103407C05FF1FD5
:100EC0007E05FF1F7D05FF1F7005FF1F1005FF1F1B
:100ED000E0FFEF4066660A401805FF1F0000304043
:100EE0002005FF1F2805FF1F0070A7400C7103405D
:100EF000C4410000A0C004407205FF1F7F05FF1F12
:100F00008005FF1F7405FF1F8105FF1F8205FF1F5E
:100F10007605FF1F8305FF1F8405FF1F7805FF1F50
:100F20008505FF1F8605FF1FA0A004402C7103400C
:100F3000509003400C900340BC44000024800040CB
:100F40000C8000408705FF1F08440000000004409B
:100F50008805FF1FF0B4C0B2002808D0022824D0B2
:100F600014D304283FD02FD305284BD059E04FF499
:100F70004076774F3E604FF44076764F3E60764E37
:100F8000366856F48066744F3E604AE04FF440760F
:100F9000724F3E604FF44076714F3E606E4E366841
:100FA00056F400666C4F3E603BE04FF440766D4F68
:100FB0003E604FF440766C4F3E60674E366856F4A4
:100FC0008056654F3E602CE04FF44076674F3E60A0
:100FD0004FF44076664F3E605F4E366856F40056DA
:100FE0005D4F3E601DE04FF44076624F3E604FF42F
:100FF0004076614F3E60614E366856F480665F4FC2
:101000003E600EE04FF440765D4F3E604FF4407618
:101010005C4F3E60594E366856F40066574F3E604E
:10102000FFE7594EC0B256F82060F67816F0F30686
:10103000554FC0B257F82070FE700026524FC0B214
:1010400057F82070BE70C0B2002801D1012600E020
:101050000026C0B2012801D1012700E00027F6B226
:10106000FFB23E43002E06D0484E36684FF47A77E2
:101070007E43350005E0464E36684FF47A777E436E
:1010800035000E01B5FBF6F632003F4EC0B256F801
:101090002060367816F0E0063400C2F304262643BA
:1010A000394FC0B257F820703E70374EC0B256F874
:1010B000206072706E010F01B6FBF7F692B2B6EBCC
:1010C00042163300304EC0B256F82060B67A16F0A1
:1010D000E006340013F01F0626432B4FC0B257F82A
:1010E0002070BE72284EC0B256F82060F67856F0D6
:1010F0000C06254FC0B257F82070FE70F0BC704748
:101100002149C0B251F8201009798906F8D51E4945
:10111000C0B251F82000C07970471B4AC0B252F8E3
:10112000202012791206F8D5174AC0B252F82020B2
:10113000D171704738B504000D002878002806D01A
:1011400029782000C0B2FFF7E8FF6D1CF5E731BD3C
:101150003C90044038900440348004400CB004407B
:1011600010B004400CC0044008C0044040B004402B
:1011700044B0044064D0044060D00440288004405F
:1011800024D0044020D00440A404FF1F6405FF1FA6
:101190006C05FF1F38B504000D00E4B2002C05D12A
:1011A000EDB2082D02DBEDB2132D0DDBE4B2012C04
:1011B00005D1EDB2042D02DBEDB2122D04DB2221AC
:1011C000DFF82C0300F06CFFE4B2002C02D0012CFD
:1011D0007CD0EEE0DFF81C03006850F00060DFF820
:1011E00014130860DFF81003006830F09000DFF897
:1011F000081308600020DFF800130860EDB2280033
:10120000083801280CD9801E01281AD9801E01280F
:1012100028D9801E012836D9C01E012844D953E0A0
:10122000DFF8D802006850F48060DFF8D012086060
:101230000020DFF8CC12EDB201EB850141F8200C63
:1012400043E0DFF8B802006850F40070DFF8AC1239
:1012500008600020DFF8AC12EDB201EB850141F827
:101260000C0C32E0DFF89402006850F48060DFF884
:101270008C1208600020DFF88812EDB201EB8501C6
:1012800041F8280C21E0DFF87402006850F4006097
:10129000DFF8681208600020DFF86C12EDB201EB95
:1012A000850141F8380C10E0DFF85002006850F476
:1012B0000050DFF8481208600020DFF85012EDB24D
:1012C00001EB8501C86100E073E072E0DFF84002E5
:1012D000006850F00060DFF838120860DFF818028C
:1012E000006830F41040DFF8101208600020DFF8CA
:1012F00008120860EDB22800001F03280BD9001F58
:10130000012819D9801E032827D9001F012835D9A3
:10131000C01E41D04CE0DFF8E401006850F40050FA
:10132000DFF8D81108600020DFF8E011EDB201EB22
:10133000850141F8100C3BE0DFF8C001006850F473
:101340008060DFF8B81108600020DFF8B411EDB25A
:1013500001EB850141F8200C2AE0DFF8A0010068CC
:1013600050F48060DFF8941108600020DFF89011DD
:10137000EDB201EB850141F8180C19E05F480068F7
:1013800050F480605D49086000205D49EDB201EBDA
:10139000850141F8180C0BE05848006850F40070C3
:1013A0005649086000205749EDB241F82500FFE793
:1013B000FFE731BDF8B504000D0016000027E4B2C8
:1013C000002C05D1EDB2082D02DBEDB2132D0CDBA4
:1013D000E4B2012C05D1EDB2042D02DBEDB2122DE9
:1013E00003DB8721424800F05BFE3200D2B22900C5
:1013F000C9B22000C0B200F057F84648E4B250F835
:10140000240000680006F8D54248E4B250F82400F1
:10141000006907003F48E4B250F82400006830F04B
:1014200080003C49E4B251F824100860380080B2D2
:10143000F2BD2DE9F84304000D001600994600277F
:10144000E4B2002C05D1EDB2082D02DBEDB2132D74
:101450000CDBE4B2012C05D1EDB2042D02DBEDB2C0
:10146000122D03DBBE21224800F01AFE0020804628
:1014700040464946C0B2C9B288420DD23200D2B20B
:101480002900C9B22000C0B2FFF794FF17FA80F01C
:10149000070018F10108EBE75FFA89F9B7FBF9F7E4
:1014A000380080B2BDE8F28370B504000D0016006C
:1014B00015F01F0050F0400017490872B00010F0FE
:1014C0000C0050F050001449087004201249487074
:1014D00041F234201049488045F278600E498880F6
:1014E0000D490C48E4B250F8240000F017F870BD24
:1014F000804000003C800440188004403880044054
:1015000000A004400090044000B0044000D004401B
:10151000308004404804FF1F4005FF1F0A788260A6
:101520004A78C2604A8882618A88C2618A79026286
:10153000CA794262CA6802650A7A02604A7A4260DF
:1015400070470000010040F10980F446404200F07D
:1015500005F851F000416047010000BF09D0B0FA22
:1015600080F18840C91CC1F58461090501EBD021D7
:10157000400570472DE9F04140F2FF7581EA030C08
:101580000CF0004C15EA11541DBF15EA1357AC427C
:10159000AF42E9E0BC41C1F31301C3F31303801A66
:1015A000994143F4801304D2641E400049418018DD
:1015B0005941C90241EA5051B1FBF3F603FB161140
:1015C000A2FB0675D7EBC020A94102D2761E801877
:1015D0005941C90241EA5051B1FBF3FE03FB1E1110
:1015E000A2FB0E75D7EBC020A94103D2AEF1010ECC
:1015F00080185941890241EA9051760546EA8E2EBB
:10160000B1FBF3F603FB1611A2FB0675D7EB8020A6
:10161000A94102D2761E80185941C90241EA5051AF
:101620004EEA060EB1FBF3F603FB1611A2FB06759C
:10163000D7EBC020A94102D2761E80185941C902B9
:1016400041EA5051B1FBF3F703FB1711A2FB073539
:10165000D3EBC020A94167F100070CBF004247F05F
:10166000010766F3D5274FEA1E31B80814F58064E8
:1016700014DDBD0775F1004250EB0E5051EB0451E3
:1016800011F5801F5CBF41EA0C01BDE8F0814CF010
:101690007F6141F0E0410020BDE8F081BD076D08A9
:1016A00040EA0E5041F48011D4F10104B4F1200657
:1016B0000ADAC4F120060200E04001FA06F3E14034
:1016C0001843B24015430EE0342C14DCC6F120045C
:1016D00045EA40056D0820FA06F2154321FA06F0A6
:1016E000A1400D43002175F1004250F1000051EB83
:1016F0000C01BDE8F08100205FEA0C01BDE8F0813B
:10170000CFB992185B41B3FA83F704BFB2FA82F6FD
:10171000BF190B3FB7F120062FBF02FA06F3BB40FB
:10172000C7F1200622FA06F638BF3343BA401CB18F
:10173000E419641E2FE77F4231F00041B1FA81F4D1
:1017400004BFB0FA80F6A4190B3CB4F120062FBFF9
:1017500000FA06F1A140C4F1200620FA06F638BFCF
:101760003143A0403C1B16E7AC421ABF05EA1357B1
:10177000AF4214E050EA41061CBF52EA4306BFE7FD
:1017800050EA4107304661461CBF41EA0551BDE8B9
:10179000F08152EA430C08BFC143BDE8F08100204C
:1017A0004FF4001616EB410F98BF16EB430F08BF1E
:1017B00016EB410F24BFC14305E016EB430F0CBFEE
:1017C00061464CEA0551BDE8F0810000B0B581EA00
:1017D000030C0CF0004C40F2FF7515EA11541DBFCC
:1017E00015EA1357AC42AF4239E0E41923EA4553F6
:1017F00043F48013C90241F0004141EA505EC70240
:101800001100A7FB020200284FF00000EEFB0120B0
:101810004FF00001E3FB072118BF42F0010240181E
:1018200000214941E3FB0E01A4F580640F0302D2BD
:1018300052004041494154F101046CDD470872F106
:10184000004250F1000051EB0451A1F580115CBF42
:1018500041EA0C01B0BD4CEA05510020B0BD05EADB
:101860001357AC4214BFAF4241E050EA410E1CBFD7
:1018700052EA430E02E061460020B0BD24423C44DF
:101880001BD15FEA070EF6D0090302BF0146002014
:10189000AEF1140EB1FA81F7AEEB070401FA07FEC0
:1018A0000C37C7F1200100FA07F7C8404EEA000ED6
:1018B00023EA455343F48013A2E733F00043B3FA1D
:1018C00083F704BFB2FA82FE77440B3FE41BB7F103
:1018D000200E2FBF02FA0EF3BB40C7F1200E22FAF2
:1018E0000EFE38BF43EA0E03BA40641C82E750EA9A
:1018F000410E14BF52EA430E6FF000014FF400177F
:1019000017EB430F8ABF194617EB410FB5E74CEAB7
:1019100005510020B0BDD4F10104B4F120070FDA65
:10192000C4F12007520828BF42F0010210FA07F55F
:1019300001FA07F7E1BF2A43E0403843E1400FE0F6
:10194000352C98DCC7F1200452EA400220FA07F255
:1019500018BF42F0010231FA07F0A1400A4300210A
:1019600072F1004250F1000051EB0C01B0BD0000DB
:10197000F0B44FF0004591EA030C44BF6B4000F017
:10198000A5BB00BF841A71EB030603D2001BB14153
:10199000121973414FF4001C1CEB410F34BF7CEB58
:1019A000430443E00C0DA4EB1356352E50DC45EAFE
:1019B000C323DB0A45EAC121C912B6F120050DDDBA
:1019C00063FA05F6EB4086EA0305124218BF45F0BC
:1019D0000105C01851F100010CD213E062FA06F5BE
:1019E000F2405540F3415A40B340F3405A4080180A
:1019F000594107D349085FEA30005FEA350528BF3F
:101A000045F0010501F58011420875F1004250F1E1
:101A1000000041EB0451F0BC4FF4001C1CEB410FE3
:101A200038BF70470020090D090570471CEB410FB6
:101A300010D252EA43060BD0BCEB410F05D80C0D77
:101A4000AB43661E342EB5DD02E0AB43801859412E
:101A5000F0BC7047F0BC704780B572B65FF4E131FE
:101A60000020FFF777FA012301221021002000F067
:101A7000E3FB00F057FCDFF86C0400684FF496714C
:101A800048434FF47A71B0FBF1F1002000F05EFEA4
:101A900000F073FF09210020FFF77CFB0A210020E2
:101AA000FFF778FB0C210020FFF774FB00234FF4B5
:101AB000FA620221002001F063F800234FF4FA6279
:101AC0000321002001F05CF862B600F003F800F09A
:101AD000DFFCFCE780B5002000F021FF322000F0A1
:101AE0006DFE75A20021002000F0E5FFDFF8F8038D
:101AF000D0E900230021192000F028F991A200214B
:101B0000412000F0D8FFDFF8E403D0E900230021F2
:101B10005A2000F01BF98CA20121002000F0CBFF1D
:101B2000DFF8CC03D0E900230121192000F00EF9E1
:101B3000DFF8C0230221002000F0BDFFDFF8B8036A
:101B4000D0E900230221192000F000F9DFF8AC23CE
:101B50000221412000F0AFFFDFF8A403D0E9002309
:101B600002215A2000F0F2F8DFF898230321002028
:101B700000F0A1FFDFF89003D0E900230321192032
:101B800000F0E4F8DFF884230321412000F093FF04
:101B9000DFF87C03D0E9002303215A2000F0D6F8B7
:101BA000DFF870230421002000F085FFDFF86803D0
:101BB000D0E900230421192000F0C8F8DFF85C23E5
:101BC0000421412000F077FFDFF85403D0E900231F
:101BD00004215A2000F0BAF8DFF84823052100203C
:101BE00000F069FFDFF8400300680A21B0FBF1F064
:101BF000FFF7B2FC02000B000521232000F0A6F83D
:101C0000DFF828230621002000F055FFDFF820032D
:101C100000680A21B0FBF1F0FFF79EFC02000B0008
:101C20000621232000F092F8DFF808230621462041
:101C300000F041FFDFF800030068FFF783FC0200BB
:101C40000B0006215C2000F081F801BD80B5AA4898
:101C5000D0E900230221192000F078F8A848D0E943
:101C6000002302215A2000F071F8A748D0E9002390
:101C70000321192000F06AF8A548D0E900230321C8
:101C80005A2000F063F8A448D0E900230421192069
:101C900000F05CF8A248D0E9002304215A2000F0AB
:101CA00055F8A5480068FFF74DFC02000B0006211F
:101CB0005C2000F04BF801BD55313A0080B50020A2
:101CC00000F03EFF5AA20021002000F0F4FE8648FA
:101CD000D0E900230021192000F038F819A20021D2
:101CE000412000F0E8FE8148D0E9002300215A207D
:101CF00000F02CF814A20121002000F0DCFE7C484A
:101D0000D0E900230121192000F020F8864800685E
:101D10000A21B0FBF1F0FFF71FFC02000B000521C8
:101D2000232000F013F8824800680A21B0FBF1F08C
:101D3000FFF712FC02000B000621232000F006F83A
:101D400001BD000049313A0055323A002DE9F14F0A
:101D500084B08B4614001D0002A87849062201F0C9
:101D6000B1F900265FF000085FF000095FF0000A9B
:101D700000270022724B20002900FFF727FD01F009
:101D8000DDF907004FF47A7097FBF0F0060064204D
:101D900097FBF0F00A2101FB160080460A2097FB12
:101DA000F0F0642101FB16000A2101FB18008146B6
:101DB0004FF47A7000FB1670642101FB18000A21B1
:101DC00001FB19008246CDF804A0CDF800904346EF
:101DD00032005C4902A8FEF7EBFD02AA584601005A
:101DE000C9B20498C0B200F066FE05B0BDE8F08F3D
:101DF00080B555480068012818D15448006800286B
:101E000005D14FF420720020514901F047F801201C
:101E10004E49086048480068002807D000F00AF8DA
:101E200043480068D0F57A7001F0DFF801BD00008A
:101E300055313A0038B54948D0E90001474AC2E96E
:101E400002012F48D0E90001294AD2E9002300F01D
:101E500033F9424AC2E900014048D0E900013F4A53
:101E6000D2E9022300F028F9294AD2E90023FFF73A
:101E7000ADFC04000D003948D0E900232848D0E922
:101E80000001FFF7A3FC22002B00FFF771FD344A8D
:101E9000D2E90023FFF76CFD314AC2E90001304866
:101EA000D0E9000101222B4B01F06EF904D800208B
:101EB00028492B4AC2E900012948D0E90001002243
:101EC000254B01F079F904D200202349244AC2E9C4
:101ED00000012348D0E9000101F030F914490860FD
:101EE00031BD00006C05FF1F1805FF1F1005FF1F07
:101EF0002005FF1FF44500001004FF1FFC450000F3
:101F00001804FF1F044600002004FF1F0C460000B9
:101F10003004FF1F144600002804FF1F1C46000069
:101F20003804FF1F244600009804FF1F2C460000C1
:101F30009404FF1F344600005C05FF1F3C46000070
:101F400000005940AC4500005805FF1F6005FF1F09
:101F50000088C34000B08D40000049403005FF1F9D
:101F60004004FF1F42490860704738B504005C2CEC
:101F700002DB4048FEF707FD202094FBF0F005004F
:101F8000002D03D0022D2BD015D33DE020200121C0
:101F900094FBF0F200FB124011FA00F036490860A1
:101FA0002020012194FBF0F200FB124011FA00F016
:101FB0003249086028E02020012194FBF0F200FB68
:101FC000124011FA00F02E4908602020012194FBF4
:101FD000F0F200FB124011FA00F02A49086013E009
:101FE0002020012194FBF0F200FB124011FA00F0D6
:101FF000254908602020012194FBF0F200FB1240EB
:1020000011FA00F02149086031BD38B504005C2C9C
:1020100002DB1F48FEF7B7FC202094FBF0F0050020
:10202000002D03D0022D17D00BD31FE0202001215B
:1020300094FBF0F200FB124011FA00F01549086021
:1020400014E02020012194FBF0F200FB124011FA71
:1020500000F01149086009E02020012194FBF0F212
:1020600000FB124011FA00F00C49086031BD00007D
:1020700008ED00E01440000080E200E000E100E034
:1020800084E200E004E100E088E200E008E100E032
:10209000D83F000080E100E084E100E088E100E05A
:1020A00038B504000D002A0021000248FEF76BFC41
:1020B000F9E700BFC83E0000F0B44FF0004591EAD8
:1020C000030F44BF6B40FFF75DBC00BF841A71EB88
:1020D000030604D26E40001BB141121973414FF444
:1020E000001C1CEB410F34BF7CEB430684E00C0D5D
:1020F000A4EB1356362E7DDC012E43DC45EAC323C8
:1021000043EA525312BFD20292025B08240545EA09
:10211000C12141EA5051D2EBC020994125D407D1C9
:10212000B0FA80F610FA06F164D00020203608E0FC
:10213000B1FA81F6B140C6F1200220FA02F2114351
:10214000B0404FEAF474B4EB465434F001064FEA61
:1021500074040AD8D6F50016760D04F00044F04059
:1021600061FA06F25040F1404840C00A40EA41504E
:1021700021F0004128BF5FEA500550F1000044EB18
:10218000D12137E045EAC323DB0A45EAC121C90A68
:10219000B6F120050EDD42EA0242120CC5F120061E
:1021A00003FA06F6EB4042EA06056D42984161F1FA
:1021B00000010DE062FA06F5F240554063FA06FCB4
:1021C00082EA0C02F3405A406D42904161EB0301F8
:1021D00011F4801F05D1641E620502D06D004041DC
:1021E000494121F48011430875F1004350F100008A
:1021F00041EB0451F0BC70471CEB410F15D223F0AA
:10220000004352EA43060BD04FEA4C0CBCEB410FA3
:1022100004D80C0D661E342EB7DDEBE7801A994109
:1022200050EA410608BF0021E4E708BF1CEB430F5A
:1022300028BF6FF00001DDE7F8B504000D001600BF
:102240001F00EDB2202D02D2FFB2022F03D347218F
:102250003148FFF725FF3148E4B250F82400EDB2D1
:10226000F6B256F4807140F82510F00705D5F6B2A5
:10227000032E02D0F6B2132E0DD12948E4B250F845
:10228000240040690121A94088432549E4B251F85E
:10229000241048612AE02248E4B250F82400406942
:1022A0000121A94008431E49E4B251F824104861B5
:1022B000FFB2012F0DD11A48E4B250F82400006893
:1022C0000121A94008431649E4B251F824100860DE
:1022D0000CE01348E4B250F8240000680121A94042
:1022E00088430F49E4B251F824100860F1BD38B5B5
:1022F00004000D00EDB2202D03D394210648FFF712
:10230000CFFE0748E4B250F824000069E84010F01E
:10231000010032BD000000004C4000007004FF1FAF
:102320005C04FF1F80B50123002200210420FFF779
:1023300083FF0123002201210420FFF77DFF0123F9
:10234000002202210420FFF777FF0123002203214E
:102350000420FFF771FF0023012204210420FFF76E
:102360006BFF0023012205210420FFF765FF0023F6
:10237000012206210420FFF75FFF0023012207212D
:102380000420FFF759FF0020DFF8441308700020F5
:10239000DFF8401308700020DFF83C1308700020BD
:1023A000DFF8381308600020DFF8341308700020CD
:1023B000DFF83013088001BD38B58020DFF828131E
:1023C000087000200400E4B2042C47DAF020DFF8A3
:1023D0001C130870DFF814030078DFF80C13097879
:1023E000401ADFF808130870DFF8FC020078C0B26A
:1023F0004008DFF8F4120870DFF8F4020078C0B289
:1024000010F00F000F2827DA0120DFF8E81208701B
:1024100000200500EDB2042D1EDADFF8D4020078AA
:10242000C0B2DFF8D0120978084010F00F0F0AD1BF
:10243000DFF8C402E4B2A10051FA85F1405CDFF894
:102440009812087022E0DFF8AC0200784000DFF854
:10245000A41208706D1CDDE7641CB4E700210420A1
:10246000FFF745FF0028F9D001210420FFF73FFFC7
:102470000028F3D002210420FFF739FF0028EDD017
:1024800003210420FFF733FF0028E7D031BD00000F
:1024900010B5DFF8580200780020DFF850120870FD
:1024A000DFF84C02007810F00F000400DFF824027F
:1024B000007800280ED1E4B214F00F000F2809DADA
:1024C0000120DFF8101208700F2000F08DFEFFF7DA
:1024D00073FFFBE0DFF8FC010078012840F0F58095
:1024E000E4B214F00F000F2840F0EF800020DFF876
:1024F000E41108700120DFF8D8110870DFF8D80166
:102500000078002800F0928001281FD002283BD0DC
:10251000032854D0042828D0052843D0062859D0B1
:10252000072862D0082876D0092800F08A800A2877
:1025300000F09D800C2800F0BE800D2800F0B780D0
:102540000E285DD00F2800F08780B8E0DFF8AC01DE
:10255000D0E90023DFF8A801DFF8A811FFF708FA97
:10256000DFF89821C2E90001A9E0DFF89001D0E985
:102570000023DFF88C01DFF89011FFF7F9F9DFF89D
:102580007C21C2E900019AE0DFF88001D0E9002354
:102590000020DFF87C11FFF7EBF9DFF87021C2E9CA
:1025A00000018CE0DFF86401D0E900230020DFF8AF
:1025B0006411FFF7DDF9554AC2E900017FE0564892
:1025C000D0E9002355485649FFF7D2F9524AC2E9EB
:1025D000000174E05048D0E9002350485149FFF70A
:1025E000C7F94D4AC2E9000169E04F48D0E900232C
:1025F00043484449FFF7BCF94B4AC2E900015EE099
:102600004948D0E900233E483F49FFF7B1F9464A1F
:10261000C2E9000153E04548D0E9002300203C49CD
:10262000FFF7A6F9414AC2E9000148E03F48D0E976
:10263000002300203749FFF79BF93C4AC2E900011B
:102640003DE03B48D0E9002334483549FFF790F995
:10265000374AC2E9000132E03548D0E900232F486B
:102660003049FFF785F9324AC2E9000127E000202E
:102670002749224AC2E9000100202E492A4AC2E91C
:10268000000100202C49214AC2E900015FF03330EB
:102690002A49214AC2E9000100202749234AC2E908
:1026A000000100202649224AC2E9000107E001207A
:1026B0002449086003E0012023490860FFE70B205C
:1026C00005490870FFF7C2FA00E000BF10BD000026
:1026D0008B05FF1F8905FF1F8A05FF1F5405FF1F7C
:1026E0008C05FF1F7A05FF1F8D05FF1F00F10F40AE
:1026F00010F10F408E05FF1F8404FF1F1004FF1F01
:102700009A9999999999B93F9999B9BF2004FF1F4E
:102710000000F03F0000F0BF2804FF1F7B14AE470D
:10272000E17A843FE17A84BF1804FF1F3004FF1F61
:102730003804FF1F00003D40000034403333D33FD6
:102740000000E03F5805FF1F5C05FF1F38B504007F
:102750000D001748006850F400001549086015483E
:10276000006880088000134908601348E4B2210122
:1027700045501148E4B221010844C06850F00100FE
:102780000D49E4B222011144C8600B48E4B22101B2
:102790000844806850F003000749E4B22201114464
:1027A0008860E4B214F14400FFF7DFFB31BD0000A4
:1027B0003C800440007003400071034010B480B2BC
:1027C000002801D1012318000C2310FB03F0002383
:1027D00019000B0004009BB2A4B2A3420AD200234A
:1027E0001A0092B240F237539A4201DA521CF8E7CB
:1027F000491CEEE710BC70470821DFF83823126847
:1028000052F00402DFF82C331A60DFF82823126834
:1028100032F00202DFF81C331A6000BF0A00511EBA
:10282000D2B2002A25D0020608D5DFF808231268A4
:1028300052F00802DFF8FC321A6007E0DFF8F422F9
:10284000126832F00802DFF8EC321A60DFF8E42296
:10285000126852F00202DFF8DC321A6000BFDFF8C3
:10286000D422126832F00202DFF8C8321A60400047
:10287000D4E770470821DFF8BC22126832F0040266
:10288000DFF8B0321A60DFF8AC22126832F00202D0
:10289000DFF8A0321A600A00511ED2B2002A25D0F9
:1028A000020608D5DFF88C22126852F00802DFF821
:1028B00084321A6007E0DFF87C22126832F00802E6
:1028C000DFF870321A60DFF86C22126852F00202F0
:1028D000DFF860321A6000BFDFF85822126832F069
:1028E0000202DFF850321A604000D4E7704738B572
:1028F00004000D00B5F15000C0B2FFF7BBFF20008F
:10290000C0B2000950F01000C0B2FFF7B3FF14F0DE
:102910000F0050F00100C0B2FFF7ACFF31BD70B541
:10292000040000200500EDB2082D17DAB5F15000C3
:10293000C0B2FFF79FFF0120FFF79CFF1020FFF7B9
:1029400099FF00200600F6B2802E05DA2000C0B202
:10295000FFF752FF761CF6E76D1CE4E770BD80B20E
:10296000002809D04FF47A5211000A00511E92B289
:10297000002AFAD1401EF2E7704780B501230122F8
:1029800001210320FFF758FC01230122022103202B
:10299000FFF752FC0123012203210320FFF74CFC27
:1029A0000123012204210320FFF746FC002301221A
:1029B0000F210220FFF740FCDFF87801006850F09B
:1029C0000200DFF870110860DFF86801006830F07D
:1029D0001000DFF860110860DFF85C01006830F477
:1029E0000040DFF8541108603220FFF7B8FFDFF82D
:1029F0004801006850F40040DFF83C110860AE2048
:102A0000FFF738FF0020FFF735FF1020FFF732FFF8
:102A10004020FFF72FFF8120FFF72CFFCF20FFF78B
:102A200029FFA120FFF726FFC820FFF723FFA620DC
:102A3000FFF720FFA820FFF71DFF3F20FFF71AFF39
:102A4000D320FFF717FF0020FFF714FFD520FFF773
:102A500011FF8020FFF70EFFD920FFF70BFFF120B9
:102A6000FFF708FFDA20FFF705FF1220FFF702FF4C
:102A7000DB20FFF7FFFE4020FFF7FCFE2020FFF7E2
:102A8000F9FE0220FFF7F6FE8D20FFF7F3FE14207B
:102A9000FFF7F0FEA420FFF7EDFEA620FFF7EAFE09
:102AA000AF20FFF7E7FE0020FFF739FF00210020ED
:102AB000FFF71DFF01BD2DE9F84304000D001600CE
:102AC00000275FF000085FF000095FFA89F916F847
:102AD000090000282BD05FFA89F916F80900203880
:102AE0000700E4B27F2C02DB002004006D1C2900EB
:102AF000C9B22000C0B2FFF7FAFE002080465FFA9C
:102B000088F8B8F1060F0EDA0C48FFB2062101FB77
:102B100007F108445FFA88F810F80800FFF76CFE28
:102B200018F10108EBE7A41D19F10109CDE7BDE893
:102B3000F1830000C0F00F4080F00F40A43B000084
:102B400070B5040000200500EDB2022D17DAB5F1D2
:102B50005000C0B2FFF78EFE0120FFF78BFE102061
:102B6000FFF788FE00200600F6B2802E05DA20006E
:102B7000C0B2FFF741FE761CF6E76D1CE4E770BDBE
:102B80002DE9F84F04000D0016001F00DFF8A00427
:102B900000684FF47A7148435FEA5008E4B2002CB1
:102BA0000DD0E4B2012C02D0E4B2022C02D1EDB27D
:102BB000022D04DB3A21DFF87C04FFF771FA5FEAAB
:102BC0005800B04204D23B21DFF86804FFF768FAEE
:102BD0005FEA1840B0FBF6F08146002082461FFAFB
:102BE00089F9484650FA0AF0012802DB1AF1010A75
:102BF000F5E7B6F57A7F01D21AF1010A404630FABC
:102C00000AF0B0FBF6F081461FFA89F919F10100CC
:102C100000FB07F06421B0FBF1F08346E4B2002C26
:102C200005D0022C00F0B880C0F08A80E0E0DFF828
:102C30000804006850F08070DFF8FC130860EDB203
:102C4000002D0BD0022D25D016D3042D3ED02FD32E
:102C5000062D57D048D3072D62D06FE0DFF8DC0394
:102C6000006850F40060DFF8D41308604FF480600F
:102C7000DFF8CC13086062E0DFF8C003006850F4AE
:102C80000060DFF8B81308604FF48060DFF8B41319
:102C9000086054E0DFF8A403006850F40060DFF837
:102CA0009C1308604FF48060DFF89C13086046E0D6
:102CB000DFF88803006850F40060DFF880130860D4
:102CC0004FF48060DFF88413086038E0DFF86C03AD
:102CD000006850F48050DFF8641308604FF480609F
:102CE000DFF86C1308602AE0DFF85003006850F446
:102CF0008050DFF8481308604FF48060DFF8541309
:102D000008601CE0DFF83403006850F48050DFF8FE
:102D10002C1308604FF48060DFF83C1308600EE06D
:102D2000DFF81803006850F48050DFF810130860D3
:102D30004FF48060DFF82413086000E0ACE057E057
:102D4000DFF8F402006850F00070DFF8EC12086061
:102D5000EDB2002D02D0012D0ED01BE0DFF8DC0219
:102D6000006850F40070DFF8D41208604FF440702F
:102D7000DFF8EC1208600EE0DFF8C002006850F4E3
:102D80000070DFF8B81208604FF44070DFF8D4121A
:102D9000086000E080E02BE0DFF8CC02006850F033
:102DA0008070DFF8C4120860EDB2002D02D0012D52
:102DB0000ED01BE0DFF88402006850F40070DFF8EA
:102DC0007C1208604FF44070DFF8A01208600EE03B
:102DD000DFF86802006850F40070DFF860120860E5
:102DE0004FF44070DFF88812086000E054E0FFE71D
:102DF000DFF88002E4B250F82400EDB200EBC50029
:102E0000DFF87012E4B251F82410EDB201EBC50105
:102E1000C96831F00401C160DFF85802E4B250F82B
:102E20002400EDB200EBC5002821C1605FFA8AFAE8
:102E30001AF0070050F02800DFF83812E4B251F819
:102E4000241008600020DFF82C12E4B251F824109E
:102E5000C8641FFA89F9DFF81C02E4B250F82400B4
:102E6000C0F808900020DFF80C12E4B251F82410EA
:102E7000C864DFF80002E4B250F82400EDB200EBC1
:102E8000C5001FFA8BFBC0F810B00020DFF8E4117A
:102E9000E4B251F824104860BDE8F18F2DE9F04DFF
:102EA00006000F0090464FF48060674908604FF4B9
:102EB0008060664908606048006850F080705E4934
:102EC000086009206C4908606C48006850F00400F4
:102ED0006A4908606948006850F001006749086065
:102EE0006748006840084000654908606548006818
:102EF00050F48070634908606248006850F40070C4
:102F0000604908605F48006850F400505D490860FF
:102F10005C48006850F480505A490860C1205A4902
:102F200008605A48006850F400705849086003204F
:102F3000574908605748006850F008005549086034
:102F40005448006830F00400524908605248006854
:102F500050F00800504908604F48006830F0040005
:102F60004D490860F3204D49086000204C49086035
:102F70003000390000224B4BFEF7FCFA04000D0034
:102F80000020494922002B00FEF7F4FA00F0D6F8A1
:102F900046490860454800684549086000204549A1
:102FA00008604046FEF7CEFA0022434BFEF70EFCC7
:102FB00000223D4BFEF7DEFA82468B463B48006816
:102FC000FEF7C0FA52465B46FEF700FC00F0B6F88A
:102FD0003A49086000203A4908602D48006850F0DE
:102FE00080002B490860BDE8F08D70B50600300008
:102FF000FEF7A8FA0022304BFEF7E8FB00222A4B2E
:10300000FEF7B8FA04000D0028480068FEF79AFAA7
:1030100022002B00FEF7DAFB00F090F82749086049
:103020001B48006850F080001949086070BD00001E
:103030006C05FF1FB04000003C8004403880044015
:1030400004B0044008B004400CB0044010B0044088
:1030500010C0044014C0044018C004401CC0044008
:103060002090044024900440308004402890044084
:103070002C9004405004FF1F008003405480034004
:103080008080034064800340688003408C8003405C
:10309000588003401C80034024800340608003402C
:1030A0004C800340006AE84000408F405005FF1FFD
:1030B00008800340208003400000F03F2880034048
:1030C0000480034062B38B0708D0521E11F8013B05
:1030D00000F8013B00F024808B07F6D1830740F015
:1030E000208000BF103A07D330B4B1E83810103A4E
:1030F000A0E83810F9D230BC530724BFB1E808105B
:10310000A0E8081044BF51F8043B40F8043BD20744
:1031100024BF31F8022B20F8022B44BF0B78037038
:103120007047083A07D3B1E80810083A40F8043B62
:1031300040F804CBF7D25307E4E70000F446400D13
:1031400040EAC120490006D200F00EF8004248BF14
:103150006FF00040604700F007F84FF000418842F0
:103160008CBF08464042604740F00040490DA1F541
:103170008061491C05D4D1F11F0154BFC840C0175C
:1031800070474FF0000070474FF4001C1CEB410FDC
:1031900094BF1CEB430F09E041EA030C50EA4C0CCE
:1031A00052EA0C0C03D28B4208BF8242704714BF14
:1031B00099429042704700004FF4001C1CEB410FF5
:1031C00094BF1CEB430F09E041EA030C50EA4C0C9E
:1031D00052EA0C0C03D2994208BF9042704714BFC8
:1031E0008B428242704700000E49096851F001018C
:1031F0000C4A11600D49086005210D4A11600A4909
:10320000096851F00101084A116007490968090677
:10321000FBD50549096849084900034A1160704710
:103220000000000038800440000004400800044012
:103230000400044080B500F08DFA00F0A7FA00F019
:1032400005FBDFF8E803FDF79EFBDFF8E403006809
:10325000DFF8E0134979491CB0FBF1F00090DFF88A
:10326000D0030068DFF8CC130979491CB0FBF1F3F7
:10327000DFF8BC030068DFF8BC13C978491CB0FB59
:10328000F1F2DFF8AC030168DFF8AC03FDF77BFB7C
:10329000DFF8A8030078400703D5DFF8A403FDF7A3
:1032A00072FBDFF898030078800703D5DFF89403FA
:1032B000FDF769FBDFF884030078C00703D5DFF86A
:1032C0008803FDF760FBDFF884030078000603D570
:1032D000DFF87C03FDF757FBDFF87003007840064A
:1032E00003D5DFF87003FDF74EFBDFF860030078CD
:1032F000800603D5DFF86003FDF745FBDFF84C03DC
:103300000078400703D5DFF85403FDF73CFBDFF8F6
:103310003C030078800703D5DFF84403FDF733FB57
:10332000DFF828030078C00703D5DFF83803FDF77E
:103330002AFBDFF83403FDF726FBDFF83003DFF864
:103340003013884204D0DFF82C03FDF71CFB03E0A8
:10335000DFF82403FDF717FB00F003F8FEF77CFB12
:10336000FEE780B5DFF814030068000910F00700DD
:1033700000280BD0022813D00DD3042819D014D361
:1033800006281ED019D307281FD022E0DFF8F0024C
:10339000FDF7F9FA20E0DFF8EC02FDF7F4FA1BE0A4
:1033A000DFF8E402FDF7EFFA16E0B848FDF7EBFAB4
:1033B00012E0B748FDF7E7FA0EE0B648FDF7E3FA8A
:1033C0000AE0B548FDF7DFFA06E0B448FDF7DBFA9E
:1033D00002E0B348FDF7D7FAA848006810F00F00E4
:1033E000022812D0042814D0052816D0062818D098
:1033F00007281AD008281CD009281ED00A2820D057
:103400000C2822D00E2824D027E0A648FDF7BBFACE
:1034100026E0A548FDF7B7FA22E0A448FDF7B3FA85
:103420001EE0A348FDF7AFFA1AE0A248FDF7ABFA99
:1034300016E0A148FDF7A7FA12E0A048FDF7A3FAAD
:103440000EE09F48FDF79FFA0AE09E48FDF79BFAC1
:1034500006E09D48FDF797FA02E09C48FDF793FAD5
:1034600086480068000B10F00F00002803D00228E7
:1034700009D004D30BE09648FDF785FA0AE0954899
:10348000FDF781FA06E09448FDF77DFA02E09348E3
:10349000FDF779FA00F06AF891480068000E10F024
:1034A0000F00072806D0092808D00B280AD00F28BB
:1034B0000CD00FE08B48FDF766FA0EE08A48FDF766
:1034C00062FA0AE08948FDF75EFA06E08748FDF7F0
:1034D0005AFA02E08648FDF756FA8648006800026C
:1034E00003D58548FDF74FFA1EE07D480068000FC0
:1034F000002806D0072808D009280AD00F280CD0A9
:103500000FE07E48FDF73FFA0EE07D48FDF73BFAFD
:103510000AE07C48FDF737FA06E07A48FDF733FA0F
:1035200002E07948FDF72FFA78480068000B10F0A8
:103530000F00052806D0072808D008280AD0092837
:103540000CD00FE07248FDF71EFA0EE07148FDF74F
:103550001AFA0AE07048FDF716FA06E06F48FDF720
:1035600012FA02E06E48FDF70EFA01BDF8B503202D
:103570006C49087000206C49087000206B49087085
:1035800000206B49087001206A49087080206A4950
:103590000870694800780006FBD568480078040088
:1035A000674800780500674800780600664800789C
:1035B0000700FFB20097F6B23300EDB22A00E4B282
:1035C00021006248FDF7DFF903205649087000200A
:1035D0005549087000205549087004205449087066
:1035E00001205449087080205349087052480078DF
:1035F0000006FBD5514800780400514800780500CA
:10360000504800780600504800780700FFB2009745
:10361000F6B23300EDB22A00E4B221004C48FDF7C7
:10362000B2F9FF2044490870F1BD0000E4410000F8
:103630006805FF1F9C04FF1F103F000000E00740CB
:10364000CC44000084420000B845000001E007407F
:10365000DC4400001C4400001C4300003443000014
:10366000A0420000C4450000044200000000FF1F0B
:1036700000000000D0450000DC450000248004402C
:10368000444600004C460000544600005C460000E2
:10369000644600006C460000744600007C46000052
:1036A0003C410000EC440000FC4400000C450000DC
:1036B0001C4500002C4500003C4500004C45000026
:1036C0005C4500006C4500007C4500001041000096
:1036D000304400004444000058440000583F0000BB
:1036E0004C8004404C430000644300007C430000D5
:1036F00024420000508004408C45000094430000A8
:10370000AC430000C4430000444200000070044089
:103710006C4400008044000094440000A844000071
:10372000BC420000070002400600024005000240C3
:10373000040002400F000240000002400B00024063
:103740000A000240090002400800024064410000F3
:103750006442000080B500F009F80A4800884FF67E
:10376000FE7108400749088001BD000072B64CF2A6
:103770002050054908804DF628100349088062B69C
:1037800070470000002005400E2005402DE9F84359
:103790002448254988420DD000208046B8F5826F24
:1037A00008D2214850F828001E4941F8280018F195
:1037B0000108F3E71B48FEF7D5FB1C4807001C482F
:1037C00006001C480400A01B80464046B0F10108DA
:1037D000002804D030783870761C7F1CF5E7164836
:1037E000814616480500B5EB090080464046B0F119
:1037F0000108002805D0002089F8000019F101090E
:10380000F4E70F480F49104A531A98464346B3F15C
:103810000108002B04D00B780370491C401CF5E70D
:10382000BDE8F1830000FF1F000000001004FF1F2F
:10383000CC3D0000783E00001005FF1F9005FF1FE3
:10384000BC04FF1F783E0000C83E000080B5114850
:10385000006850F478500F490860642000F028F8A0
:103860000D4908600C4800684FF47A7148430B49D1
:1038700008600A4800680A490968C1F30361491CE5
:10388000B0FBF1F0074908604FF496410120FDF7C5
:1038900061FB01BD388004406805FF1F6405FF1F00
:1038A000448004406C05FF1FDFF800F0BD04FF1FDB
:1038B00038B50400E4B2002C00F00681E4B2200028
:1038C00030281ED0322823D0602828D064282DD05C
:1038D0006E2832D0782837D07D283CD0822841D03D
:1038E0008C2846D096284BD0A02850D0AA2855D056
:1038F000B4285AD0C8285FD0E12864D0FA2869D00B
:103900006FE018209F49087000209E4948706CE0C5
:1039100018209C49087001209A49487065E01820D9
:10392000984908701820974948705EE0182095491A
:1039300008701A209349487057E018209149087080
:103940001F209049487050E013208E4908701820BD
:103950008C49487049E013208A4908701A20894927
:10396000487042E01320874908701C208549487040
:103970003BE00E208349087012208249487034E0F1
:103980000E208049087015207E4948702DE00E20D9
:103990007C49087018207B49487026E00E20794940
:1039A00008701B20774948701FE00E207549087089
:1039B0001E207449487018E00C20724908701C20C1
:1039C0007049487011E00B206E4908701E206D4947
:1039D00048700AE00A206B4908701F206949487046
:1039E00003E06420FFF764FFCAE0002065498870A7
:1039F000E4B2332C03DA00206249C87017E0E4B265
:103A0000652C03DA01205F49C87010E0E4B2972CFE
:103A100003DA02205B49C87009E0E4B2C92C03DA7A
:103A200003205849C87002E00F205649C870554815
:103A3000C07854490871E4B21A2C03DA00205149C5
:103A4000487141E0E4B2332C03DA01204D4948715A
:103A50003AE0E4B24C2C03DA02204A49487133E0E0
:103A6000E4B2652C03DA0320464948712CE0E4B245
:103A70007E2C03DA04204349487125E0E4B2972CF8
:103A800003DA05203F4948711EE0E4B2B02C03DAA6
:103A900006203C49487117E0E4B2C92C03DA07203C
:103AA0003849487110E0E4B2E22C03DA08203549C5
:103AB000487109E0E4B2FB2C03DA0920314948716E
:103AC00002E00F202F4948712E484078183080B20C
:103AD000322148432B490978491C89B290FBF1F007
:103AE00005000020284908702848006850F08050E0
:103AF000264908602648007850F080002449087064
:103B000098202449087024480078C006FBD4224835
:103B10000078C0F38100C0B20228F8D119480078BB
:103B200010F01F001D49087000201D49087015483D
:103B30004379144802791348C17812488078FFF716
:103B4000B3FE1048407810F01F0050F040001449B8
:103B50000870114800788006FBD50F4800784006B1
:103B6000FBD50C48007810F03F000A4908700A485D
:103B70000078C0F38100C0B20328F8D12800C0B299
:103B800032BD00BF9C04FF1F01400640348004404A
:103B900008C007400040064006400640044006407A
:103BA000054006400000000000000000002F00005B
:103BB00000000700070000147F147F1400242A7FF0
:103BC0002A1200626408132300364955225000006F
:103BD0000503000000001C224100000041221C00DF
:103BE0000014083E08140008083E0808000000A061
:103BF000600000080808080800006060000000205D
:103C000010080402003E5149453E0000427F40003A
:103C1000004261514946002141454B3100181412C0
:103C20007F10002745454539003C4A49493000018D
:103C30007109050300364949493600064949291EDC
:103C4000000036360000000056360000000814223E
:103C5000410000141414141400004122140800023E
:103C60000151090600324959513E007C1211127C63
:103C7000007F49494936003E41414122007F414190
:103C8000221C007F49494941007F09090901003E82
:103C90004149497A007F0808087F0000417F4100C0
:103CA000002040413F01007F08142241007F404036
:103CB0004040007F020C027F007F0408107F003E1E
:103CC0004141413E007F09090906003E4151215E04
:103CD000007F091929460046494949310001017F01
:103CE0000101003F4040403F001F2040201F003F97
:103CF0004038403F00631408146300070870080749
:103D000000615149454300007F41410000552A555B
:103D10002A55000041417F000004020102040040D6
:103D200040404040000001020400002054545478F8
:103D3000007F484444380038444444200038444418
:103D4000487F00385454541800087E0901020018B6
:103D5000A4A4A47C007F080404780000447D4000F3
:103D6000004080847D00007F102844000000417FD7
:103D70004000007C04180478007C080404780038B3
:103D80004444443800FC242424180018242418FC3B
:103D9000007C0804040800485454542000043F44A4
:103DA0004020003C4040207C001C2040201C003C67
:103DB0004030403C004428102844001CA0A0A07CB7
:103DC000004464544C4414141414141400000000EF
:103DD0000000E03F0000000000003D400000000047
:103DE00000003440333333333333D33F000000001B
:103DF00000003440000000000000E03F0000000030
:103E00000000844000B0034000B00B40008003403D
:103E10000090034000800B4000F00F4040F00F4046
:103E200080F00F40C0F00F4000F10F4000900440C0
:103E300000A0044000B0044000C0044000D0044092
:103E40000102030A0405060B0708090C0E000F0DFA
:103E500080020000800200000B1F0000000900002B
:103E600000A0064000B0064000C0064000D006405A
:103E700000A00E4000B00E40F0B4114E3668340081
:103E80000F4E366856F47F060D4F3E600E0616F054
:103E9000706656EA0076170517F470073E431F0454
:103EA00017F470273E43074F3E6000263500EDB201
:103EB0009D4201D26D1CFAE7014E3460F0BC7047A0
:103EC00000F0014044800440B6CFD1D4B7A2C9FA73
:103ED000D4DA2573CEC4BCFEB5C4B5DA2564D0D01F
:103EE000A3A10AB6CFD1D4CCF5BCFEB2BBB3C9C135
:103EF000A2A3ACC7EBBCECB2E2B4EDCEF3D4ADD22E
:103F0000F2A1A309A1AAA1AA206279200A0A0000AD
:103F1000C4DABACBC6B5C2CAA3BA25644D487A0979
:103F2000D7DCCFDFC6B5C2CA20A3BA25644D487A14
:103F30000A666C6578C6B5C2CAA3BA25644D487ACC
:103F40002009666C617368C6B5C2CAA3BA25644D00
:103F5000487A0A0A000000000A54686973207665EE
:103F60007273696F6E206F6620736F66747761720B
:103F70006520646F65736E2774207265636F676E6A
:103F8000697A6520746865207265766973696F6EF9
:103F900020636F64652E000019E050F8041BCB0706
:103FA00044BFA9F101035918121F0023042A41F844
:103FB000043BF9D25FEA827C0B4604D54FF0000C3B
:103FC000A1F800C09B1CD10744BF0021197050F814
:103FD000042B002AE1D170470A4552522120496E34
:103FE00076616C6964204952512076616C75652058
:103FF00070617373656420746F2064697361626CAF
:1040000065206972712066756E6374696F6E210A2E
:10401000000000000A4552522120496E76616C6909
:1040200064204952512076616C756520706173730C
:10403000656420746F20656E61626C6520697271C1
:104040002066756E6374696F6E210A00453A5C499B
:10405000415250726F6A5C6C616E647A6F4B36309D
:104060004F4C45445C7372635C647269766572732D
:104070005C6770696F5C6770696F2E630000000099
:10408000453A5C49415250726F6A5C6C616E647A69
:104090006F4B36304F4C45445C7372635C6472699D
:1040A000766572735C6164635C6164632E630000B7
:1040B000453A5C49415250726F6A5C6C616E647A39
:1040C0006F4B36304F4C45445C7372635C6472696D
:1040D000766572735C46544D5C46544D2E63000009
:1040E0000A2A2A2A2A64656661756C745F6973728C
:1040F00020656E7465726564206F6E2076656374EA
:104100006F722025642A2A2A2A2A0D0A0A00000032
:104110000A556E7265636F676E697A6564204B69D4
:104120006E65746973207061636B61676520636F8E
:1041300064652E2020202020200000000A556E7289
:1041400065636F676E697A6564204B696E65746933
:10415000732066616D696C79206465766963652E8C
:104160000A000000466C61736820706172616D65C1
:104170007465722076657273696F6E2025642E25D2
:10418000642E25642E25640A0000000010B507493E
:1041900079441831064C7C44163404E00A68081D42
:1041A000114488470146A142F8D110BD0800000023
:1041B00014000000E5FDFFFF800000001005FF1F58
:1041C000000000000A2A2A2A2AD3B2BCFEC9CFB7AF
:1041D000C3B4EDCEF32121212A2A2A2A2A0D0A0A64
:1041E000000000000A0A0909C0B6D6E66B696E65D0
:1041F000746973BACBD0C4B0E5B2E2CAD4B3CCD040
:10420000F20A00000AC0B6D6E64B696E657469739F
:10421000BFAAB7A2B0E5C6F4B6AFB7BDCABDA3BAD0
:1042200000000000455252212120556E64656669E8
:104230006E656420502D666C6173682073697A65C1
:104240000A000000455252212120556E64656669BE
:104250006E656420466C65784E564D2073697A65AC
:104260000A000000466C6173682076657273696F9E
:104270006E2049442025642E25642E25642E256455
:104280000A000000436F7265204C6F636B757020ED
:104290004576656E742052657365740A00000000EF
:1042A0004C6F772D766F6C7461676520446574651B
:1042B00063742052657365740A00000045525221F0
:1042C0002120556E646566696E65642052414D20FB
:1042D00073697A650A0A000000F00BF8002801D023
:1042E000FFF754FF0020C046C046FDF7B5FB00F0C5
:1042F00002F80120704700F001B800000746384678
:1043000000F002F8FBE7000080B5C046C046024A54
:1043100011001820ABBEFBE7260002005761746352
:1043200068646F6728434F50292052657365740A8B
:10433000000000004C6F7373206F6620436C6F6346
:104340006B2052657365740A00000000313238201A
:104350006B4279746573206F6620502D666C6173B3
:1043600068090000323536206B4279746573206F1E
:104370006620502D666C617368090000353132206B
:104380006B4279746573206F6620502D666C617383
:104390006809000030206B4279746573206F6620D5
:1043A000466C65784E564D0A0000000031323820C8
:1043B0006B4279746573206F6620466C65784E5643
:1043C0004D0A0000323536206B4279746573206FD8
:1043D0006620466C65784E564D0A000080B503484D
:1043E0000178C9B20248FCF7CEFA01BD04ED00E045
:1043F000E04000000AC4E3B7A2CBCDB5C4CAFDBEFD
:10440000DDCEAAA3BA000000444D415F4348305FAF
:1044100048616E646C65720A00000000457874653E
:10442000726E616C2050696E2052657365740A006B
:1044300053696C69636F6E2072657620312E30206F
:1044400020200A0053696C69636F6E2072657620C4
:10445000312E3120200A000053696C69636F6E2091
:1044600072657620312E3220200A00003332206B14
:104470004279746573206F662052414D0A0A00002C
:104480003634206B4279746573206F662052414D3B
:104490000A0A00003936206B4279746573206F6612
:1044A0002052414D0A0A0000313238206B427974A3
:1044B0006573206F662052414D0A0A000A46544D2A
:1044C00031B7A2CBCDD6D0B6CF0A0000536F6674F9
:1044D000776172652052657365740A00506F776565
:1044E000722D6F6E2052657365740A0033327069E5
:1044F0006E20202020202020000000003438706929
:104500006E2020202020202000000000363470691A
:104510006E2020202020202000000000383070690C
:104520006E202020202020200000000038317069FB
:104530006E2020202020202000000000313030702C
:10454000696E2020202020200000000031303470CF
:10455000696E2020202020200000000031343470BB
:10456000696E2020202020200000000031393670A4
:10457000696E202020202020000000003235367097
:10458000696E20202020202000000000502D666C45
:10459000617368206F6E6C790A00000010B504002A
:1045A0002100C9B20120FCF7B8FD10BD25642564C7
:1045B0002E256425640000004A544147205265734B
:1045C00065740A004C4C57552052657365740A0097
:1045D000666C617368C6F4B6AF0A00005352414D71
:1045E000C6F4B6AF0A000000C046C046C046C0468A
:1045F000FFF772FE4931303A000000005532303A80
:1046000000000000505F693A00000000505F753AFA
:1046100000000000495F693A00000000495F753AF8
:104620000000000050574D5F493A000050574D5F61
:10463000553A00004D6F643A0000000030302E30D3
:10464000300000000A4B31302D0000000A4B3230A0
:104650002D0000000A4B33302D0000000A4B34308F
:104660002D0000000A4B36302D0000000A4B373079
:104670002D0000000A4B35302D0000000A4B353369
:044680002D00000009
:04000005000045E9C9
:00000001FF
