:10000000F8FF002011040000894500005530000071
:1000100089450000894500008945000089450000A8
:100020008945000089450000894500008945000098
:100030008945000089450000533000005130000020
:10004000F93200008945000089450000894500001B
:10005000D132000089450000894500008945000033
:100060008945000089450000894500008945000058
:100070008945000089450000894500008945000048
:100080008945000089450000894500008945000038
:100090008945000089450000894500008945000028
:1000A0008945000089450000894500008945000018
:1000B0008945000089450000894500008945000008
:1000C00089450000894500008945000089450000F8
:1000D00089450000894500008945000089450000E8
:1000E00089450000894500008945000089450000D8
:1000F0008945000089450000894500004D2E00001B
:1001000089450000894500008945000089450000B7
:1001100089450000894500008945000089450000A7
:100120008945000089450000894500008945000097
:1001300089450000894500007332000075320000D7
:100140008945000089450000894500008945000077
:10015000B12E0000712E0000CD3100008945000055
:100160008945000089450000894500008945000057
:100170008945000089450000894500008945000047
:100180008945000089450000894500008945000037
:100190008945000089450000894500008945000027
:1001A000913100001B3300006130000089450000E0
:1001B0008945000089450000894500008945000007
:1001C00089450000894500008945000089450000F7
:1001D00089450000894500008945000089450000E7
:1001E00089450000894500008945000089450000D7
:10040000FFFFFFFFFFFFFFFFFFFFFFFFFEFFFFFFFD
:1004100062B64FF000004FF000014FF000024FF0C5
:1004200000034FF000044FF000054FF000064FF0BE
:1004300000074FF000084FF000094FF0000A4FF09E
:10044000000B4FF0000C02F0C7FFFEE780B572B65C
:100450005FF4E131002000F0F3FA012301221021C2
:10046000002000F00DFC00F081FCDFF8480500687A
:100470004FF4967148434FF47A71B0FBF1F10020CC
:1004800000F090FE00F0A5FF0921002001F0A4F883
:100490000A21002001F0A0F80C21002001F09CF8B6
:1004A000002344F620620221002001F06DFA0023AF
:1004B00044F620620321002001F066FA62B600F0E3
:1004C00003F800F009FDFCE780B5002000F053FFC1
:1004D000322000F09FFE73A20021002001F017F8E7
:1004E000DFF8D404D0E900230021192000F02EF910
:1004F00094A20021412001F00AF8DFF8C004D0E9FD
:10050000002300215A2000F021F98FA201210020B0
:1005100000F0FDFFDFF8A804D0E900230121192035
:1005200000F014F9DFF89C240221002000F0EFFF16
:10053000DFF89404D0E900230221192000F006F925
:10054000DFF888240221412000F0E1FFDFF8800479
:10055000D0E9002302215A2000F0F8F8DFF87424D3
:100560000321002000F0D3FFDFF86C04D0E9002362
:100570000321192000F0EAF8DFF86024032141206C
:1005800000F0C5FFDFF85804D0E9002303215A200A
:1005900000F0DCF8DFF84C240421002000F0B7FF65
:1005A000DFF84404D0E900230421192000F0CEF83C
:1005B000DFF838240421412000F0A9FFDFF83004DF
:1005C000D0E9002304215A2000F0C0F8DFF82424E9
:1005D0000521002000F09BFFDFF81C0400680A21C1
:1005E000B0FBF1F001F0B4FC02000B000521232068
:1005F00000F0ACF8DFF804240621002000F087FFAB
:10060000DFF8FC0300680A21B0FBF1F001F0A0FC68
:1006100002000B000621232000F098F8DFF8E42305
:100620000621462000F073FFDFF8DC03006801F0CC
:1006300085FC02000B0006215C2000F087F801BD5C
:1006400080B5DFF88403D0E900230221192000F0EF
:100650007DF8DFF87C03D0E9002302215A2000F066
:1006600075F8DFF87403D0E900230321192000F0A6
:100670006DF8DFF86C03D0E9002303215A2000F065
:1006800065F8DFF86403D0E900230421192000F0A5
:100690005DF8DFF85C03D0E9002304215A2000F064
:1006A00055F801BD55313A0080B5002000F074FFC7
:1006B00093A20021002000F02AFFBF48D0E90023C8
:1006C0000021192000F042F81EA20021412000F074
:1006D0001EFFBA48D0E9002300215A2000F036F866
:1006E00019A20121002000F012FFB548D0E9002333
:1006F0000121192000F02AF8BF4800680A21B0FB48
:10070000F1F001F025FC02000B000521232000F090
:100710001DF8BB4800680A21B0FBF1F001F018FC9D
:1007200002000B000621232000F010F8B6480068F4
:1007300001F004FC02000B0006215C2000F006F82A
:1007400001BD000049313A0055323A002DE9F14F20
:1007500084B08B4614001D0002A8AC49062201F0AB
:1007600005FC00265FF000085FF000095FF0000A5A
:1007700000270022A64B2000290001F033FC01F0E5
:1007800003FD07004FF47A7097FBF0F00600642039
:1007900097FBF0F00A2101FB160080460A2097FB28
:1007A000F0F0642101FB16000A2101FB18008146CC
:1007B0004FF47A7000FB1670642101FB18000A21C7
:1007C00001FB19008246CDF804A0CDF80090434605
:1007D0003200904902A801F0AFFF02AA584601007A
:1007E000C9B20498C0B200F092FE05B0BDE8F08F27
:1007F00080B589480068012829D188480068002808
:100800000FD14FF420720020854901F084FA0020B6
:100810008449854AC2E9000100208249834AC2E92D
:10082000000101207D49086077480068002806D152
:1008300000F00EF87048006801F014FB07E000F0CB
:1008400061F86F480068D0F57A7001F00BFB01BDCC
:1008500038B57748D0E90001754AC2E902015A4823
:10086000D0E90001554AD2E9002301F07FFF704A28
:10087000C2E900016E48D0E900016D4AD2E90223C5
:1008800001F074FF544AD2E9002301F0ABFB0400ED
:100890000D006748D0E900235348D0E9000101F07A
:1008A000A1FB22002B0002F021F85F4AD2E90023CD
:1008B00002F01CF85C4AC2E900015B48D0E9000183
:1008C00001225C4B02F086F804D800205949564AB0
:1008D000C2E900015448D0E900010022564B02F061
:1008E00091F804D2002054494F4AC2E900014E4811
:1008F000D0E9000101F048FC3F49086031BD00002B
:1009000055313A0038B54D48D0E900014B4AC2E9AB
:1009100002012F48D0E90001294AD2E9002301F061
:1009200025FF464AC2E900014448D0E90001434A94
:10093000D2E9022301F01AFF294AD2E9002301F08B
:1009400051FB04000D003D48D0E900232848D0E9C0
:10095000000101F047FB22002B0001F0C7FF334AE2
:10096000D2E9002301F0C2FF304AC2E900012F485A
:10097000D0E9000101222F4B02F02CF804D800200E
:100980002C492A4AC2E900012848D0E90001002286
:10099000294B02F037F804D200202749234AC2E944
:1009A00000012248D0E9000101F0EEFB1449086083
:1009B00031BD00008C05FF1F2005FF1F1805FF1F1C
:1009C0002805FF1FA04700001004FF1FA8470000D4
:1009D0001804FF1FB04700002004FF1FB8470000A5
:1009E0003004FF1FC04700002804FF1FC847000055
:1009F0003804FF1FD0470000A004FF1FD8470000A5
:100A00009C04FF1FE04700007C05FF1FE847000033
:100A100000005940584700007805FF1F8005FF1F60
:100A20000088D340000084404804FF1F4004FF1F9B
:100A30004805FF1F00B08D40000049403805FF1FEA
:100A4000F0B4C0B2002808D0022824D014D304285F
:100A50003FD02FD305284BD059E04FF44076774F45
:100A60003E604FF44076764F3E60764E366856F4E0
:100A70008066744F3E604AE04FF44076724F3E60AD
:100A80004FF44076714F3E606E4E366856F4006605
:100A90006C4F3E603BE04FF440766D4F3E604FF44C
:100AA00040766C4F3E60674E366856F48056654F10
:100AB0003E602CE04FF44076674F3E604FF4407646
:100AC000664F3E605F4E366856F400565D4F3E609E
:100AD0001DE04FF44076624F3E604FF44076614F28
:100AE0003E60614E366856F480665F4F3E600EE0B1
:100AF0004FF440765D4F3E604FF440765C4F3E6071
:100B0000594E366856F40066574F3E60FFE7594E1F
:100B1000C0B256F82060F67816F0F306554FC0B212
:100B200057F82070FE700026524FC0B257F8207060
:100B3000BE70C0B2002801D1012600E00026C0B27C
:100B4000012801D1012700E00027F6B2FFB23E43A1
:100B5000002E06D0484E36684FF47A777E43350033
:100B600005E0464E36684FF47A777E4335000E0135
:100B7000B5FBF6F632003F4EC0B256F8206036782C
:100B800016F0E0063400C2F304262643394FC0B203
:100B900057F820703E70374EC0B256F82060727021
:100BA0006E010F01B6FBF7F692B2B6EB42163300B8
:100BB000304EC0B256F82060B67A16F0E006340027
:100BC00013F01F0626432B4FC0B257F82070BE7299
:100BD000284EC0B256F82060F67856F00C06254F25
:100BE000C0B257F82070FE70F0BC70472149C0B207
:100BF00051F8201009798906F8D51E49C0B251F87C
:100C00002000C07970471B4AC0B252F820201279E8
:100C10001206F8D5174AC0B252F82020D171704799
:100C200038B504000D002878002806D02978200067
:100C3000C0B2FFF7E8FF6D1CF5E731BD3C90044002
:100C400038900440348004400CB0044010B004409C
:100C50000CC0044008C0044040B0044044B004400C
:100C600064D0044060D004402880044024D0044074
:100C700020D00440AC04FF1F8405FF1F8C05FF1F1C
:100C8000F8B504000D0016001F00EDB2202D02D2B1
:100C9000FFB2022F03D34721314801F0CBFE314888
:100CA000E4B250F82400EDB2F6B256F4807140F888
:100CB0002510F00705D5F6B2032E02D0F6B2132E9A
:100CC0000DD12948E4B250F8240040690121A9401F
:100CD00088432549E4B251F8241048612AE02248AB
:100CE000E4B250F8240040690121A94008431E499C
:100CF000E4B251F824104861FFB2012F0DD11A4817
:100D0000E4B250F8240000680121A94008431649C4
:100D1000E4B251F8241008600CE01348E4B250F833
:100D2000240000680121A94088430F49E4B251F82A
:100D300024100860F1BD38B504000D00EDB2202D7F
:100D400003D39421064801F075FE0748E4B250F839
:100D500024000069E84010F0010032BD00000000EE
:100D6000F84100007804FF1F6404FF1F80B50123D1
:100D7000002200210420FFF783FF0123002201212C
:100D80000420FFF77DFF0123002202210420FFF74A
:100D900077FF0123002203210420FFF771FF0023C6
:100DA000012204210420FFF76BFF0023012205210B
:100DB0000420FFF765FF0023012206210420FFF72E
:100DC0005FFF0023012207210420FFF759FF0020C5
:100DD000DFF8501308700020DFF84C130870002073
:100DE000DFF8481308700020DFF844130860002083
:100DF000DFF8401308700020DFF83C13088001BDC5
:100E000038B58020DFF83413087000200400E4B205
:100E1000042C47DAF020DFF828130870DFF82003ED
:100E20000078DFF818130978401ADFF814130870F7
:100E3000DFF808030078C0B24008DFF8001308703C
:100E4000DFF800030078C0B210F00F000F2827DA97
:100E50000120DFF8F412087000200500EDB2042D27
:100E60001EDADFF8E0020078C0B2DFF8DC120978A1
:100E7000084010F00F0F0AD1DFF8D002E4B2A10051
:100E800051FA85F1405CDFF8A412087022E0DFF827
:100E9000B80200784000DFF8B01208706D1CDDE782
:100EA000641CB4E700210420FFF745FF0028F9D0B7
:100EB00001210420FFF73FFF0028F3D00221042086
:100EC000FFF739FF0028EDD003210420FFF733FF9F
:100ED0000028E7D031BD000010B5DFF864020078CB
:100EE0000020DFF85C120870DFF85802007810F07C
:100EF0000F000400DFF83002007800280ED1E4B2C1
:100F000014F00F000F2809DA0120DFF81C12087016
:100F10000F2001F09BFDFFF773FF02E1DFF80802ED
:100F20000078012840F0FC80E4B214F00F000F2894
:100F300040F0F6800020DFF8F01108700120DFF8A3
:100F4000E4110870DFF8E4010078002800F09280D6
:100F5000022839D01AD3042827D051D306285DD0CF
:100F600040D308287BD064D30A2800F0A480C0F0C6
:100F70008C800C2800F0C680C0F0C8800E2863D09A
:100F8000C0F0B9800F2800F08B80C3E0DFF8C0010B
:100F9000D0E90023DFF8BC01DFF8BC1101F0A6FCAA
:100FA000DFF8AC21C2E90001B4E0DFF8A401D0E928
:100FB0000023DFF8A001DFF8A41101F097FCDFF8AF
:100FC0009021C2E90001A5E0DFF89401D0E90023F7
:100FD0000020DFF8901101F089FCDFF88421C2E9DC
:100FE000000197E0DFF87801D0E900230020DFF866
:100FF000781101F07BFCDFF86821C2E9000189E08B
:10100000DFF86801D0E90023DFF86401DFF864113C
:1010100001F06CFC554AC2E900017BE05348D0E97D
:1010200000235348544901F061FC504AC2E90001D1
:1010300070E05248D0E900234648474901F056FC89
:101040004E4AC2E9000165E04C48D0E9002341481E
:10105000424901F04BFC494AC2E900015AE04848C4
:10106000D0E9002300203F4901F040FC444AC2E996
:1010700000014FE04248D0E9002300203A4901F046
:1010800035FC3F4AC2E9000144E03E48D0E9002374
:101090003748384901F02AFC3A4AC2E9000139E0F0
:1010A0003848D0E900233248334901F01FFC354A63
:1010B000C2E900012EE000202A49254AC2E90001C8
:1010C000002031492D4AC2E9000100202F49244A5D
:1010D000C2E900015FF033302D49244AC2E9000122
:1010E00000202A49264AC2E9000100202949254A50
:1010F000C2E900010EE001202749086000202749CD
:10110000086007E001202649086003E00120234928
:101110000860FFE70B2005490870FFF791FA00E02F
:1011200000BF10BDA805FF1FA605FF1FA705FF1FD5
:101130007005FF1FA905FF1F9A05FF1FAA05FF1FC6
:1011400000F10F4010F10F40AB05FF1F8C04FF1F93
:101150001004FF1F9A9999999999B93F9999B9BF24
:101160002004FF1F0000F03F0000F0BF2804FF1F15
:101170007B14AE47E17A843FE17A84BF1804FF1FF5
:101180003004FF1F3804FF1F00003D4000003440C2
:101190003333D33F0000E03F7805FF1F7405FF1F86
:1011A0007C05FF1F38B504000D001748006850F497
:1011B0000000154908601548006880088000134940
:1011C00008601348E4B2210145501148E4B22101FE
:1011D0000844C06850F001000D49E4B222011144F6
:1011E000C8600B48E4B221010844806850F0030055
:1011F0000749E4B2220111448860E4B214F14400CA
:1012000001F04DFC31BD00003C8004400070034003
:101210000071034010B480B2002801D101231800EE
:101220000C2310FB03F0002319000B0004009BB2F9
:10123000A4B2A3420AD200231A0092B240F237535A
:101240009A4201DA521CF8E7491CEEE710BC7047DD
:101250000821DFF83823126852F00402DFF82C333B
:101260001A60DFF82823126832F00202DFF81C331C
:101270001A6000BF0A00511ED2B2002A25D0020611
:1012800008D5DFF80823126852F00802DFF8FC32B4
:101290001A6007E0DFF8F422126832F00802DFF883
:1012A000EC321A60DFF8E422126852F00202DFF832
:1012B000DC321A6000BFDFF8D422126832F002027A
:1012C000DFF8C8321A604000D4E770470821DFF821
:1012D000BC22126832F00402DFF8B0321A60DFF884
:1012E000AC22126832F00202DFF8A0321A600A0063
:1012F000511ED2B2002A25D0020608D5DFF88C2272
:10130000126852F00802DFF884321A6007E0DFF852
:101310007C22126832F00802DFF870321A60DFF8BF
:101320006C22126852F00202DFF860321A6000BFCD
:10133000DFF85822126832F00202DFF850321A60E9
:101340004000D4E7704738B504000D00B5F15000F7
:10135000C0B2FFF7BBFF2000C0B2000950F0100080
:10136000C0B2FFF7B3FF14F00F0050F00100C0B29D
:10137000FFF7ACFF31BD70B5040000200500EDB2F1
:10138000082D17DAB5F15000C0B2FFF79FFF01201A
:10139000FFF79CFF1020FFF799FF00200600F6B230
:1013A000802E05DA2000C0B2FFF752FF761CF6E768
:1013B0006D1CE4E770BD80B2002809D04FF47A526A
:1013C00011000A00511E92B2002AFAD1401EF2E723
:1013D000704780B50123012201210320FFF750FC53
:1013E0000123012202210320FFF74AFC01230122ED
:1013F00003210320FFF744FC0123012204210320E1
:10140000FFF73EFC002301220F210220FFF738FCEA
:10141000DFF87801006850F00200DFF87011086012
:10142000DFF86801006830F01000DFF86011086034
:10143000DFF85C01006830F40040DFF85411086008
:101440003220FFF7B8FFDFF84801006850F4004091
:10145000DFF83C110860AE20FFF738FF0020FFF7EF
:1014600035FF1020FFF732FF4020FFF72FFF8120CC
:10147000FFF72CFFCF20FFF729FFA120FFF726FF62
:10148000C820FFF723FFA620FFF720FFA820FFF7C3
:101490001DFF3F20FFF71AFFD320FFF717FF0020A3
:1014A000FFF714FFD520FFF711FF8020FFF70EFF95
:1014B000D920FFF70BFFF120FFF708FFDA20FFF735
:1014C00005FF1220FFF702FFDB20FFF7FFFE4020A1
:1014D000FFF7FCFE2020FFF7F9FE0220FFF7F6FEE3
:1014E0008D20FFF7F3FE1420FFF7F0FEA420FFF796
:1014F000EDFEA620FFF7EAFEAF20FFF7E7FE002093
:10150000FFF739FF00210020FFF71DFF01BD2DE986
:10151000F84304000D00160000275FF000085FF09C
:1015200000095FFA89F916F8090000282BD05FFA44
:1015300089F916F8090020380700E4B27F2C02DB95
:10154000002004006D1C2900C9B22000C0B2FFF7C2
:10155000FAFE002080465FFA88F8B8F1060F0EDA2E
:101560000C48FFB2062101FB07F108445FFA88F836
:1015700010F80800FFF76CFE18F10108EBE7A41D56
:1015800019F10109CDE7BDE8F1830000C0F00F407B
:1015900080F00F40483D000070B5040000200500B9
:1015A000EDB2022D17DAB5F15000C0B2FFF78EFE92
:1015B0000120FFF78BFE1020FFF788FE00200600B9
:1015C000F6B2802E05DA2000C0B2FFF741FE761C8D
:1015D000F6E76D1CE4E770BD38B504000D00E4B219
:1015E000002C05D1EDB2082D02DBEDB2132D0DDB81
:1015F000E4B2012C05D1EDB2042D02DBEDB2122DC7
:1016000004DB2221DFF82C0301F014FAE4B2002CF1
:1016100002D0012C7CD0EEE0DFF81C03006850F013
:101620000060DFF814130860DFF81003006830F082
:101630009000DFF8081308600020DFF8001308604E
:10164000EDB22800083801280CD9801E01281AD9CB
:10165000801E012828D9801E012836D9C01E0128E5
:1016600044D953E0DFF8D802006850F48060DFF816
:10167000D01208600020DFF8CC12EDB201EB85013A
:1016800041F8200C43E0DFF8B802006850F4007025
:10169000DFF8AC1208600020DFF8AC12EDB201EB0D
:1016A000850141F80C0C32E0DFF89402006850F438
:1016B0008060DFF88C1208600020DFF88812EDB23D
:1016C00001EB850141F8280C21E0DFF87402006885
:1016D00050F40060DFF8681208600020DFF86C1238
:1016E000EDB201EB850141F8380C10E0DFF8500253
:1016F000006850F40050DFF8481208600020DFF85E
:101700005012EDB201EB8501C86100E073E072E0B8
:10171000DFF84002006850F00060DFF8381208601F
:10172000DFF81802006830F41040DFF8101208608B
:101730000020DFF808120860EDB22800001F03281F
:101740000BD9001F012819D9801E032827D9001F93
:10175000012835D9C01E41D04CE0DFF8E401006813
:1017600050F40050DFF8D81108600020DFF8E011D5
:10177000EDB201EB850141F8100C3BE0DFF8C00150
:10178000006850F48060DFF8B81108600020DFF8CE
:10179000B411EDB201EB850141F8200C2AE0DFF82D
:1017A000A001006850F48060DFF894110860002008
:1017B000DFF89011EDB201EB850141F8180C19E04A
:1017C0005F48006850F480605D49086000205D4912
:1017D000EDB201EB850141F8180C0BE058480068A8
:1017E00050F400705649086000205749EDB241F8A6
:1017F0002500FFE7FFE731BDF8B504000D00160036
:101800000027E4B2002C05D1EDB2082D02DBEDB2C9
:10181000132D0CDBE4B2012C05D1EDB2042D02DB5B
:10182000EDB2122D03DB8721424801F003F93200AB
:10183000D2B22900C9B22000C0B200F057F8464821
:10184000E4B250F8240000680006F8D54248E4B23B
:1018500050F82400006907003F48E4B250F8240023
:10186000006830F080003C49E4B251F82410086070
:10187000380080B2F2BD2DE9F84304000D001600D7
:1018800099460027E4B2002C05D1EDB2082D02DB09
:10189000EDB2132D0CDBE4B2012C05D1EDB2042D19
:1018A00002DBEDB2122D03DBBE21224801F0C2F8AB
:1018B0000020804640464946C0B2C9B288420DD297
:1018C0003200D2B22900C9B22000C0B2FFF794FFA3
:1018D00017FA80F0070018F10108EBE75FFA89F9C1
:1018E000B7FBF9F7380080B2BDE8F28370B50400A9
:1018F0000D00160015F01F0050F040001749087247
:10190000B00010F00C0050F0500014490870042092
:101910001249487041F234201049488045F27860FD
:101920000E4988800D490C48E4B250F8240000F0BC
:1019300017F870BD2C4200003C8004401880044021
:101940003880044000A004400090044000B00440EF
:1019500000D00440308004405004FF1F5805FF1F92
:101960000A7882604A78C2604A8882618A88C26145
:101970008A790262CA794262CA6802650A7A02609A
:101980004A7A4260704700002DE9F84F04000D00CC
:1019900016001F00DFF8100500684FF47A71484305
:1019A0005FEA5008E4B2002C0DD0E4B2012C02D062
:1019B000E4B2022C02D1EDB2022D04DB3A21DFF8B1
:1019C000EC0401F037F85FEA5800B04204D23B2142
:1019D000DFF8D80401F02EF85FEA1840B0FBF6F00B
:1019E0008146002082461FFA89F9484650FA0AF0DB
:1019F000012802DB1AF1010AF5E7B6F57A7F01D278
:101A00001AF1010A404630FA0AF0B0FBF6F08146BE
:101A10001FFA89F919F1010000FB07F06421B0FBFE
:101A2000F1F08346E4B2002C05D0022C00F0B8801F
:101A3000C0F08A80E0E0DFF87804006850F0807041
:101A4000DFF86C140860EDB2002D0BD0022D25D00C
:101A500016D3042D3ED02FD3062D57D048D3072DB3
:101A600062D06FE0DFF84C04006850F40060DFF8EB
:101A7000441408604FF48060DFF83C14086062E0B2
:101A8000DFF83004006850F40060DFF828140860C4
:101A90004FF48060DFF82414086054E0DFF8140489
:101AA000006850F40060DFF80C1408604FF48060A8
:101AB000DFF80C14086046E0DFF8F803006850F423
:101AC0000060DFF8F01308604FF48060DFF8F41373
:101AD000086038E0DFF8DC03006850F48050DFF87D
:101AE000D41308604FF48060DFF8DC1308602AE04C
:101AF000DFF8C003006850F48050DFF8B8130860C6
:101B00004FF48060DFF8C41308601CE0DFF8A40322
:101B1000006850F48050DFF89C1308604FF4806038
:101B2000DFF8AC1308600EE0DFF88803006850F4BB
:101B30008050DFF8801308604FF48060DFF8941362
:101B4000086000E0ACE057E0DFF86403006850F0A4
:101B50000070DFF85C130860EDB2002D02D0012D9B
:101B60000ED01BE0DFF84C03006850F40070DFF883
:101B7000441308604FF44070DFF85C1308600EE017
:101B8000DFF83003006850F40070DFF828130860B5
:101B90004FF44070DFF84413086000E080E02BE071
:101BA000DFF83C03006850F08070DFF83413086001
:101BB000EDB2002D02D0012D0ED01BE0DFF8F402B3
:101BC000006850F40070DFF8EC1208604FF44070C9
:101BD000DFF8101308600EE0DFF8D802006850F458
:101BE0000070DFF8D01208604FF44070DFF8F81290
:101BF000086000E054E0FFE7DFF8F002E4B250F8DC
:101C00002400EDB200EBC500DFF8E012E4B251F8B9
:101C10002410EDB201EBC501C96831F00401C160C7
:101C2000DFF8C802E4B250F82400EDB200EBC500C2
:101C30002821C1605FFA8AFA1AF0070050F02800E4
:101C4000DFF8A812E4B251F8241008600020DFF891
:101C50009C12E4B251F82410C8641FFA89F9DFF825
:101C60008C02E4B250F82400C0F808900020DFF89D
:101C70007C12E4B251F82410C864DFF87002E4B2B8
:101C800050F82400EDB200EBC5001FFA8BFBC0F842
:101C900010B00020DFF85412E4B251F8241048606C
:101CA000BDE8F18F2DE9F04104000D001600E4B20B
:101CB000002C0ED0E4B2012C02D0E4B2022C02D1EE
:101CC000EDB2022D05DB40F26911DFF8E00100F012
:101CD000B1FE652E05D34FF4B571DFF8D00100F0E9
:101CE000A9FEDFF80802E4B250F8240080688046BC
:101CF00018F1010000FB06F06421B0FBF1F00700D1
:101D0000DFF8E801E4B250F82400EDB200EBC500C2
:101D10000761BDE8F0812DE9F04D06000F00904607
:101D20004FF48060664908604FF480606549086040
:101D30005F48006850F080705D49086009206C4978
:101D400008606C48006850F004006A4908606948FF
:101D5000006850F001006749086067480068400863
:101D60004000654908606548006850F48070634928
:101D700008606248006850F40070604908605F487D
:101D8000006850F400505D4908605C48006850F4F9
:101D900080505A490860C120594908605948006874
:101DA00050F40070574908600320574908605748AD
:101DB000006850F00800554908605448006830F049
:101DC0000400524908605248006850F00800504929
:101DD00008604F48006830F004004D490860F32067
:101DE0004C49086000204C4908603000390000224E
:101DF0004A4B00F0EFFE04000D000020484922008D
:101E00002B0000F0E7FE00F0BFF9464908604548A6
:101E1000006845490860002044490860404600F0D9
:101E20008DF80022424B00F0DDF800223C4B00F020
:101E3000D1FE82468B463B48006800F07FF8524650
:101E40005B4600F0CFF800F09FF93A4908600020A7
:101E5000394908602C48006850F080002A49086021
:101E6000BDE8F08D70B50600300000F067F8002284
:101E70002F4B00F0B7F80022294B00F0ABFE040016
:101E80000D002848006800F059F822002B0000F0EF
:101E9000A9F800F079F9274908601B48006850F05C
:101EA00080001949086070BD8C05FF1F5C4200006E
:101EB0003C8004403880044004B0044008B0044032
:101EC0000CB0044010B0044010C0044014C00440E2
:101ED00018C004401CC004402090044024900440DA
:101EE00030800440289004402C9004405804FF1F88
:101EF000008003405480034080800340648003409E
:101F0000688003408C800340588003401C8003405D
:101F100024800340608003404C800340006AE84016
:101F200000408F406805FF1F088003402080034069
:101F30000000F03F2880034004800340010040F18E
:101F40000980F446404200F005F851F00041604736
:101F5000010000BF09D0B0FA80F18840C91CC1F56A
:101F60008461090501EBD0214005704762B38B07FE
:101F700008D0521E11F8013B00F8013B00F024800C
:101F80008B07F6D1830740F0208000BF103A07D3BB
:101F900030B4B1E83810103AA0E83810F9D230BCAB
:101FA000530724BFB1E80810A0E8081044BF51F857
:101FB000043B40F8043BD20724BF31F8022B20F841
:101FC000022B44BF0B7803707047083A07D3B1E87F
:101FD0000810083A40F8043B40F804CBF7D2530706
:101FE000E4E70000B0B581EA030C0CF0004C40F2CD
:101FF000FF7515EA11541DBF15EA1357AC42AF42E5
:1020000039E0E41923EA455343F48013C90241F04F
:10201000004141EA505EC7021100A7FB02020028FE
:102020004FF00000EEFB01204FF00001E3FB072121
:1020300018BF42F00102401800214941E3FB0E01A4
:10204000A4F580640F0302D252004041494154F18B
:1020500001046CDD470872F1004250F1000051EBC1
:102060000451A1F580115CBF41EA0C01B0BD4CEAFE
:1020700005510020B0BD05EA1357AC4214BFAF4272
:1020800041E050EA410E1CBF52EA430E02E06146B5
:102090000020B0BD24423C441BD15FEA070EF6D0BD
:1020A000090302BF01460020AEF1140EB1FA81F718
:1020B000AEEB070401FA07FE0C37C7F1200100FA66
:1020C00007F7C8404EEA000E23EA455343F4801355
:1020D000A2E733F00043B3FA83F704BFB2FA82FEFB
:1020E00077440B3FE41BB7F1200E2FBF02FA0EF32B
:1020F000BB40C7F1200E22FA0EFE38BF43EA0E03A2
:10210000BA40641C82E750EA410E14BF52EA430E03
:102110006FF000014FF4001717EB430F8ABF194609
:1021200017EB410FB5E74CEA05510020B0BDD4F1E3
:102130000104B4F120070FDAC4F12007520828BFC8
:1021400042F0010210FA07F501FA07F7E1BF2A434E
:10215000E0403843E1400FE0352C98DCC7F1200423
:1021600052EA400220FA07F218BF42F0010231FAA7
:1021700007F0A1400A43002172F1004250F1000033
:1021800051EB0C01B0BD0000F446400D40EAC12007
:10219000490006D200F00EF8004248BF6FF0004040
:1021A000604700F007F84FF0004188428CBF0846B6
:1021B0004042604740F00040490DA1F58061491C54
:1021C00005D4D1F11F0154BFC840C01770474FF06C
:1021D0000000704770B504000D001600306801283B
:1021E00002D0022805D00AE02000C0B271688847FA
:1021F00005E0B0680470B068401CB060FFE7286874
:10220000401C286070BD2DE9F04704005FF0000A13
:102210005046A1465FF0000A89F800A019F10109B3
:10222000002A1FD0D1F800A05546002D05D15FF03F
:10223000300A89F800A0401C38E0002D36D095FB0C
:10224000F3FA564603FB165A5746002F02D5FF43B2
:10225000313700E03037350089F8007019F1010995
:10226000401CEAE7D1F800A0D446BCF1000F05D12C
:102270005FF0300A89F800A0401C17E0BCF1000FA5
:1022800014D0BCFBF3FAD64603FB1ECAD046B8F105
:102290000A0F02D218F1300801E018F13708F446AD
:1022A00089F8008019F10109401CE7E7BDE8F087D3
:1022B0002DE9F04104000D0016001F00A046A845BE
:1022C00007DA3A0031003020FFF784FF18F10108E7
:1022D000F5E7BDE8F0812DE9F04104000D0016009E
:1022E0001F00A046A84507DA3A0031002020FFF77A
:1022F00071FF18F10108F5E7BDE8F0812DE9F24F13
:1023000092B00400150000200090129883469BF8BC
:10231000000001900198002800F0F581019825281F
:1023200013D001980A2805D0220069460198FFF7CA
:1023300051FF09E0220069460D20FFF74BFF220004
:1023400069460A20FFF746FFDAE1002081460020B7
:1023500004900498002822D11BF1010B9BF8000087
:1023600020280ED0232812D02B2807D02D2802D0C9
:10237000302809D00EE059F00109EAE759F00209C6
:10238000E7E759F00409E4E759F00809E1E759F0F3
:102390001009DEE7BBF1010B01200490D9E7002012
:1023A0008246002004900498002814D11BF1010BF0
:1023B0009BF80000019001983038092806D80A20BF
:1023C000019900FB0A10B0F1300AECE7BBF1010BF8
:1023D00001200490E7E71BF1010B9BF800002E2879
:1023E00011D100200490049800280ED11BF1010B9C
:1023F0009BF800003038092800D8F4E7BBF1010B46
:1024000001200490EFE7BBF1010B1BF1010B9BF8DE
:1024100000004C2806D0682802D06C2801D002E0C9
:1024200003E002E001E0BBF1010B1BF1010B9BF8A3
:10243000000001900198582875D0622800F0D580DE
:10244000632800F01D81642813D0692811D06E28FC
:1024500000F04A816F2800F0BD80702800F0D08025
:10246000732800F01781752800F0D58078285AD09D
:1024700041E128682D1D06900A23012206A909A81A
:10248000FFF7C1FE070009A8384406000698002897
:1024900003D52D2003907F1C0FE05FEA897003D5E0
:1024A0002B2003907F1C08E05FEA497003D52020B1
:1024B00003907F1C01E000200390002005905FEA5C
:1024C000097011D50398002804D0220069460398AA
:1024D000FFF780FE0120059023006A465146380030
:1024E000FFF7E6FE574612E05FEAC9700FD42300FB
:1024F0006A4651463800FFF7EEFE0398002804D0E4
:10250000220069460398FFF765FE012005900598B3
:10251000002807D10398002804D0220069460398B8
:10252000FFF758FE98E028682D1D02901023002226
:1025300002A909A8FFF767FE070009A838440600AA
:10254000002005905FEA097016D55FEAC9600BD5D7
:10255000220069463020FFF73DFE220069467820C0
:10256000FFF738FE0120059023006A4651463800E7
:10257000FFF79EFE57461BE05FEAC97018D45FEA7A
:10258000C96000D5BF1C23006A4651463800FFF7DA
:10259000A2FE5FEAC9600BD5220069463020FFF732
:1025A00019FE220069467820FFF714FE01200590ED
:1025B0005FEAC9600DD5059800280AD12200694656
:1025C0003020FFF707FE220069467820FFF702FE61
:1025D000BF1C41E028682D1D02900823002202A99B
:1025E00009A8FFF710FE07001FE028682D1D0290C4
:1025F0000223002202A909A8FFF705FE070014E044
:1026000028682D1D02901023002202A909A8FFF7B7
:10261000FAFD070009E028682D1D02900A23002218
:1026200002A909A8FFF7EFFD070009A83844060032
:102630005FEA097007D523006A4651463800FFF764
:1026400037FE574608E05FEAC97005D423006A46A2
:1026500051463800FFF73FFE3078002806D02200B0
:1026600069463078FFF7B6FD761EF5E75FEAC97078
:1026700005D523006A4651463800FFF72CFE3FE09F
:1026800028682D1DC0B20790220069460798FFF701
:10269000A1FD35E028682D1D8046B8F1000F22D03D
:1026A000404600F0C2FB07005FEAC97005D4230072
:1026B0006A4651463800FFF70EFE98F800000028E1
:1026C00008D02200694698F80000FFF783FD18F152
:1026D0000108F2E75FEAC97005D523006A46514652
:1026E0003800FFF7F8FD0BE028682D1D08900098D2
:1026F0000899086004E0220069460198FFF76AFD26
:102700001BF1010B03E6009813B0BDE8F08F0EB487
:102710007EB50400012000900648019007A805003E
:102720002A0021006846FFF7E9FD060030007EBC64
:102730005DF810FB494700000CB4FEB504000D0025
:102740000027002C0DD002200090029408A806005B
:10275000320029006846FFF7D1FD070000200299EA
:1027600008703800FEBC5DF80CFB0000F0B44FF0C0
:10277000004591EA030F44BF6B4000F0C1B800BFB1
:10278000841A71EB030604D26E40001BB14112198A
:1027900073414FF4001C1CEB410F34BF7CEB43062C
:1027A00084E00C0DA4EB1356362E7DDC012E43DCA9
:1027B00045EAC32343EA525312BFD20292025B0896
:1027C000240545EAC12141EA5051D2EBC02099418C
:1027D00025D407D1B0FA80F610FA06F164D00020B3
:1027E000203608E0B1FA81F6B140C6F1200220FAA5
:1027F00002F21143B0404FEAF474B4EB465434F0A3
:1028000001064FEA74040AD8D6F50016760D04F0D6
:102810000044F04061FA06F25040F1404840C00ADE
:1028200040EA415021F0004128BF5FEA500550F1D5
:10283000000044EBD12137E045EAC323DB0A45EA37
:10284000C121C90AB6F120050EDD42EA0242120C8E
:10285000C5F1200603FA06F6EB4042EA06056D4292
:10286000984161F100010DE062FA06F5F240554031
:1028700063FA06FC82EA0C02F3405A406D42904132
:1028800061EB030111F4801F05D1641E620502D0C3
:102890006D004041494121F48011430875F1004326
:1028A00050F1000041EB0451F0BC70471CEB410FAC
:1028B00015D223F0004352EA43060BD04FEA4C0CEA
:1028C000BCEB410F04D80C0D661E342EB7DDEBE7D0
:1028D000801A994150EA410608BF0021E4E708BF89
:1028E0001CEB430F28BF6FF00001DDE7F0B44FF0A1
:1028F000004591EA030C44BF6B40FFF741BF00BFA6
:10290000841A71EB030603D2001BB1411219734103
:102910004FF4001C1CEB410F34BF7CEB430443E03D
:102920000C0DA4EB1356352E50DC45EAC323DB0A0D
:1029300045EAC121C912B6F120050DDD63FA05F69D
:10294000EB4086EA0305124218BF45F00105C018A6
:1029500051F100010CD213E062FA06F5F240554045
:10296000F3415A40B340F3405A408018594107D3CD
:1029700049085FEA30005FEA350528BF45F00105E8
:1029800001F58011420875F1004250F1000041EB61
:102990000451F0BC4FF4001C1CEB410F38BF7047D2
:1029A0000020090D090570471CEB410F10D252EAB7
:1029B00043060BD0BCEB410F05D80C0DAB43661E94
:1029C000342EB5DD02E0AB4380185941F0BC7047AE
:1029D000F0BC70474FF4001C1CEB410F94BF1CEB84
:1029E000430F09E041EA030C50EA4C0C52EA0C0C8C
:1029F00003D28B4208BF8242704714BF9942904273
:102A0000704700004FF4001C1CEB410F94BF1CEBFF
:102A1000430F09E041EA030C50EA4C0C52EA0C0C5B
:102A200003D2994208BF9042704714BF8B42824242
:102A30007047000038B504000D002A00210002484C
:102A4000FFF765FEF9E700BF744000000E49096812
:102A500051F001010C4A11600D49086005210D4A31
:102A600011600A49096851F00101084A11600749DB
:102A700009680906FBD50549096849084900034A60
:102A800011607047000000003880044000000440DE
:102A9000080004400400044042490860704738B50B
:102AA00004005C2C02DB4048FFF731FE202094FB41
:102AB000F0F00500002D03D0022D2BD015D33DE002
:102AC0002020012194FBF0F200FB124011FA00F0EB
:102AD000364908602020012194FBF0F200FB1240EF
:102AE00011FA00F03249086028E02020012194FB0F
:102AF000F0F200FB124011FA00F02E49086020208D
:102B0000012194FBF0F200FB124011FA00F02A4977
:102B1000086013E02020012194FBF0F200FB12403A
:102B200011FA00F0254908602020012194FBF0F201
:102B300000FB124011FA00F02149086031BD38B5A0
:102B400004005C2C02DB1F48FFF7E1FD202094FB12
:102B5000F0F00500002D03D0022D17D00BD31FE09D
:102B60002020012194FBF0F200FB124011FA00F04A
:102B70001549086014E02020012194FBF0F200FBCD
:102B8000124011FA00F01149086009E020200121EB
:102B900094FBF0F200FB124011FA00F00C490860BF
:102BA00031BD000008ED00E0C041000080E200E01F
:102BB00000E100E084E200E004E100E088E200E0FF
:102BC00008E100E08441000080E100E084E100E0F1
:102BD00088E100E02DE9F04140F2FF7581EA030C45
:102BE0000CF0004C15EA11541DBF15EA1357AC4206
:102BF000AF42E9E0BC41C1F31301C3F31303801AF0
:102C0000994143F4801304D2641E40004941801866
:102C10005941C90241EA5051B1FBF3F603FB1611C9
:102C2000A2FB0675D7EBC020A94102D2761E801800
:102C30005941C90241EA5051B1FBF3FE03FB1E1199
:102C4000A2FB0E75D7EBC020A94103D2AEF1010E55
:102C500080185941890241EA9051760546EA8E2E44
:102C6000B1FBF3F603FB1611A2FB0675D7EB802030
:102C7000A94102D2761E80185941C90241EA505139
:102C80004EEA060EB1FBF3F603FB1611A2FB067526
:102C9000D7EBC020A94102D2761E80185941C90243
:102CA00041EA5051B1FBF3F703FB1711A2FB0735C3
:102CB000D3EBC020A94167F100070CBF004247F0E9
:102CC000010766F3D5274FEA1E31B80814F5806472
:102CD00014DDBD0775F1004250EB0E5051EB04516D
:102CE00011F5801F5CBF41EA0C01BDE8F0814CF09A
:102CF0007F6141F0E0410020BDE8F081BD076D0833
:102D000040EA0E5041F48011D4F10104B4F12006E0
:102D10000ADAC4F120060200E04001FA06F3E140BD
:102D20001843B24015430EE0342C14DCC6F12004E5
:102D300045EA40056D0820FA06F2154321FA06F02F
:102D4000A1400D43002175F1004250F1000051EB0C
:102D50000C01BDE8F08100205FEA0C01BDE8F081C4
:102D6000CFB992185B41B3FA83F704BFB2FA82F687
:102D7000BF190B3FB7F120062FBF02FA06F3BB4085
:102D8000C7F1200622FA06F638BF3343BA401CB119
:102D9000E419641E2FE77F4231F00041B1FA81F45B
:102DA00004BFB0FA80F6A4190B3CB4F120062FBF83
:102DB00000FA06F1A140C4F1200620FA06F638BF59
:102DC0003143A0403C1B16E7AC421ABF05EA13573B
:102DD000AF4214E050EA41061CBF52EA4306BFE787
:102DE00050EA4107304661461CBF41EA0551BDE843
:102DF000F08152EA430C08BFC143BDE8F0810020D6
:102E00004FF4001616EB410F98BF16EB430F08BFA7
:102E100016EB410F24BFC14305E016EB430F0CBF77
:102E200061464CEA0551BDE8F08101000A0000232B
:102E3000002A01D1002007E01000421C0078002881
:102E400001D05B1CF8E718007047000010B572B69F
:102E50000120FDF7CBFE0400DFF8D8140120FDF7B8
:102E6000DFFE2100C9B20120FDF7CDFE62B610BD24
:102E700080B5DFF8C404006850F00100DFF8B81432
:102E800008600A2202210020FEF70CFFDFF8AC04E4
:102E90000068102803D10020DFF8A0140860DFF8D4
:102EA0009C040068401CDFF89414086001BD000019
:102EB00080B572B6DFF888040088401CDFF8801403
:102EC00008800A23032209210020FEF7D4FCFFF723
:102ED0003FF8DFF87024C2E90001DFF86804D0E9A8
:102EE00000010022DFF86034FFF774FE5FF0663205
:102EF000DFF85834FFF776F8DFF84824C2E900011C
:102F00000A2303220A210020FEF7B5FCFFF720F870
:102F1000DFF83C24C2E90001DFF83404D0E9000105
:102F20000022DFF82434FFF755FE5FF06632DFF849
:102F30001C34FFF757F80022DFF81834FFF752F877
:102F4000DFF80C24C2E900010A2303220C2100202F
:102F5000FEF791FCFEF7FCFFDFF8FC23C2E900015D
:102F6000DFF8F403D0E900010022DFF8DC33FFF7DB
:102F700031FE5FF06632DFF8D433FFF733F800221A
:102F8000DFF8D033FFF72EF8DFF8CC23C2E90001D9
:102F9000DFF8C803D0E90023DFF8A803D0E9000177
:102FA000FFF7A4FCDFF8B423C2E90001FDF720FC21
:102FB000DFF88C03008840F6B83188423ED100200B
:102FC000DFF87C130880DFF89403D0E900010022C9
:102FD000DFF88C33FFF7FEFDDFF88023C2E9000144
:102FE000DFF87803D0E90001DFF85823C2E90001D7
:102FF000FDF75AFB00200021DFF86023C2E9000141
:10300000DFF84C03D0E900010022DFF85833FFF766
:10301000E1FC13D80023012203210220FDF730FE3A
:103020000023012204210220FDF72AFE0020DFF800
:10303000381308600020DFF83413086062B6DFF848
:103040003003006850F00100DFF82413086001BD70
:103050007047704780B5DFF81C03FFF758FBFAE7AD
:10306000002008210800DFF810130968C140C907D3
:103070001ED5DFF804130968012282401143BE4ABD
:103080001160BE490988002903D10121BC4A117091
:103090000EE0BA4909880E290ADB0021B74A1180DF
:1030A0000021B74A1170B7490978491CB54A117017
:1030B00009210800B0490968C140C9071DD5AE49BA
:1030C0000968012282401143AB4A1160AE49098868
:1030D000002903D10121AD4A11700EE0AA490988E7
:1030E0000E290ADB0021A84A11800021A74A11708D
:1030F000A7490978491CA64A11700A2108009E496F
:103100000968C140C9071DD59B4909680122824051
:103110001143994A11609F490988002903D101216F
:103120009D4A11700EE09B4909880E290ADB002197
:10313000984A11800021984A117098490978491CD1
:10314000964A11700B2108008B490968C140C907D4
:103150001DD589490968012282401143864A1160C0
:103160008F490988002903D101218E4A11700EE090
:103170008B4909880E290ADB0021894A1180002128
:10318000884A117088490978491C874A117070472C
:1031900000200021080085490968C140C90706D5FB
:1031A00082490968012282401143804A11600A2144
:1031B00008007E490968C140C90706D57B490968EE
:1031C000012282401143794A1160704778480068B3
:1031D00050F001007649086069480078002804D062
:1031E00066480088401C6549088064480088972824
:1031F00005DB0020614908800020614908706348B0
:103200000078002804D060480088401C5E4908808F
:103210005D480088972805DB00205B490880002076
:103220005A4908705C480078002804D05948008842
:10323000401C5849088057480088972805DB002023
:1032400054490880002054490870564800780028E6
:1032500004D053480088401C5149088050480088D9
:10326000972805DB00204E49088000204D49087052
:103270007047704738B54F48046800204D490860D2
:10328000002005000120A8402100C9B201420CD055
:103290004948EDB250F8350030F040004649EDB2F3
:1032A00041F835004548FFF732FA012005000120BA
:1032B000A8402100C9B2014209D03F48EDB250F800
:1032C000350030F040003C49EDB241F8350031BDE9
:1032D00080B53B48006850F0100039490860042070
:1032E000FFF72DFC3748006830F0100035490860C2
:1032F00001203549087001BD80B53448FFF707FA51
:103300002F48006850F001002D4908602D480068E2
:1033100050F001002B49086001BD2D48006850F0B5
:1033200080002B4908602B480078401C2949087010
:1033300070470000A04500001C7103406C05FF1F92
:103340009005FF1F1805FF1FE0FFEF4066660A406B
:103350002005FF1F000030402805FF1F3005FF1F1C
:103360000070A740000038407805FF1F8005FF1F50
:103370000C71034070430000A0C004409205FF1F81
:103380009C05FF1F9D05FF1F9405FF1F9E05FF1F46
:103390009F05FF1F9605FF1FA005FF1FA105FF1F2B
:1033A0009805FF1FA205FF1FA305FF1FA0A0044053
:1033B0002C710340509003400C900340684600007D
:1033C000248000400C800040A405FF1FB44500008D
:1033D00000000440A505FF1F80B500F08DFA00F045
:1033E000A7FA00F005FBDFF8E803FFF790F9DFF834
:1033F000E4030068DFF8E0134979491CB0FBF1F001
:103400000090DFF8D0030068DFF8CC130979491C7D
:10341000B0FBF1F3DFF8BC030068DFF8BC13C97838
:10342000491CB0FBF1F2DFF8AC030168DFF8AC0334
:10343000FFF76DF9DFF8A8030078400703D5DFF840
:10344000A403FFF764F9DFF898030078800703D539
:10345000DFF89403FFF75BF9DFF884030078C00717
:1034600003D5DFF88803FFF752F9DFF8840300780B
:10347000000603D5DFF87C03FFF749F9DFF8700396
:103480000078400603D5DFF87003FFF740F9DFF856
:1034900060030078800603D5DFF86003FFF737F993
:1034A000DFF84C030078400703D5DFF85403FFF73B
:1034B0002EF9DFF83C030078800703D5DFF84403DA
:1034C000FFF725F9DFF828030078C00703D5DFF8F8
:1034D0003803FFF71CF9DFF83403FFF718F9DFF8BA
:1034E0003003DFF83013884204D0DFF82C03FFF7F5
:1034F0000EF903E0DFF82403FFF709F900F003F801
:10350000FCF7A4FFFEE780B5DFF8140300680009AC
:1035100010F0070000280BD0022813D00DD3042888
:1035200019D014D306281ED019D307281FD022E0A3
:10353000DFF8F002FFF7EBF820E0DFF8EC02FFF72E
:10354000E6F81BE0DFF8E402FFF7E1F816E0B84820
:10355000FFF7DDF812E0B748FFF7D9F80EE0B648FC
:10356000FFF7D5F80AE0B548FFF7D1F806E0B44810
:10357000FFF7CDF802E0B348FFF7C9F8A8480068A4
:1035800010F00F00022812D0042814D0052816D0FD
:10359000062818D007281AD008281CD009281ED0C1
:1035A0000A2820D00C2822D00E2824D027E0A648B4
:1035B000FFF7ADF826E0A548FFF7A9F822E0A448F8
:1035C000FFF7A5F81EE0A348FFF7A1F81AE0A2480C
:1035D000FFF79DF816E0A148FFF799F812E0A04820
:1035E000FFF795F80EE09F48FFF791F80AE09E4834
:1035F000FFF78DF806E09D48FFF789F802E09C4848
:10360000FFF785F886480068000B10F00F000028CF
:1036100003D0022809D004D30BE09648FFF777F8CF
:103620000AE09548FFF773F806E09448FFF76FF853
:1036300002E09348FFF76BF800F06AF891480068E1
:10364000000E10F00F00072806D0092808D00B281C
:103650000AD00F280CD00FE08B48FFF758F80EE087
:103660008A48FFF754F80AE08948FFF750F806E067
:103670008748FFF74CF802E08648FFF748F886488D
:103680000068000203D58548FFF741F81EE07D4839
:103690000068000F002806D0072808D009280AD0A3
:1036A0000F280CD00FE07E48FFF731F80EE07D4880
:1036B000FFF72DF80AE07C48FFF729F806E07A4882
:1036C000FFF725F802E07948FFF721F8784800680D
:1036D000000B10F00F00052806D0072808D0082896
:1036E0000AD009280CD00FE07248FFF710F80EE05E
:1036F0007148FFF70CF80AE07048FFF708F806E099
:103700006F48FFF704F802E06E48FFF700F801BDCC
:10371000F8B503206C49087000206C49087000203F
:103720006B49087000206B49087001206A490870D5
:1037300080206A490870694800780006FBD568480F
:1037400000780400674800780500674800780600A4
:10375000664800780700FFB20097F6B23300EDB27A
:103760002A00E4B221006248FEF7D1FF0320564947
:103770000870002055490870002055490870042041
:10378000544908700120544908708020534908703A
:10379000524800780006FBD5514800780400514893
:1037A000007805005048007806005048007807006F
:1037B000FFB20097F6B23300EDB22A00E4B2210066
:1037C0004C48FEF7A4FFFF2044490870F1BD0000FB
:1037D000904300008805FF1FA404FF1FBC400000A9
:1037E00000E00740784600003044000064470000D5
:1037F00001E0074088460000C8450000C8440000BA
:10380000E04400004C44000070470000B04300005A
:103810000000FF1F000000007C47000088470000F8
:1038200024800440F0470000F847000000480000F2
:103830000848000010480000184800002048000018
:1038400028480000E842000098460000A846000012
:10385000B8460000C8460000D8460000E846000010
:10386000F8460000084700001847000028470000FD
:10387000BC420000DC450000F045000004460000AA
:10388000044100004C800440F84400001045000052
:1038900028450000D0430000508004403847000015
:1038A000404500005845000070450000F04300000E
:1038B00000700440184600002C46000040460000FE
:1038C0005446000068440000070002400600024021
:1038D00005000240040002400F00024000000240C8
:1038E0000B0002400A0002400900024008000240AA
:1038F000104300001044000080B500F009F80A48A9
:1039000000884FF6FE7108400749088001BD00009D
:1039100072B64CF22050054908804DF62810034934
:10392000088062B670470000002005400E20054068
:103930002DE9F8432448254988420DD000208046CF
:10394000B8F5826F08D2214850F828001E4941F886
:10395000280018F10108F3E71B48FFF79DF81C4801
:1039600007001C4806001C480400A01B8046404677
:10397000B0F10108002804D030783870761C7F1C24
:10398000F5E71648814616480500B5EB0900804664
:103990004046B0F10108002805D0002089F8000059
:1039A00019F10109F4E70F480F49104A531A9846D4
:1039B0004346B3F10108002B04D00B780370491C77
:1039C000401CF5E7BDE8F1830000FF1F0000000088
:1039D0001004FF1F703F0000244000001805FF1F67
:1039E000AC05FF1FC404FF1F24400000744000000A
:1039F00080B51148006850F478500F490860642081
:103A000000F028F80D4908600C4800684FF47A71FE
:103A100048430B4908600A4800680A490968C1F32D
:103A20000361491CB0FBF1F0074908604FF496416F
:103A30000120FDF705F801BD388004408805FF1F0F
:103A40008405FF1F448004408C05FF1FDFF800F051
:103A5000C504FF1F38B50400E4B2002C00F0068155
:103A6000E4B2200030281ED0322823D0602828D08D
:103A700064282DD06E2832D0782837D07D283CD0CD
:103A8000822841D08C2846D096284BD0A02850D0F0
:103A9000AA2855D0B4285AD0C8285FD0E12864D0CD
:103AA000FA2869D06FE018209F49087000209E49CD
:103AB00048706CE018209C49087001209A494870B1
:103AC00065E01820984908701820974948705EE012
:103AD0001820954908701A209349487057E018201B
:103AE000914908701F209049487050E013208E497A
:103AF000087018208C49487049E013208A490870E2
:103B00001A208949487042E01320874908701C2018
:103B1000854948703BE00E20834908701220824995
:103B2000487034E00E208049087015207E494870A6
:103B30002DE00E207C49087018207B49487026E053
:103B40000E20794908701B20774948701FE00E202D
:103B5000754908701E207449487018E00C2072499D
:103B600008701C207049487011E00B206E490870E5
:103B70001E206D4948700AE00A206B4908701F201A
:103B80006949487003E06420FFF764FFCAE0002041
:103B900065498870E4B2332C03DA00206249C870AA
:103BA00017E0E4B2652C03DA01205F49C87010E029
:103BB000E4B2972C03DA02205B49C87009E0E4B252
:103BC000C92C03DA03205849C87002E00F20564977
:103BD000C8705548C07854490871E4B21A2C03DA09
:103BE00000205149487141E0E4B2332C03DA01204E
:103BF0004D4948713AE0E4B24C2C03DA02204A49BC
:103C0000487133E0E4B2652C03DA03204649487179
:103C10002CE0E4B27E2C03DA04204349487125E00D
:103C2000E4B2972C03DA05203F4948711EE0E4B264
:103C3000B02C03DA06203C49487117E0E4B2C92CE5
:103C400003DA07203849487110E0E4B2E22C03DAC5
:103C500008203549487109E0E4B2FB2C03DA092059
:103C60003149487102E00F202F4948712E484078B1
:103C7000183080B2322148432B490978491C89B257
:103C800090FBF1F0050000202849087028480068E2
:103C900050F08050264908602648007850F0800097
:103CA0002449087098202449087024480078C006E8
:103CB000FBD422480078C0F38100C0B20228F8D1BA
:103CC0001948007810F01F001D49087000201D4998
:103CD000087015484379144802791348C17812488E
:103CE0008078FFF7B3FE1048407810F01F0050F0C6
:103CF000400014490870114800788006FBD50F4831
:103D000000784006FBD50C48007810F03F000A49C7
:103D100008700A480078C0F38100C0B20328F8D1C7
:103D20002800C0B232BD00BFA404FF1F01400640FE
:103D30003480044008C0074000400640064006406A
:103D4000044006400540064000000000000000005E
:103D5000002F000000000700070000147F147F14EC
:103D600000242A7F2A120062640813230036495572
:103D7000225000000503000000001C22410000004A
:103D800041221C000014083E08140008083E0808E0
:103D9000000000A06000000808080808000060603B
:103DA0000000002010080402003E5149453E00007A
:103DB000427F4000004261514946002141454B315C
:103DC000001814127F10002745454539003C4A4928
:103DD000493000017109050300364949493600069A
:103DE0004949291E00003636000000005636000002
:103DF000000814224100001414141414000041227D
:103E0000140800020151090600324959513E007C54
:103E10001211127C007F49494936003E414141223E
:103E2000007F4141221C007F49494941007F090927
:103E30000901003E4149497A007F0808087F0000D7
:103E4000417F4100002040413F01007F0814224192
:103E5000007F40404040007F020C027F007F04084A
:103E6000107F003E4141413E007F09090906003EA6
:103E70004151215E007F09192946004649494931CF
:103E80000001017F0101003F4040403F001F2040F2
:103E9000201F003F4038403F0063140814630007B0
:103EA0000870080700615149454300007F41410007
:103EB00000552A552A55000041417F0000040201A7
:103EC0000204004040404040000001020400002085
:103ED00054545478007F48444438003844444420C3
:103EE00000384444487F00385454541800087E0970
:103EF00001020018A4A4A47C007F08040478000038
:103F0000447D4000004080847D00007F10284400F4
:103F10000000417F4000007C04180478007C080405
:103F2000047800384444443800FC24242418001841
:103F3000242418FC007C080404080048545454202D
:103F400000043F444020003C4040207C001C2040B6
:103F5000201C003C4030403C004428102844001CF9
:103F6000A0A0A07C004464544C44141414141414F1
:103F7000000000000000E03F0000000000003D40A5
:103F80000000000000003440333333333333D33F79
:103F90000000000000003440000000000000E03F8E
:103FA0000000000000008440000000000000844089
:103FB00000B0034000B00B4000800340009003407D
:103FC00000800B4000F00F4040F00F4080F00F40A9
:103FD000C0F00F4000F10F400090044000A00440EA
:103FE00000B0044000C0044000D004400102030AB5
:103FF0000405060B0708090C0E000F0D80020000D7
:10400000800200000B1F00000009000000A0064015
:1040100000B0064000C0064000D0064000A00E40A0
:1040200000B00E40F0B4114E366834000F4E3668C2
:1040300056F47F060D4F3E600E0616F0706656EA87
:104040000076170517F470073E431F0417F4702716
:104050003E43074F3E6000263500EDB29D4201D23F
:104060006D1CFAE7014E3460F0BC704700F001406F
:1040700044800440B6CFD1D4B7A2C9FAD4DA2573AC
:10408000CEC4BCFEB5C4B5DA2564D0D0A3A10AB6AF
:10409000CFD1D4CCF5BCFEB2BBB3C9C1A2A3ACC7CF
:1040A000EBBCECB2E2B4EDCEF3D4ADD2F2A1A309F5
:1040B000A1AAA1AA206279200A0A0000C4DABACB18
:1040C000C6B5C2CAA3BA25644D487A09D7DCCFDF8A
:1040D000C6B5C2CA20A3BA25644D487A0A666C6583
:1040E00078C6B5C2CAA3BA25644D487A2009666C61
:1040F000617368C6B5C2CAA3BA25644D487A0A0A74
:10410000000000000A546869732076657273696F55
:104110006E206F6620736F66747761726520646FBE
:1041200065736E2774207265636F676E697A6520A8
:10413000746865207265766973696F6E20636F6459
:10414000652E000019E050F8041BCB0744BFA9F10D
:1041500001035918121F0023042A41F8043BF9D225
:104160005FEA827C0B4604D54FF0000CA1F800C03A
:104170009B1CD10744BF0021197050F8042B002A62
:10418000E1D170470A4552522120496E76616C692F
:1041900064204952512076616C756520706173739B
:1041A000656420746F2064697361626C6520697254
:1041B000712066756E6374696F6E210A00000000DD
:1041C0000A4552522120496E76616C696420495239
:1041D000512076616C75652070617373656420741D
:1041E0006F20656E61626C65206972712066756E04
:1041F0006374696F6E210A00453A5C4941525072FE
:104200006F6A5C6C616E647A6F4B36304F4C45441C
:104210005C7372635C647269766572735C67706903
:104220006F5C6770696F2E6300000000453A5C495F
:10423000415250726F6A5C6C616E647A6F4B3630BB
:104240004F4C45445C7372635C647269766572734B
:104250005C6164635C6164632E630000453A5C49A1
:10426000415250726F6A5C6C616E647A6F4B36308B
:104270004F4C45445C7372635C647269766572731B
:104280005C46544D5C46544D2E6300000A2A2A2A8F
:104290002A64656661756C745F69737220656E74FB
:1042A00065726564206F6E20766563746F72202579
:1042B000642A2A2A2A2A0D0A0A0000000A556E7268
:1042C00065636F676E697A6564204B696E657469B2
:1042D00073207061636B61676520636F64652E2076
:1042E00020202020200000000A556E7265636F6751
:1042F0006E697A6564204B696E65746973206661C6
:104300006D696C79206465766963652E0A0000002A
:10431000466C61736820706172616D6574657220AE
:1043200076657273696F6E2025642E25642E256470
:104330002E25640A0000000010B5074979441831A1
:10434000064C7C44163404E00A68081D1144884772
:104350000146A142F8D110BD080000001400000081
:10436000E5FDFFFF940000001805FF1F000000009E
:104370000A2A2A2A2AD3B2BCFEC9CFB7C3B4EDCECB
:10438000F32121212A2A2A2A2A0D0A0A00000000E4
:104390000A0A0909C0B6D6E66B696E65746973BA14
:1043A000CBD0C4B0E5B2E2CAD4B3CCD0F20A00009C
:1043B0000AC0B6D6E64B696E65746973BFAAB7A228
:1043C000B0E5C6F4B6AFB7BDCABDA3BA00000000E1
:1043D000455252212120556E646566696E656420E0
:1043E000502D666C6173682073697A650A0000005D
:1043F000455252212120556E646566696E656420C0
:10440000466C65784E564D2073697A650A00000047
:10441000466C6173682076657273696F6E204944DB
:104420002025642E25642E25642E25640A000000B4
:10443000436F7265204C6F636B7570204576656EB7
:10444000742052657365740A000000004C6F772D6C
:10445000766F6C746167652044657465637420527F
:10446000657365740A000000455252212120556E83
:10447000646566696E65642052414D2073697A6592
:104480000A0A000000F00BF8002801D0FFF754FFE3
:104490000020C046C046FBF7D9FF00F002F801201B
:1044A000704700F001B800000746384600F002F8F7
:1044B000FBE7000080B5C046C046024A1100182044
:1044C000ABBEFBE7260002005761746368646F6748
:1044D00028434F50292052657365740A000000007C
:1044E0004C6F7373206F6620436C6F636B20526553
:1044F0007365740A00000000313238206B42797411
:104500006573206F6620502D666C6173680900002A
:10451000323536206B4279746573206F6620502DDA
:10452000666C617368090000353132206B42797422
:104530006573206F6620502D666C617368090000FA
:1045400030206B4279746573206F6620466C657805
:104550004E564D0A00000000313238206B4279740B
:104560006573206F6620466C65784E564D0A0000D4
:10457000323536206B4279746573206F6620466C45
:1045800065784E564D0A000080B503480178C9B2DF
:104590000248FEF7BCF801BD04ED00E08C420000CB
:1045A0000AC4E3B7A2CBCDB5C4CAFDBEDDCEAAA373
:1045B000BA000000444D415F4348305F48616E647B
:1045C0006C65720A0000000045787465726E616C5B
:1045D0002050696E2052657365740A0053696C69D6
:1045E000636F6E2072657620312E302020200A0005
:1045F00053696C69636F6E2072657620312E3120AD
:10460000200A000053696C69636F6E207265762022
:10461000312E3220200A00003332206B427974653B
:1046200073206F662052414D0A0A00003634206B19
:104630004279746573206F662052414D0A0A00006A
:104640003936206B4279746573206F662052414D74
:104650000A0A0000313238206B4279746573206F8A
:10466000662052414D0A0A000A46544D31B7A2CB8A
:10467000CDD6D0B6CF0A0000536F667477617265ED
:104680002052657365740A00506F7765722D6F6EE6
:104690002052657365740A00333270696E202020E1
:1046A0002020202000000000343870696E20202077
:1046B0002020202000000000363470696E20202069
:1046C0002020202000000000383070696E2020205B
:1046D0002020202000000000383170696E2020204A
:1046E000202020200000000031303070696E202032
:1046F000202020200000000031303470696E20201E
:10470000202020200000000031343470696E202009
:10471000202020200000000031393670696E2020F2
:10472000202020200000000032353670696E2020E5
:104730002020202000000000502D666C617368204E
:104740006F6E6C790A00000010B504002100C9B238
:104750000120FCF758FA10BD256425642E25642538
:10476000640000004A5441472052657365740A0092
:104770004C4C57552052657365740A00666C617322
:1047800068C6F4B6AF0A00005352414DC6F4B6AF46
:104790000A000000C046C046C046C046FFF772FE91
:1047A0004931303A000000005532303A0000000034
:1047B000505F693A00000000505F753A0000000049
:1047C000495F693A00000000495F753A0000000047
:1047D00050574D5F493A000050574D5F553A000021
:1047E0004D6F643A0000000030302E303000000081
:1047F0000A4B31302D0000000A4B32302D000000F2
:104800000A4B33302D0000000A4B34302D000000DD
:104810000A4B36302D0000000A4B37302D000000C7
:104820000A4B35302D0000000A4B35332D000000B7
:04000005000047951B
:00000001FF
