:10000000F8FF002011040000253F000091160000B9
:10001000253F0000253F0000253F0000253F000050
:10002000253F0000253F0000253F0000253F000040
:10003000253F0000253F00008F1600008D160000B0
:1000400035190000253F0000253F0000253F000036
:100050000D190000253F0000253F0000253F00004E
:10006000253F0000253F0000253F0000253F000000
:10007000253F0000253F0000253F0000253F0000F0
:10008000253F0000253F0000253F0000253F0000E0
:10009000253F0000253F0000253F0000253F0000D0
:1000A000253F0000253F0000253F0000253F0000C0
:1000B000253F0000253F0000253F0000253F0000B0
:1000C000253F0000253F0000253F0000253F0000A0
:1000D000253F0000253F0000253F0000253F000090
:1000E000253F0000253F0000253F0000253F000080
:1000F000253F0000253F0000253F00008D14000033
:10010000253F0000253F0000253F0000253F00005F
:10011000253F0000253F0000253F0000253F00004F
:10012000253F0000253F0000253F0000253F00003F
:10013000253F0000253F0000AF180000B118000067
:10014000253F0000253F0000253F0000253F00001F
:10015000F1140000B114000009180000253F000050
:10016000253F0000253F0000253F0000253F0000FF
:10017000253F0000253F0000253F0000253F0000EF
:10018000253F0000253F0000253F0000253F0000DF
:10019000253F0000253F0000253F0000253F0000CF
:1001A000CD170000571900009D160000253F0000E4
:1001B000253F0000253F0000253F0000253F0000AF
:1001C000253F0000253F0000253F0000253F00009F
:1001D000253F0000253F0000253F0000253F00008F
:1001E000253F0000253F0000253F0000253F00007F
:10040000FFFFFFFFFFFFFFFFFFFFFFFFFEFFFFFFFD
:1004100062B64FF000004FF000014FF000024FF0C5
:1004200000034FF000044FF000054FF000064FF0BE
:1004300000074FF000084FF000094FF0000A4FF09E
:10044000000B4FF0000C02F0ADFCFEE72DE9F84F79
:1004500004000D0016001F00DFF8540500684FF47B
:100460007A7148435FEA5008E4B2002C0DD0E4B240
:10047000012C02D0E4B2022C02D1EDB2022D04DB39
:100480003A21DFF8300500F0DDFA5FEA5800B042AB
:1004900004D23B21DFF81C0500F0D4FA5FEA1840D3
:1004A000B0FBF6F08146002082461FFA89F94846E3
:1004B00050FA0AF0012802DB1AF1010AF5E7B6F555
:1004C0007A7F01D21AF1010A404630FA0AF0B0FBF5
:1004D000F6F081461FFA89F919F1010000FB07F0D7
:1004E0006421B0FBF1F08346E4B2002C05D0022C6D
:1004F00000F0B880C0F08A80E0E0DFF8BC0400685B
:1005000050F08070DFF8B0140860EDB2002D0BD011
:10051000022D25D016D3042D3ED02FD3062D57D033
:1005200048D3072D62D06FE0DFF89004006850F4E4
:100530000060DFF8881408604FF48060DFF88014F2
:10054000086062E0DFF87404006850F40060DFF8CF
:100550006C1408604FF48060DFF86814086054E0A1
:10056000DFF85804006850F40060DFF850140860A9
:100570004FF48060DFF85014086046E0DFF83C0478
:10058000006850F40060DFF8341408604FF48060B5
:10059000DFF83814086038E0DFF82004006850F411
:1005A0008050DFF8181408604FF48060DFF82014E2
:1005B00008602AE0DFF80404006850F48050DFF897
:1005C000FC1308604FF48060DFF8081408601CE03A
:1005D000DFF8E803006850F48050DFF8E0130860AB
:1005E0004FF48060DFF8F01308600EE0DFF8CC0312
:1005F000006850F48050DFF8C41308604FF4806046
:10060000DFF8D813086000E0ACE057E0DFF8A8039B
:10061000006850F00070DFF8A0130860EDB2002D04
:1006200002D0012D0ED01BE0DFF89003006850F4DB
:100630000070DFF8881308604FF44070DFF8A013F3
:1006400008600EE0DFF87403006850F40070DFF813
:100650006C1308604FF44070DFF88813086000E006
:1006600080E02BE0DFF88003006850F08070DFF856
:1006700078130860EDB2002D02D0012D0ED01BE0E2
:10068000DFF83803006850F40070DFF830130860BA
:100690004FF44070DFF8541308600EE0DFF81C03DD
:1006A000006850F40070DFF8141308604FF44070D5
:1006B000DFF83C13086000E054E0FFE7DFF83403A4
:1006C000E4B250F82400EDB200EBC500DFF82413CB
:1006D000E4B251F82410EDB201EBC501C96831F064
:1006E0000401C160DFF80C03E4B250F82400EDB25D
:1006F00000EBC5002821C1605FFA8AFA1AF00700F2
:1007000050F02800DFF8EC12E4B251F82410086031
:100710000020DFF8E012E4B251F82410C8641FFA98
:1007200089F9DFF8D002E4B250F82400C0F808904C
:100730000020DFF8C012E4B251F82410C864DFF8DA
:10074000B402E4B250F82400EDB200EBC5001FFA89
:100750008BFBC0F810B00020DFF89812E4B251F81B
:1007600024104860BDE8F18F2DE9F04104000D0030
:100770001600E4B2002C0ED0E4B2012C02D0E4B298
:10078000022C02D1EDB2022D05DB40F26911DFF837
:10079000240200F057F9652E05D34FF4B571DFF848
:1007A000140200F04FF9DFF84C02E4B250F82400D4
:1007B0008068804618F1010000FB06F06421B0FB60
:1007C000F1F00700DFF82C02E4B250F82400EDB29B
:1007D00000EBC5000761BDE8F0812DE9F04D060092
:1007E0000F0090464FF48060774908604FF48060B6
:1007F000764908607048006850F080706E49086063
:1008000009207D4908607D48006850F004007B495C
:1008100008607A48006850F001007849086078481C
:10082000006840084000764908607648006850F447
:100830008070744908607348006850F40070714912
:1008400008607048006850F400506E4908606D48B8
:10085000006850F480506B490860C1206A49086004
:100860006A48006850F400706849086003206849CD
:1008700008606848006850F00800664908606548EC
:10088000006830F00400634908606348006850F075
:100890000800614908606048006830F004005E4963
:1008A0000860F3205D49086000205D490860300061
:1008B000390000225B4B00F0D1F804000D0000204D
:1008C000594922002B0000F0C9F800F0F3F957490C
:1008D000086056480068564908600020554908607D
:1008E000404600F00DFA0022534B00F021FA00229E
:1008F0004D4B00F0B3F882468B464C48006800F040
:10090000FFF952465B4600F013FA00F0D3F94B4969
:10091000086000204A4908603D48006850F08000A7
:100920003B490860BDE8F08D70B50600300000F06E
:10093000E7F90022404B00F0FBF900223A4B00F0AF
:100940008DF804000D003948006800F0D9F9220044
:100950002B0000F0EDF900F0ADF9384908602C48A3
:10096000006850F080002A49086070BDF8B50600A4
:100970000F003000390000222A4B00F06FF804000D
:100980000D000020284922002B0000F067F800F03D
:1009900091F92649086025480068254908601C48E7
:1009A000006850F080001A490860F1BD00000000A6
:1009B0005C05FF1F783A00003C800440388004400A
:1009C00004B0044008B004400CB0044010B004402F
:1009D00010C0044014C0044018C004401CC00440AF
:1009E000209004402490044030800440289004402B
:1009F0002C9004404804FF1F0080034054800340B3
:100A00008080034064800340688003408C80034002
:100A1000588003401C8003402480034060800340D2
:100A20004C800340006AE84000408F403805FF1FBB
:100A300008800340208003400000F03F28800340EE
:100A40000480034038B504000D002A00210002484C
:100A500000F0DDFCF9E700BF303A00002DE9F0417D
:100A600040F2FF7581EA030C0CF0004C15EA1154BA
:100A70001DBF15EA1357AC42AF42E9E0BC41C1F3D8
:100A80001301C3F31303801A994143F4801304D272
:100A9000641E4000494180185941C90241EA505141
:100AA000B1FBF3F603FB1611A2FB0675D7EBC020D2
:100AB000A94102D2761E80185941C90241EA50511B
:100AC000B1FBF3FE03FB1E11A2FB0E75D7EBC0209A
:100AD000A94103D2AEF1010E80185941890241EAC1
:100AE0009051760546EA8E2EB1FBF3F603FB161104
:100AF000A2FB0675D7EB8020A94102D2761E801892
:100B00005941C90241EA50514EEA060EB1FBF3F6D3
:100B100003FB1611A2FB0675D7EBC020A94102D238
:100B2000761E80185941C90241EA5051B1FBF3F7D2
:100B300003FB1711A2FB0735D3EBC020A94167F1D6
:100B400000070CBF004247F0010766F3D5274FEAC4
:100B50001E31B80814F5806414DDBD0775F100423C
:100B600050EB0E5051EB045111F5801F5CBF41EA70
:100B70000C01BDE8F0814CF07F6141F0E0410020C4
:100B8000BDE8F081BD076D0840EA0E5041F48011C8
:100B9000D4F10104B4F120060ADAC4F120060200FF
:100BA000E04001FA06F3E1401843B24015430EE07D
:100BB000342C14DCC6F1200445EA40056D0820FA07
:100BC00006F2154321FA06F0A1400D43002175F10C
:100BD000004250F1000051EB0C01BDE8F081002013
:100BE0005FEA0C01BDE8F081CFB992185B41B3FA1E
:100BF00083F704BFB2FA82F6BF190B3FB7F12006A4
:100C00002FBF02FA06F3BB40C7F1200622FA06F610
:100C100038BF3343BA401CB1E419641E2FE77F424A
:100C200031F00041B1FA81F404BFB0FA80F6A419A2
:100C30000B3CB4F120062FBF00FA06F1A140C4F12D
:100C4000200620FA06F638BF3143A0403C1B16E7C9
:100C5000AC421ABF05EA1357AF4214E050EA41060E
:100C60001CBF52EA4306BFE750EA410730466146DF
:100C70001CBF41EA0551BDE8F08152EA430C08BFB0
:100C8000C143BDE8F08100204FF4001616EB410F80
:100C900098BF16EB430F08BF16EB410F24BFC143AB
:100CA00005E016EB430F0CBF61464CEA0551BDE869
:100CB000F0810000F446400D40EAC120490006D210
:100CC00000F00EF8004248BF6FF00040604700F0AF
:100CD00007F84FF0004188428CBF08464042604709
:100CE00040F00040490DA1F58061491C05D4D1F1C7
:100CF0001F0154BFC840C01770474FF00000704735
:100D0000010040F10980F446404200F005F851F03E
:100D100000416047010000BF09D0B0FA80F188406F
:100D2000C91CC1F58461090501EBD021400570475C
:100D3000B0B581EA030C0CF0004C40F2FF7515EAE7
:100D400011541DBF15EA1357AC42AF4239E0E41904
:100D500023EA455343F48013C90241F0004141EABC
:100D6000505EC7021100A7FB020200284FF00000EE
:100D7000EEFB01204FF00001E3FB072118BF42F01A
:100D80000102401800214941E3FB0E01A4F58064F3
:100D90000F0302D252004041494154F101046CDD7D
:100DA000470872F1004250F1000051EB0451A1F5E7
:100DB00080115CBF41EA0C01B0BD4CEA0551002036
:100DC000B0BD05EA1357AC4214BFAF4241E050EA50
:100DD000410E1CBF52EA430E02E061460020B0BD46
:100DE00024423C441BD15FEA070EF6D0090302BF40
:100DF00001460020AEF1140EB1FA81F7AEEB070404
:100E000001FA07FE0C37C7F1200100FA07F7C840C6
:100E10004EEA000E23EA455343F48013A2E733F071
:100E20000043B3FA83F704BFB2FA82FE77440B3F64
:100E3000E41BB7F1200E2FBF02FA0EF3BB40C7F13F
:100E4000200E22FA0EFE38BF43EA0E03BA40641C9D
:100E500082E750EA410E14BF52EA430E6FF00001E0
:100E60004FF4001717EB430F8ABF194617EB410FDA
:100E7000B5E74CEA05510020B0BDD4F10104B4F14E
:100E800020070FDAC4F12007520828BF42F0010200
:100E900010FA07F501FA07F7E1BF2A43E0403843AB
:100EA000E1400FE0352C98DCC7F1200452EA400203
:100EB00020FA07F218BF42F0010231FA07F0A14010
:100EC0000A43002172F1004250F1000051EB0C0185
:100ED000B0BD000070B504000D0016003068012898
:100EE00002D0022805D00AE02000C0B2716888470D
:100EF00005E0B0680470B068401CB060FFE7286887
:100F0000401C286070BD2DE9F04704005FF0000A26
:100F10005046A1465FF0000A89F800A019F10109C6
:100F2000002A1FD0D1F800A05546002D05D15FF052
:100F3000300A89F800A0401C38E0002D36D095FB1F
:100F4000F3FA564603FB165A5746002F02D5FF43C5
:100F5000313700E03037350089F8007019F10109A8
:100F6000401CEAE7D1F800A0D446BCF1000F05D13F
:100F70005FF0300A89F800A0401C17E0BCF1000FB8
:100F800014D0BCFBF3FAD64603FB1ECAD046B8F118
:100F90000A0F02D218F1300801E018F13708F446C0
:100FA00089F8008019F10109401CE7E7BDE8F087E6
:100FB0002DE9F04104000D0016001F00A046A845D1
:100FC00007DA3A0031003020FFF784FF18F10108FA
:100FD000F5E7BDE8F0812DE9F04104000D001600B1
:100FE0001F00A046A84507DA3A0031002020FFF78D
:100FF00071FF18F10108F5E7BDE8F0812DE9F24F26
:1010000092B00400150000200090129883469BF8CF
:10101000000001900198002800F0F5810198252832
:1010200013D001980A2805D0220069460198FFF7DD
:1010300051FF09E0220069460D20FFF74BFF220017
:1010400069460A20FFF746FFDAE1002081460020CA
:1010500004900498002822D11BF1010B9BF800009A
:1010600020280ED0232812D02B2807D02D2802D0DC
:10107000302809D00EE059F00109EAE759F00209D9
:10108000E7E759F00409E4E759F00809E1E759F006
:101090001009DEE7BBF1010B01200490D9E7002025
:1010A0008246002004900498002814D11BF1010B03
:1010B0009BF80000019001983038092806D80A20D2
:1010C000019900FB0A10B0F1300AECE7BBF1010B0B
:1010D00001200490E7E71BF1010B9BF800002E288C
:1010E00011D100200490049800280ED11BF1010BAF
:1010F0009BF800003038092800D8F4E7BBF1010B59
:1011000001200490EFE7BBF1010B1BF1010B9BF8F1
:1011100000004C2806D0682802D06C2801D002E0DC
:1011200003E002E001E0BBF1010B1BF1010B9BF8B6
:10113000000001900198582875D0622800F0D580F1
:10114000632800F01D81642813D0692811D06E280F
:1011500000F04A816F2800F0BD80702800F0D08038
:10116000732800F01781752800F0D58078285AD0B0
:1011700041E128682D1D06900A23012206A909A82D
:10118000FFF7C1FE070009A83844060006980028AA
:1011900003D52D2003907F1C0FE05FEA897003D5F3
:1011A0002B2003907F1C08E05FEA497003D52020C4
:1011B00003907F1C01E000200390002005905FEA6F
:1011C000097011D50398002804D0220069460398BD
:1011D000FFF780FE0120059023006A465146380043
:1011E000FFF7E6FE574612E05FEAC9700FD423000E
:1011F0006A4651463800FFF7EEFE0398002804D0F7
:10120000220069460398FFF765FE012005900598C6
:10121000002807D10398002804D0220069460398CB
:10122000FFF758FE98E028682D1D02901023002239
:1012300002A909A8FFF767FE070009A838440600BD
:10124000002005905FEA097016D55FEAC9600BD5EA
:10125000220069463020FFF73DFE220069467820D3
:10126000FFF738FE0120059023006A4651463800FA
:10127000FFF79EFE57461BE05FEAC97018D45FEA8D
:10128000C96000D5BF1C23006A4651463800FFF7ED
:10129000A2FE5FEAC9600BD5220069463020FFF745
:1012A00019FE220069467820FFF714FE0120059000
:1012B0005FEAC9600DD5059800280AD12200694669
:1012C0003020FFF707FE220069467820FFF702FE74
:1012D000BF1C41E028682D1D02900823002202A9AE
:1012E00009A8FFF710FE07001FE028682D1D0290D7
:1012F0000223002202A909A8FFF705FE070014E057
:1013000028682D1D02901023002202A909A8FFF7CA
:10131000FAFD070009E028682D1D02900A2300222B
:1013200002A909A8FFF7EFFD070009A83844060045
:101330005FEA097007D523006A4651463800FFF777
:1013400037FE574608E05FEAC97005D423006A46B5
:1013500051463800FFF73FFE3078002806D02200C3
:1013600069463078FFF7B6FD761EF5E75FEAC9708B
:1013700005D523006A4651463800FFF72CFE3FE0B2
:1013800028682D1DC0B20790220069460798FFF714
:10139000A1FD35E028682D1D8046B8F1000F22D050
:1013A000404600F062F807005FEAC97005D42300E8
:1013B0006A4651463800FFF70EFE98F800000028F4
:1013C00008D02200694698F80000FFF783FD18F165
:1013D0000108F2E75FEAC97005D523006A46514665
:1013E0003800FFF7F8FD0BE028682D1D08900098E5
:1013F0000899086004E0220069460198FFF76AFD39
:101400001BF1010B03E6009813B0BDE8F08F0EB49A
:101410007EB50400012000900648019007A8050051
:101420002A0021006846FFF7E9FD060030007EBC77
:101430005DF810FBE54000000CB4FEB504000D00A3
:101440000027002C0DD002200090029408A806006E
:10145000320029006846FFF7D1FD070000200299FD
:1014600008703800FEBC5DF80CFB01000A00002388
:10147000002A01D1002007E01000421C007800285B
:1014800001D05B1CF8E718007047000010B572B679
:10149000012000F095FB0400DFF8D414012000F0D7
:1014A000A9FB2100C9B2012000F097FB62B610BD74
:1014B00080B5DFF8C004006850F00100DFF8B41414
:1014C00008600A2202210020FFF74EF9DFF8A80485
:1014D0000068102803D10020DFF89C140860DFF8B2
:1014E00098040068401CDFF89014086001BD0000FB
:1014F00080B572B6DFF884040088401CDFF87C14E5
:1015000008800A2303220921002000F0F2FCFFF7E3
:1015100001FCDFF86C24C2E90001DFF86404D0E9C3
:1015200000010022DFF85C34FFF798FA5FF06632C2
:10153000DFF85434FFF7FCFBDFF84424C2E9000174
:101540000A2303220A21002000F0D3FCFFF7E2FB6C
:10155000DFF83824C2E90001DFF83004D0E90001E7
:101560000022DFF82034FFF779FA5FF06632DFF807
:101570001834FFF7DDFB0022DFF81434FFF7D8FB47
:10158000DFF80824C2E900010A2303220C2100200D
:1015900000F0AFFCFFF7BEFBDFF8F823C2E9000163
:1015A000DFF8F003D0E900010022DFF8D833FFF7BD
:1015B00055FA5FF06632DFF8D033FFF7B9FB00224F
:1015C000DFF8CC33FFF7B4FBDFF8C823C2E9000132
:1015D000DFF8C403D0E90023DFF8A403D0E9000159
:1015E00000F010FDDFF8B023C2E90001DFF88C0342
:1015F000008840F6B83188423ED10020DFF87C13E5
:101600000880DFF89403D0E900010022DFF88C3372
:10161000FFF724FADFF88023C2E90001DFF878033E
:10162000D0E90001DFF85823C2E9000100F0DFFD36
:1016300000200021DFF86023C2E90001DFF84C033D
:10164000D0E900010022DFF8583300F001FE13D882
:10165000002301220321022000F012FE00230122B8
:101660000421022000F00CFE0020DFF8381308608F
:101670000020DFF83413086062B6DFF8300300683A
:1016800050F00100DFF82413086001BD7047704777
:1016900080B5DFF81C03FFF7BAFEFAE70020082147
:1016A0000800DFF810130968C140C9071ED5DFF82C
:1016B00004130968012282401143BE4A1160BE49E9
:1016C0000988002903D10121BC4A11700EE0BA49F2
:1016D00009880E290ADB0021B74A11800021B74A88
:1016E0001170B7490978491CB54A117009210800E1
:1016F000B0490968C140C9071DD5AE490968012232
:1017000082401143AB4A1160AE490988002903D1D8
:101710000121AD4A11700EE0AA4909880E290ADBA1
:101720000021A84A11800021A74A1170A749097811
:10173000491CA64A11700A2108009E490968C14047
:10174000C9071DD59B490968012282401143994A66
:1017500011609F490988002903D101219D4A117018
:101760000EE09B4909880E290ADB0021984A118066
:101770000021984A117098490978491C964A1170BD
:101780000B2108008B490968C140C9071DD589494B
:101790000968012282401143864A11608F490988F5
:1017A000002903D101218E4A11700EE08B4909886E
:1017B0000E290ADB0021894A11800021884A117014
:1017C00088490978491C874A117070470020002118
:1017D000080085490968C140C90706D582490968DA
:1017E000012282401143804A11600A2108007E498B
:1017F0000968C140C90706D57B49096801228240B2
:101800001143794A116070477848006850F0010030
:101810007649086069480078002804D06648008846
:10182000401C6549088064480088972805DB002033
:1018300061490880002061490870634800780028E9
:1018400004D060480088401C5E4908805D480088DC
:10185000972805DB00205B49088000205A49087062
:101860005C480078002804D059480088401C58493A
:10187000088057480088972805DB002054490880D5
:1018800000205449087056480078002804D0534876
:101890000088401C5149088050480088972805DB83
:1018A00000204E49088000204D490870704770475D
:1018B00038B54F48046800204D49086000200500F5
:1018C0000120A8402100C9B201420CD04948EDB224
:1018D00050F8350030F040004649EDB241F835008F
:1018E0004548FFF794FD012005000120A840210094
:1018F000C9B2014209D03F48EDB250F8350030F08E
:1019000040003C49EDB241F8350031BD80B53B485F
:10191000006850F0100039490860042000F029FDEB
:101920003748006830F0100035490860012035491B
:10193000087001BD80B53448FFF769FD2F48006885
:1019400050F001002D4908602D48006850F001005A
:101950002B49086001BD2D48006850F080002B49DC
:1019600008602B480078401C294908707047000027
:101970003C3F00001C7103403C05FF1F6005FF1F3A
:101980000805FF1FE0FFEF4066660A401005FF1FD5
:10199000000030401805FF1F2005FF1F0070A74002
:1019A000000038404805FF1F5005FF1F0C71034021
:1019B0000C3D0000A0C004406205FF1F6C05FF1F26
:1019C0006D05FF1F6405FF1F6E05FF1F6F05FF1FDD
:1019D0006605FF1F7005FF1F7105FF1F6805FF1FCC
:1019E0007205FF1F7305FF1FA0A004402C71034068
:1019F000509003400C9003400440000024800040BD
:101A00000C8000407405FF1F503F000000000440A0
:101A10007505FF1FF0B4C0B2002808D0022824D0FA
:101A200014D304283FD02FD305284BD059E04FF4CE
:101A30004076774F3E604FF44076764F3E60764E6C
:101A4000366856F48066744F3E604AE04FF4407644
:101A5000724F3E604FF44076714F3E606E4E366876
:101A600056F400666C4F3E603BE04FF440766D4F9D
:101A70003E604FF440766C4F3E60674E366856F4D9
:101A80008056654F3E602CE04FF44076674F3E60D5
:101A90004FF44076664F3E605F4E366856F400560F
:101AA0005D4F3E601DE04FF44076624F3E604FF464
:101AB0004076614F3E60614E366856F480665F4FF7
:101AC0003E600EE04FF440765D4F3E604FF440764E
:101AD0005C4F3E60594E366856F40066574F3E6084
:101AE000FFE7594EC0B256F82060F67816F0F306BC
:101AF000554FC0B257F82070FE700026524FC0B24A
:101B000057F82070BE70C0B2002801D1012600E055
:101B10000026C0B2012801D1012700E00027F6B25B
:101B2000FFB23E43002E06D0484E36684FF47A7717
:101B30007E43350005E0464E36684FF47A777E43A3
:101B400035000E01B5FBF6F632003F4EC0B256F836
:101B50002060367816F0E0063400C2F304262643EF
:101B6000394FC0B257F820703E70374EC0B256F8A9
:101B7000206072706E010F01B6FBF7F692B2B6EB01
:101B800042163300304EC0B256F82060B67A16F0D6
:101B9000E006340013F01F0626432B4FC0B257F85F
:101BA0002070BE72284EC0B256F82060F67856F00B
:101BB0000C06254FC0B257F82070FE70F0BC70477D
:101BC0002149C0B251F8201009798906F8D51E497B
:101BD000C0B251F82000C07970471B4AC0B252F819
:101BE000202012791206F8D5174AC0B252F82020E8
:101BF000D171704738B504000D002878002806D050
:101C000029782000C0B2FFF7E8FF6D1CF5E731BD71
:101C10003C90044038900440348004400CB00440B0
:101C200010B004400CC0044008C0044040B0044060
:101C300044B0044064D0044060D004402880044094
:101C400024D0044020D004409C04FF1F5405FF1FF3
:101C50005C05FF1F38B504000D00E4B2002C05D16F
:101C6000EDB2082D02DBEDB2132D0DDBE4B2012C39
:101C700005D1EDB2042D02DBEDB2122D04DB2221E1
:101C8000DFF82C03FEF7DEFEE4B2002C02D0012CBC
:101C90007CD0EEE0DFF81C03006850F00060DFF855
:101CA00014130860DFF81003006830F09000DFF8CC
:101CB000081308600020DFF800130860EDB2280068
:101CC000083801280CD9801E01281AD9801E012845
:101CD00028D9801E012836D9C01E012844D953E0D6
:101CE000DFF8D802006850F48060DFF8D012086096
:101CF0000020DFF8CC12EDB201EB850141F8200C99
:101D000043E0DFF8B802006850F40070DFF8AC126E
:101D100008600020DFF8AC12EDB201EB850141F85C
:101D20000C0C32E0DFF89402006850F48060DFF8B9
:101D30008C1208600020DFF88812EDB201EB8501FB
:101D400041F8280C21E0DFF87402006850F40060CC
:101D5000DFF8681208600020DFF86C12EDB201EBCA
:101D6000850141F8380C10E0DFF85002006850F4AB
:101D70000050DFF8481208600020DFF85012EDB282
:101D800001EB8501C86100E073E072E0DFF840021A
:101D9000006850F00060DFF838120860DFF81802C1
:101DA000006830F41040DFF8101208600020DFF8FF
:101DB00008120860EDB22800001F03280BD9001F8D
:101DC000012819D9801E032827D9001F012835D9D9
:101DD000C01E41D04CE0DFF8E401006850F4005030
:101DE000DFF8D81108600020DFF8E011EDB201EB58
:101DF000850141F8100C3BE0DFF8C001006850F4A9
:101E00008060DFF8B81108600020DFF8B411EDB28F
:101E100001EB850141F8200C2AE0DFF8A001006801
:101E200050F48060DFF8941108600020DFF8901112
:101E3000EDB201EB850141F8180C19E05F4800682C
:101E400050F480605D49086000205D49EDB201EB0F
:101E5000850141F8180C0BE05848006850F40070F8
:101E60005649086000205749EDB241F82500FFE7C8
:101E7000FFE731BDF8B504000D0016000027E4B2FD
:101E8000002C05D1EDB2082D02DBEDB2132D0CDBD9
:101E9000E4B2012C05D1EDB2042D02DBEDB2122D1E
:101EA00003DB87214248FEF7CDFD3200D2B2290084
:101EB000C9B22000C0B200F057F84648E4B250F86A
:101EC000240000680006F8D54248E4B250F8240027
:101ED000006907003F48E4B250F82400006830F081
:101EE00080003C49E4B251F824100860380080B208
:101EF000F2BD2DE9F84304000D00160099460027B5
:101F0000E4B2002C05D1EDB2082D02DBEDB2132DA9
:101F10000CDBE4B2012C05D1EDB2042D02DBEDB2F5
:101F2000122D03DBBE212248FEF78CFD00208046E7
:101F300040464946C0B2C9B288420DD23200D2B240
:101F40002900C9B22000C0B2FFF794FF17FA80F051
:101F5000070018F10108EBE75FFA89F9B7FBF9F719
:101F6000380080B2BDE8F28370B504000D001600A1
:101F700015F01F0050F0400017490872B00010F033
:101F80000C0050F0500014490870042012494870A9
:101F900041F234201049488045F278600E4988802B
:101FA0000D490C48E4B250F8240000F017F870BD59
:101FB000F83B00003C800440188004403880044016
:101FC00000A004400090044000B0044000D0044051
:101FD000308004404004FF1F2805FF1F0A788260FC
:101FE0004A78C2604A8882618A88C2618A790262BC
:101FF000CA794262CA6802650A7A02604A7A426015
:1020000070470000F0B44FF0004591EA030C44BF64
:102010006B4000F0EBB900BF841A71EB030603D2EA
:10202000001BB141121973414FF4001C1CEB410F0E
:1020300034BF7CEB430443E00C0DA4EB1356352E68
:1020400050DC45EAC323DB0A45EAC121C912B6F1D7
:1020500020050DDD63FA05F6EB4086EA0305124222
:1020600018BF45F00105C01851F100010CD213E072
:1020700062FA06F5F2405540F3415A40B340F3404E
:102080005A408018594107D349085FEA30005FEA97
:10209000350528BF45F0010501F58011420875F1AD
:1020A000004250F1000041EB0451F0BC4FF4001C21
:1020B0001CEB410F38BF70470020090D0905704720
:1020C0001CEB410F10D252EA43060BD0BCEB410F80
:1020D00005D80C0DAB43661E342EB5DD02E0AB43D4
:1020E00080185941F0BC7047F0BC704710B572B60B
:1020F0005FF4E1310020FFF78DFC01230122102164
:10210000002000F0BDF800F027FA00F006FD0921DC
:102110000020FFF79FFD0A210020FFF79BFD0C2107
:102120000020FFF797FD002344F6206202210020E3
:10213000FEF78CF9002344F6206203210020FEF70D
:1021400085F93D48026814003C480068FEF7D8FD58
:102150002200FEF742FB62B600F003F800F0B2FA8C
:10216000FCE780B5002000F0AAFC322000F0F6FB6E
:10217000334A0021002000F06EFD2F480268002144
:10218000192000F035F82F4A0221002000F063FDED
:102190002A4802680221232000F02AF801BD80B5F8
:1021A0002948007801280BD027480078042807D058
:1021B00025480078022803D023480078052815D147
:1021C0001E4802680221232000F012F81B48006814
:1021D000FEF796FDFEF7CAFB17480268002119209A
:1021E00000F006F814480068FEF79EFB01BD70473A
:1021F0002DE9F04F83B004008B4615006846134963
:10220000062200F06DFD002600275FF000085FF059
:1022100000095FF0000A2A0006A16846FFF70CF9E2
:102220006A4658460100C9B22000C0B200F013FD52
:10223000BDE8F78F256400008C04FF1F9004FF1F8A
:1022400030410000384100007705FF1F4041000089
:102250004FF4001C1CEB410F94BF1CEB430F09E033
:1022600041EA030C50EA4C0C52EA0C0C03D28B42AC
:1022700008BF8242704714BF9942904270470000E5
:10228000F8B504000D0016001F00EDB2202D02D29B
:10229000FFB2022F03D347213148FEF7D3FB314869
:1022A000E4B250F82400EDB2F6B256F4807140F872
:1022B0002510F00705D5F6B2032E02D0F6B2132E84
:1022C0000DD12948E4B250F8240040690121A94009
:1022D00088432549E4B251F8241048612AE0224895
:1022E000E4B250F8240040690121A94008431E4986
:1022F000E4B251F824104861FFB2012F0DD11A4801
:10230000E4B250F8240000680121A94008431649AE
:10231000E4B251F8241008600CE01348E4B250F81D
:10232000240000680121A94088430F49E4B251F814
:1023300024100860F1BD38B504000D00EDB2202D69
:1023400003D394210648FEF77DFB0748E4B250F81A
:1023500024000069E84010F0010032BD00000000D8
:10236000C43B00006804FF1F5404FF1F1A490860A3
:10237000704738B504005C2C02DB1848FFF747F8BB
:10238000202094FBF0F00500002D03D0022D17D083
:102390000BD31FE02020012194FBF0F200FB124040
:1023A00011FA00F00E49086014E02020012194FB8E
:1023B000F0F200FB124011FA00F00A49086009E04F
:1023C0002020012194FBF0F200FB124011FA00F0F2
:1023D0000549086031BD000008ED00E0883B0000C1
:1023E00080E100E084E100E088E100E0841A71EB24
:1023F000030604D26E40001BB141121973414FF421
:10240000001C1CEB410F34BF7CEB430684E00C0D39
:10241000A4EB1356362E7DDC012E43DC45EAC323A4
:1024200043EA525312BFD20292025B08240545EAE6
:10243000C12141EA5051D2EBC020994125D407D1A6
:10244000B0FA80F610FA06F164D00020203608E0D9
:10245000B1FA81F6B140C6F1200220FA02F211432E
:10246000B0404FEAF474B4EB465434F001064FEA3E
:1024700074040AD8D6F50016760D04F00044F04036
:1024800061FA06F25040F1404840C00A40EA41502B
:1024900021F0004128BF5FEA500550F1000044EBF5
:1024A000D12137E045EAC323DB0A45EAC121C90A45
:1024B000B6F120050EDD42EA0242120CC5F12006FB
:1024C00003FA06F6EB4042EA06056D42984161F1D7
:1024D00000010DE062FA06F5F240554063FA06FC91
:1024E00082EA0C02F3405A406D42904161EB0301D5
:1024F00011F4801F05D1641E620502D06D004041B9
:10250000494121F48011430875F1004350F1000066
:1025100041EB0451F0BC70471CEB410F15D223F086
:10252000004352EA43060BD04FEA4C0CBCEB410F80
:1025300004D80C0D661E342EB7DDEBE7801A9941E6
:1025400050EA410608BF0021E4E708BF1CEB430F37
:1025500028BF6FF00001DDE780B5012300220021D4
:102560000420FFF78DFE0123002201210420FFF744
:1025700087FE0123002202210420FFF781FE0123B0
:10258000002203210420FFF77BFE00230122042107
:102590000420FFF775FE0023012205210420FFF728
:1025A0006FFE0023012206210420FFF769FE0023AD
:1025B000012207210420FFF763FE0020DFF8141337
:1025C00008700020DFF8101308700020DFF80C13EB
:1025D00008700020DFF8081308600020DFF80413FB
:1025E00008700020DFF80013088001BD38B5802096
:1025F000DFF8F812087000200400E4B2042C47DA77
:10260000F020DFF8EC120870DFF8E4020078DFF861
:10261000DC120978401ADFF8D8120870DFF8CC0213
:102620000078C0B24008DFF8C4120870DFF8C402B6
:102630000078C0B210F00F000F2827DA0120DFF871
:10264000B812087000200500EDB2042D1EDADFF884
:10265000A4020078C0B2DFF8A0120978084010F098
:102660000F0F0AD1DFF89402E4B2A10051FA85F10C
:10267000405CDFF86812087022E0DFF87C02007826
:102680004000DFF8741208706D1CDDE7641CB4E7CD
:1026900000210420FFF74FFE0028F9D0012104207B
:1026A000FFF749FE0028F3D002210420FFF743FE84
:1026B0000028EDD003210420FFF73DFE0028E7D0DD
:1026C00031BD000010B5DFF8280200780020DFF8E7
:1026D00020120870DFF81C02007810F00F000400D0
:1026E000DFF8F401007800280ED1E4B214F00F00F6
:1026F0000F2809DA0120DFF8E01108700F2000F040
:102700002BFBFFF773FFE3E0DFF8CC010078012833
:1027100040F0DD80E4B214F00F000F2840F0D780C5
:102720000020DFF8B41108700120DFF8A81108704C
:10273000DFF8A8010078002873D0022829D018D328
:1027400004281ED036D306283FD02BD308285DD0CE
:1027500046D30A2800F086806ED30C2800F0A980AA
:10276000C0F0AB800E2846D0C0F09C800F286ED001
:10277000A7E0DFF88C0100680A30DFF884110860F8
:102780009FE0DFF87C0100680A38DFF87411086008
:1027900097E0DFF87001006810F57A70DFF86411D7
:1027A00008608EE0DFF85C010068B0F57A7055498A
:1027B000086086E05448D0E9002354485449FFF7A4
:1027C00021FC514AC2E900017BE04F48D0E90023D7
:1027D0004E485049FFF716FC4B4AC2E9000170E031
:1027E0004D48D0E900234D484D49FFF70BFC4A4ABC
:1027F000C2E9000165E04848D0E90023474849495B
:10280000FFF700FC444AC2E900015AE04648D0E91B
:10281000002300204549FFF7F5FB434AC2E90001C8
:102820004FE04148D0E9002300204149FFF7EAFB8F
:102830003D4AC2E9000144E03E48D0E90023334864
:102840003349FFF7DFFB3B4AC2E9000139E0394871
:10285000D0E900232D482F49FFF7D4FB354AC2E9C0
:1028600000012EE000203149334AC2E90001002076
:102870003249294AC2E9000100203149314AC2E9FE
:1028800000015FF0333030491F4AC2E900010020E7
:102890002B49254AC2E9000100202C49254AC2E9FA
:1028A00000010EE001202A49086000202949086043
:1028B00007E001202849086003E00120254908605D
:1028C000FFE7FFF76CFC0B200449087000E000BF35
:1028D00010BD00007805FF1F7605FF1F7705FF1F5D
:1028E0004005FF1F7905FF1F6A05FF1F7A05FF1FBF
:1028F00000F10F4010F10F407B05FF1F7C04FF1F0C
:102900008C04FF1F9004FF1F2804FF1F7B14AE4799
:10291000E17A843FE17A84BF1804FF1F9A9999995C
:102920009999B93F9999B9BF3004FF1F0000F03F52
:102930000000F0BF3804FF1F1004FF1F00003D40DF
:10294000000034402004FF1F3333D33F0000E03F3A
:102950004805FF1F4405FF1F4C05FF1F10B480B240
:10296000002801D1012318000C2310FB03F00023E1
:1029700019000B0004009BB2A4B2A3420AD20023A8
:102980001A0092B240F237539A4201DA521CF8E729
:10299000491CEEE710BC70470821DFF838231268A5
:1029A00052F00402DFF82C331A60DFF82823126893
:1029B00032F00202DFF81C331A6000BF0A00511E19
:1029C000D2B2002A25D0020608D5DFF80823126803
:1029D00052F00802DFF8FC321A6007E0DFF8F42258
:1029E000126832F00802DFF8EC321A60DFF8E422F5
:1029F000126852F00202DFF8DC321A6000BFDFF822
:102A0000D422126832F00202DFF8C8321A604000A5
:102A1000D4E770470821DFF8BC22126832F00402C4
:102A2000DFF8B0321A60DFF8AC22126832F002022E
:102A3000DFF8A0321A600A00511ED2B2002A25D057
:102A4000020608D5DFF88C22126852F00802DFF87F
:102A500084321A6007E0DFF87C22126832F0080244
:102A6000DFF870321A60DFF86C22126852F002024E
:102A7000DFF860321A6000BFDFF85822126832F0C7
:102A80000202DFF850321A604000D4E7704738B5D0
:102A900004000D00B5F15000C0B2FFF7BBFF2000ED
:102AA000C0B2000950F01000C0B2FFF7B3FF14F03D
:102AB0000F0050F00100C0B2FFF7ACFF31BD70B5A0
:102AC000040000200500EDB2082D17DAB5F1500022
:102AD000C0B2FFF79FFF0120FFF79CFF1020FFF718
:102AE00099FF00200600F6B2802E05DA2000C0B261
:102AF000FFF752FF761CF6E76D1CE4E770BD80B26D
:102B0000002809D04FF47A5211000A00511E92B2E7
:102B1000002AFAD1401EF2E7704780B50123012256
:102B200001210320FFF7ACFB012301220221032036
:102B3000FFF7A6FB0123012203210320FFF7A0FBDF
:102B40000123012204210320FFF79AFB0023012225
:102B50000F210220FFF794FBDFF87801006850F0A6
:102B60000200DFF870110860DFF86801006830F0DB
:102B70001000DFF860110860DFF85C01006830F4D5
:102B80000040DFF8541108603220FFF7B8FFDFF88B
:102B90004801006850F40040DFF83C110860AE20A6
:102BA000FFF738FF0020FFF735FF1020FFF732FF57
:102BB0004020FFF72FFF8120FFF72CFFCF20FFF7EA
:102BC00029FFA120FFF726FFC820FFF723FFA6203B
:102BD000FFF720FFA820FFF71DFF3F20FFF71AFF98
:102BE000D320FFF717FF0020FFF714FFD520FFF7D2
:102BF00011FF8020FFF70EFFD920FFF70BFFF12018
:102C0000FFF708FFDA20FFF705FF1220FFF702FFAA
:102C1000DB20FFF7FFFE4020FFF7FCFE2020FFF740
:102C2000F9FE0220FFF7F6FE8D20FFF7F3FE1420D9
:102C3000FFF7F0FEA420FFF7EDFEA620FFF7EAFE67
:102C4000AF20FFF7E7FE0020FFF739FF002100204B
:102C5000FFF71DFF01BD2DE9F84304000D0016002C
:102C600000275FF000085FF000095FFA89F916F8A5
:102C7000090000282BD05FFA89F916F809002038DE
:102C80000700E4B27F2C02DB002004006D1C290049
:102C9000C9B22000C0B2FFF7FAFE002080465FFAFA
:102CA00088F8B8F1060F0EDA0C48FFB2062101FBD6
:102CB00007F108445FFA88F810F80800FFF76CFE87
:102CC00018F10108EBE7A41D19F10109CDE7BDE8F2
:102CD000F1830000C0F00F4080F00F401437000077
:102CE00062B38B0708D0521E11F8013B00F8013B7C
:102CF00000F024808B07F6D1830740F0208000BFCE
:102D0000103A07D330B4B1E83810103AA0E83810C0
:102D1000F9D230BC530724BFB1E80810A0E808106E
:102D200044BF51F8043B40F8043BD20724BF31F8BC
:102D3000022B20F8022B44BF0B7803707047083A2F
:102D400007D3B1E80810083A40F8043B40F804CB38
:102D5000F7D25307E4E700000E49096851F001017A
:102D60000C4A11600D49086005210D4A11600A499D
:102D7000096851F00101084A11600749096809060C
:102D8000FBD50549096849084900034A11607047A5
:102D900000000000388004400000044008000440A7
:102DA0000400044080B500F08DFA00F0A7FA00F0AE
:102DB00005FBDFF8E803FEF72AFBDFF8E403006811
:102DC000DFF8E0134979491CB0FBF1F00090DFF81F
:102DD000D0030068DFF8CC130979491CB0FBF1F38C
:102DE000DFF8BC030068DFF8BC13C978491CB0FBEE
:102DF000F1F2DFF8AC030168DFF8AC03FEF707FB84
:102E0000DFF8A8030078400703D5DFF8A403FEF736
:102E1000FEFADFF898030078800703D5DFF8940303
:102E2000FEF7F5FADFF884030078C00703D5DFF872
:102E30008803FEF7ECFADFF884030078000603D578
:102E4000DFF87C03FEF7E3FADFF870030078400652
:102E500003D5DFF87003FEF7DAFADFF860030078D5
:102E6000800603D5DFF86003FEF7D1FADFF84C03E4
:102E70000078400703D5DFF85403FEF7C8FADFF8FF
:102E80003C030078800703D5DFF84403FEF7BFFA60
:102E9000DFF828030078C00703D5DFF83803FEF712
:102EA000B6FADFF83403FEF7B2FADFF83003DFF8E2
:102EB0003013884204D0DFF82C03FEF7A8FA03E0B1
:102EC000DFF82403FEF7A3FA00F003F8FFF70EF98A
:102ED000FEE780B5DFF814030068000910F0070072
:102EE00000280BD0022813D00DD3042819D014D3F6
:102EF00006281ED019D307281FD022E0DFF8F002E1
:102F0000FEF785FA20E0DFF8EC02FEF780FA1BE01E
:102F1000DFF8E402FEF77BFA16E0B848FEF777FA2E
:102F200012E0B748FEF773FA0EE0B648FEF76FFA04
:102F30000AE0B548FEF76BFA06E0B448FEF767FA18
:102F400002E0B348FEF763FAA848006810F00F00EB
:102F5000022812D0042814D0052816D0062818D02C
:102F600007281AD008281CD009281ED00A2820D0EB
:102F70000C2822D00E2824D027E0A648FEF747FAD6
:102F800026E0A548FEF743FA22E0A448FEF73FFA00
:102F90001EE0A348FEF73BFA1AE0A248FEF737FA14
:102FA00016E0A148FEF733FA12E0A048FEF72FFA28
:102FB0000EE09F48FEF72BFA0AE09E48FEF727FA3C
:102FC00006E09D48FEF723FA02E09C48FEF71FFA50
:102FD00086480068000B10F00F00002803D002287C
:102FE00009D004D30BE09648FEF711FA0AE09548A1
:102FF000FEF70DFA06E09448FEF709FA02E093485E
:10300000FEF705FA00F06AF891480068000E10F02B
:103010000F00072806D0092808D00B280AD00F284F
:103020000CD00FE08B48FEF7F2F90EE08A48FEF76D
:10303000EEF90AE08948FEF7EAF906E08748FEF76C
:10304000E6F902E08648FEF7E2F9864800680002E9
:1030500003D58548FEF7DBF91EE07D480068000FC8
:10306000002806D0072808D009280AD00F280CD03D
:103070000FE07E48FEF7CBF90EE07D48FEF7C7F97A
:103080000AE07C48FEF7C3F906E07A48FEF7BFF98C
:1030900002E07948FEF7BBF978480068000B10F0B1
:1030A0000F00052806D0072808D008280AD00928CC
:1030B0000CD00FE07248FEF7AAF90EE07148FEF757
:1030C000A6F90AE07048FEF7A2F906E06F48FEF79D
:1030D0009EF902E06E48FEF79AF901BDF8B50320AB
:1030E0006C49087000206C49087000206B4908701A
:1030F00000206B49087001206A49087080206A49E5
:103100000870694800780006FBD56848007804001C
:103110006748007805006748007806006648007830
:103120000700FFB20097F6B23300EDB22A00E4B216
:1031300021006248FEF76BF9032056490870002011
:1031400055490870002055490870042054490870FA
:103150000120544908708020534908705248007873
:103160000006FBD55148007804005148007805005E
:10317000504800780600504800780700FFB20097DA
:10318000F6B23300EDB22A00E4B221004C48FEF75B
:103190003EF9FF2044490870F1BD00002C3D0000BD
:1031A0005805FF1F9404FF1FC03A000000E00740CD
:1031B00014400000CC3D0000F440000001E0074056
:1031C00024400000643F0000643E00007C3E00009C
:1031D000E83D0000004100004C3D00000000FF1FE2
:1031E000000000000C410000184100002480044051
:1031F000484100005041000058410000604100007B
:1032000068410000704100007841000080410000EA
:10321000843C000034400000444000005440000062
:1032200064400000744000008440000094400000AE
:10323000A4400000B4400000C4400000583C00001E
:10324000783F00008C3F0000A03F0000083B0000DA
:103250004C800440943E0000AC3E0000C43E0000A0
:103260006C3D000050800440D4400000DC3E000073
:10327000F43E00000C3F00008C3D00000070044054
:10328000B43F0000C83F0000DC3F0000F03F0000FA
:10329000043E000007000240060002400500024014
:1032A000040002400F000240000002400B000240F8
:1032B0000A0002400900024008000240AC3C000045
:1032C000AC3D000080B500F009F80A4800884FF6D0
:1032D000FE7108400749088001BD000072B64CF23B
:1032E0002050054908804DF628100349088062B631
:1032F00070470000002005400E2005402DE9F843EE
:103300002448254988420DD000208046B8F5826FB8
:1033100008D2214850F828001E4941F8280018F129
:103320000108F3E71B48FFF721F81C4807001C4879
:1033300006001C480400A01B80464046B0F101086E
:10334000002804D030783870761C7F1CF5E71648CA
:10335000814616480500B5EB090080464046B0F1AD
:103360000108002805D0002089F8000019F10109A2
:10337000F4E70F480F49104A531A98464346B3F1F1
:103380000108002B04D00B780370491C401CF5E7A2
:10339000BDE8F1830000FF1F000000001004FF1FC4
:1033A0003C390000E03900000805FF1F7C05FF1FC5
:1033B000B404FF1FE0390000303A000080B5114826
:1033C000006850F478500F490860642000F028F835
:1033D0000D4908600C4800684FF47A7148430B4966
:1033E00008600A4800680A490968C1F30361491C7A
:1033F000B0FBF1F0074908604FF496410120FEF759
:1034000009FB01BD388004405805FF1F5405FF1F0C
:10341000448004405C05FF1FDFF800F0B504FF1F87
:1034200038B50400E4B2002C00F00681E4B22000BC
:1034300030281ED0322823D0602828D064282DD0F0
:103440006E2832D0782837D07D283CD0822841D0D1
:103450008C2846D096284BD0A02850D0AA2855D0EA
:10346000B4285AD0C8285FD0E12864D0FA2869D09F
:103470006FE018209F49087000209E4948706CE05A
:1034800018209C49087001209A49487065E018206E
:10349000984908701820974948705EE018209549AF
:1034A00008701A209349487057E018209149087015
:1034B0001F209049487050E013208E490870182052
:1034C0008C49487049E013208A4908701A208949BC
:1034D000487042E01320874908701C2085494870D5
:1034E0003BE00E208349087012208249487034E086
:1034F0000E208049087015207E4948702DE00E206E
:103500007C49087018207B49487026E00E207949D4
:1035100008701B20774948701FE00E20754908701D
:103520001E207449487018E00C20724908701C2055
:103530007049487011E00B206E4908701E206D49DB
:1035400048700AE00A206B4908701F2069494870DA
:1035500003E06420FFF764FFCAE00020654988703B
:10356000E4B2332C03DA00206249C87017E0E4B2F9
:10357000652C03DA01205F49C87010E0E4B2972C93
:1035800003DA02205B49C87009E0E4B2C92C03DA0F
:1035900003205849C87002E00F205649C8705548AA
:1035A000C07854490871E4B21A2C03DA002051495A
:1035B000487141E0E4B2332C03DA01204D494871EF
:1035C0003AE0E4B24C2C03DA02204A49487133E075
:1035D000E4B2652C03DA0320464948712CE0E4B2DA
:1035E0007E2C03DA04204349487125E0E4B2972C8D
:1035F00003DA05203F4948711EE0E4B2B02C03DA3B
:1036000006203C49487117E0E4B2C92C03DA0720D0
:103610003849487110E0E4B2E22C03DA0820354959
:10362000487109E0E4B2FB2C03DA09203149487102
:1036300002E00F202F4948712E484078183080B2A0
:10364000322148432B490978491C89B290FBF1F09B
:1036500005000020284908702848006850F0805074
:10366000264908602648007850F0800024490870F8
:1036700098202449087024480078C006FBD42248CA
:103680000078C0F38100C0B20228F8D11948007850
:1036900010F01F001D49087000201D4908701548D2
:1036A0004379144802791348C17812488078FFF7AB
:1036B000B3FE1048407810F01F0050F0400014494D
:1036C0000870114800788006FBD50F480078400646
:1036D000FBD50C48007810F03F000A4908700A48F2
:1036E0000078C0F38100C0B20328F8D12800C0B22E
:1036F00032BD00BF9404FF1F0140064034800440E7
:1037000008C007400040064006400640044006400E
:10371000054006400000000000000000002F0000EF
:1037200000000700070000147F147F1400242A7F84
:103730002A12006264081323003649552250000003
:103740000503000000001C224100000041221C0073
:103750000014083E08140008083E0808000000A0F5
:1037600060000008080808080000606000000020F1
:1037700010080402003E5149453E0000427F4000CF
:10378000004261514946002141454B310018141255
:103790007F10002745454539003C4A494930000122
:1037A0007109050300364949493600064949291E71
:1037B00000003636000000005636000000081422D3
:1037C00041000014141414140000412214080002D3
:1037D0000151090600324959513E007C1211127CF8
:1037E000007F49494936003E41414122007F414125
:1037F000221C007F49494941007F09090901003E17
:103800004149497A007F0808087F0000417F410054
:10381000002040413F01007F08142241007F4040CA
:103820004040007F020C027F007F0408107F003EB2
:103830004141413E007F09090906003E4151215E98
:10384000007F091929460046494949310001017F95
:103850000101003F4040403F001F2040201F003F2B
:103860004038403F006314081463000708700807DD
:1038700000615149454300007F41410000552A55F0
:103880002A55000041417F0000040201020400406B
:10389000404040400000010204000020545454788D
:1038A000007F4844443800384444442000384444AD
:1038B000487F00385454541800087E09010200184B
:1038C000A4A4A47C007F080404780000447D400088
:1038D000004080847D00007F102844000000417F6C
:1038E0004000007C04180478007C08040478003848
:1038F0004444443800FC242424180018242418FCD0
:10390000007C0804040800485454542000043F4438
:103910004020003C4040207C001C2040201C003CFB
:103920004030403C004428102844001CA0A0A07C4B
:10393000004464544C441414141414140000000083
:103940000000E03F0000000000003D4000000000DB
:1039500000003440333333333333D33F00000000AF
:1039600000003440000000000000E03F00B00340D1
:1039700000B00B40008003400090034000800B40EB
:1039800000F00F4040F00F4080F00F40C0F00F40BB
:1039900000F10F400090044000A0044000B004403B
:1039A00000C0044000D004400102030A0405060BD5
:1039B0000708090C0E000F0D9001000020BF020047
:1039C0000B1F00000009000000A0064000B00640E8
:1039D00000C0064000D0064000A00E4000B00E40DF
:1039E000F0B4114E366834000F4E366856F47F0638
:1039F0000D4F3E600E0616F0706656EA007617050B
:103A000017F470073E431F0417F470273E43074F17
:103A10003E6000263500EDB29D4201D26D1CFAE7F2
:103A2000014E3460F0BC704700F001404480044017
:103A3000B6CFD1D4B7A2C9FAD4DA2573CEC4BCFEAE
:103A4000B5C4B5DA2564D0D0A3A10AB6CFD1D4CC01
:103A5000F5BCFEB2BBB3C9C1A2A3ACC7EBBCECB210
:103A6000E2B4EDCEF3D4ADD2F2A1A309A1AAA1AAEA
:103A7000206279200A0A0000453A5C476974507256
:103A80006F6A5C4941525C4941525C576972656C8E
:103A9000657373506F7765725C6C616E647A6F4B9F
:103AA00036304F4C45445C7372635C647269766572
:103AB00072735C46544D5C46544D2E63000000000A
:103AC000C4DABACBC6B5C2CAA3BA25644D487A09CE
:103AD000D7DCCFDFC6B5C2CA20A3BA25644D487A69
:103AE0000A666C6578C6B5C2CAA3BA25644D487A21
:103AF0002009666C617368C6B5C2CAA3BA25644D55
:103B0000487A0A0A000000000A5468697320766542
:103B10007273696F6E206F6620736F66747761725F
:103B20006520646F65736E2774207265636F676EBE
:103B3000697A6520746865207265766973696F6E4D
:103B400020636F64652E000019E050F8041BCB075A
:103B500044BFA9F101035918121F0023042A41F898
:103B6000043BF9D25FEA827C0B4604D54FF0000C8F
:103B7000A1F800C09B1CD10744BF0021197050F868
:103B8000042B002AE1D170470A4552522120496E88
:103B900076616C6964204952512076616C756520AC
:103BA00070617373656420746F2064697361626C03
:103BB00065206972712066756E6374696F6E210A83
:103BC00000000000453A5C49415250726F6A5C6CDB
:103BD000616E647A6F4B36304F4C45445C73726350
:103BE0005C647269766572735C6770696F5C67703C
:103BF000696F2E6300000000453A5C4941525072E3
:103C00006F6A5C6C616E647A6F4B36304F4C454422
:103C10005C7372635C647269766572735C61646321
:103C20005C6164632E6300000A2A2A2A2A6465669E
:103C300061756C745F69737220656E74657265641A
:103C4000206F6E20766563746F722025642A2A2A9D
:103C50002A2A0D0A0A0000000A556E7265636F6712
:103C60006E697A6564204B696E6574697320706152
:103C7000636B61676520636F64652E2020202020C0
:103C8000200000000A556E7265636F676E697A6581
:103C900064204B696E657469732066616D696C7927
:103CA000206465766963652E0A000000466C6173C6
:103CB0006820706172616D657465722076657273DB
:103CC000696F6E2025642E25642E25642E25640AD6
:103CD0000000000010B5074979441831064C7C44B7
:103CE000163404E00A68081D114488470146A142C1
:103CF000F8D110BD08000000140000004DFEFFFFC9
:103D0000740000000805FF1F000000000A2A2A2A8C
:103D10002AD3B2BCFEC9CFB7C3B4EDCEF321212163
:103D20002A2A2A2A2A0D0A0A000000000A0A09097A
:103D3000C0B6D6E66B696E65746973BACBD0C4B091
:103D4000E5B2E2CAD4B3CCD0F20A00000AC0B6D6BB
:103D5000E64B696E65746973BFAAB7A2B0E5C6F495
:103D6000B6AFB7BDCABDA3BA00000000455252218C
:103D70002120556E646566696E656420502D666C01
:103D80006173682073697A650A0000004552522108
:103D90002120556E646566696E656420466C6578A1
:103DA0004E564D2073697A650A000000466C6173B7
:103DB000682076657273696F6E2049442025642EF1
:103DC00025642E25642E25640A000000436F726569
:103DD000204C6F636B7570204576656E742052655C
:103DE0007365740A000000004C6F772D766F6C7459
:103DF00061676520446574656374205265736574FA
:103E00000A000000455252212120556E6465666902
:103E10006E65642052414D2073697A650A0A00007C
:103E200000F00BF8002801D0FFF754FF0020C04637
:103E3000C046FEF75BF900F002F80120704700F081
:103E400001B800000746384600F002F8FBE7000022
:103E500080B5C046C046024A11001820ABBEFBE741
:103E6000260002005761746368646F6728434F50EF
:103E7000292052657365740A000000004C6F73734B
:103E8000206F6620436C6F636B2052657365740A04
:103E900000000000313238206B4279746573206F66
:103EA0006620502D666C617368090000323536203B
:103EB0006B4279746573206F6620502D666C617358
:103EC00068090000353132206B4279746573206FC8
:103ED0006620502D666C61736809000030206B42CB
:103EE00079746573206F6620466C65784E564D0A6E
:103EF00000000000313238206B4279746573206F06
:103F00006620466C65784E564D0A000032353620E4
:103F10006B4279746573206F6620466C65784E56E7
:103F20004D0A000080B503480178C9B20248FDF788
:103F30006EFA01BD04ED00E0283C00000AC4E3B7BE
:103F4000A2CBCDB5C4CAFDBEDDCEAAA3BA00000087
:103F5000444D415F4348305F48616E646C65720A4E
:103F60000000000045787465726E616C2050696EC7
:103F70002052657365740A0053696C69636F6E2023
:103F800072657620312E302020200A0053696C693A
:103F9000636F6E2072657620312E3120200A00007A
:103FA00053696C69636F6E2072657620312E322002
:103FB000200A00003332206B4279746573206F66EB
:103FC0002052414D0A0A00003634206B4279746554
:103FD00073206F662052414D0A0A00003936206B6B
:103FE0004279746573206F662052414D0A0A0000C1
:103FF000313238206B4279746573206F66205241EC
:104000004D0A0A000A46544D31B7A2CBCDD6D0B6E0
:10401000CF0A0000536F6674776172652052657332
:1040200065740A00506F7765722D6F6E205265734C
:1040300065740A00333270696E2020202020202011
:1040400000000000343870696E20202020202020DD
:1040500000000000363470696E20202020202020CF
:1040600000000000383070696E20202020202020C1
:1040700000000000383170696E20202020202020B0
:104080000000000031303070696E20202020202098
:104090000000000031303470696E20202020202084
:1040A0000000000031343470696E20202020202070
:1040B0000000000031393670696E20202020202059
:1040C0000000000032353670696E2020202020204C
:1040D00000000000502D666C617368206F6E6C7973
:1040E0000A00000010B504002100C9B20120FDF74C
:1040F00074FD10BD4A5441472052657365740A002F
:104100004C4C57552052657365740A00666C617398
:1041100068C6F4B6AF0A00005352414DC6F4B6AFBC
:104120000A000000C046C046C046C046FFF778FE01
:1041300070776D3A00000000667265713A00000009
:1041400030302E30300000000A4B31302D0000009E
:104150000A4B32302D0000000A4B33302D00000096
:104160000A4B34302D0000000A4B36302D00000081
:104170000A4B37302D0000000A4B35302D0000006F
:084180000A4B35332D0000004D
:040000050000412591
:00000001FF
